:020000040800F2
:10000000300500209D010008CB170008FD100008F6
:10001000C9170008CD0200089D1900080000000063
:10002000000000000000000000000000CF170008E2
:10003000CF02000800000000CD170008D11700080B
:10004000B7010008B7010008B7010008B7010008B0
:10005000B7010008B7010008B7010008B7010008A0
:10006000B7010008B7010008B7010008B701000890
:10007000B7010008B7010008B7010008B701000880
:10008000B7010008B7010008B7010008B701000870
:10009000B7010008B7010008B7010008B701000860
:1000A000B7010008B7010008B7010008B701000850
:1000B000B7010008B7010008B7010008B701000840
:1000C000B7010008B7010008B7010008B701000830
:1000D000B7010008B7010008B7010008B701000820
:1000E000B7010008B7010008B7010008B701000810
:1000F000B7010008B7010008B7010008B701000800
:10010000B7010008B7010008B7010008B7010008EF
:10011000B7010008B7010008B7010008B7010008DF
:10012000B7010008B7010008B7010008B7010008CF
:10013000B7010008B7010008B7010008B7010008BF
:10014000B7010008B7010008B7010008B7010008AF
:10015000B7010008B7010008B7010008B70100089F
:10016000B7010008B7010008B7010008B70100088F
:10017000B7010008B7010008B7010008000000003F
:10018000B7010008B7010008DFF80CD000F08CF8C8
:1001900000480047DD190008300500200648804768
:1001A00006480047FEE7FEE7FEE7FEE7FEE7FEE75C
:1001B000FEE7FEE7FEE7FEE75918000889010008A0
:1001C0002DE9F05F0546002092469B46884606468C
:1001D000814640241BE0284641464746224600F01F
:1001E00053F853465A46C01A914110D31146184647
:1001F000224600F03AF82D1A67EB01084F462246D6
:100200000120002100F031F817EB00094E41201EBB
:10021000A4F10104DFDC484631462A464346BDE8E6
:10022000F09F40EA01039B0703D009E008C9121FB1
:1002300008C0042AFAD203E011F8013B00F8013BA0
:10024000521EF9D27047D2B201E000F8012B491ECC
:10025000FBD270470022F6E710B513460A46044663
:100260001946FFF7F0FF204610BD202A04DB203A94
:1002700000FA02F1002070479140C2F1200320FAF9
:1002800003F3194390407047202A04DB203A21FAF7
:1002900002F00021704721FA02F3D040C2F120029F
:1002A0009140084319467047064C074D06E0E06848
:1002B00040F0010394E8070098471034AC42F6D3AD
:1002C000FFF766FF901A0008B01A0008FEE77047B3
:1002D00070B5044600F0F0F80546601C02D00448F2
:1002E0000078044400F0E8F8401BA042FAD370BD47
:1002F0001C0000202DE9F84F00224FF001080325D3
:100300004FF00F0E0B6808FA02F42340A3426ED19F
:100310004E68012E05D0022E03D0112E01D0122ED0
:1003200012D186684FEA420C05FA0CF7BE43CF683B
:1003300007FA0CF7374387604668A6430C79C4F385
:100340000014944034434460C668570005FA07FC23
:100350008C6826EA0C06BC403443C4604C68022C0E
:1003600001D0122C13D1D40800EB8404A346D4F896
:10037000209054074FEAD46A0EFA0AF629EA0609D1
:100380000E6906FA0AF646EA0906CBF82060066806
:100390000C7926EA0C0604F00304BC4034430460E4
:1003A0004C68E40065D5364C266846F480462660E5
:1003B000246822F0030604F480440094314C344451
:1003C000A446D4F808489607370F0EFA07F6B44348
:1003D0002D4EB04201D1002624E02C4EB04201D176
:1003E00001261FE02A4EB04202D102261AE040E068
:1003F000284EB04201D1032614E0274EB04201D16D
:1004000004260FE0254EB04201D105260AE0244E15
:10041000B04201D1062605E0224EB04201D10726A6
:1004200000E00826BE402643CCF808681E4E34681B
:100430004F689C43FF0300D51C4334601A4C241DB5
:1004400026684F689E43BF0300D51E432660164EA4
:10045000083634684F689C43FF0200D51C43346063
:10046000114E0C3634684F689C43BF0200D51C43C4
:100470003460521C102AFFF445AFBDE8F88F00002D
:1004800044380240003001400000024000040240B5
:1004900000080240000C024000100240001402401C
:1004A00000180240001C0240003C01400AB181617A
:1004B00070470904FBE700000148806870470000AE
:1004C0001C00002070B5040025D094F83D000025E4
:1004D00020B984F83C50204600F03EFA242084F8ED
:1004E0003D002068016821F0010101602068016879
:1004F00041F4004101602068016821F4004101607D
:1005000000F084FB4D4A6168914201D84C4900E0FB
:100510004C49884201D2012070BD4B492368B0FB91
:10052000F1F15E6826F03F060E435E606368934219
:1005300006D94FF4967359434FF47A73B1FBF3F134
:100540002368491C1E6A26F03F0631431962616820
:10055000914210D84900401EB0FBF1F2521CC2F388
:100560000B02042A01D2042022E0B0FBF1F0401C6F
:10057000C0F30B001CE0A268F2B301EBC10303EB74
:100580000116431EB3FBF6F35B1C43F480431B05CB
:1005900049D092B301EBC10202EB0111401EB0FB46
:1005A000F1F0401CC0F30B0040F4804040F40040E8
:1005B0002168CA694CF6FF739A431043C861D4E9B5
:1005C000071001432068026822F0C0021143016055
:1005D000D4E9030101432068826848F2FF339A435B
:1005E00011438160D4E9050108432168CA6822F0FB
:1005F000FF021043C86001E00EE016E020680168C9
:1006000041F0010101602564202084F83D0025634C
:1006100084F83E50002070BD01EB4106431EB3FB41
:10062000F6F35B1CB3E70120C2E701EB4101401E7A
:10063000B0FBF1F0401CC0F30B00B7E7A08601004F
:1006400080841E0000093D0040420F002DE9F84F54
:100650001F4690468A460446DDF82890FFF72CFF97
:10066000054694F83D00202875D1192301226C49D4
:100670002046009500F05EFE0028F5D194F83C007D
:10068000012868D0012084F83C0020680168C9076F
:1006900003D1016841F0010101602068016821F483
:1006A00000610160222084F83D00102084F83E00A3
:1006B00000262664C4F824806785608D208559480B
:1006C000E0622B464A465146204600F02FFD0028A6
:1006D00078D1208D544F68B1012814D002282068A9
:1006E000016816D041F48061016020684169806929
:1006F000009087E02068416981690091016841F4B8
:10070000007101607EE02068016821F48061016071
:10071000F0E721F4806101602068016841F4006124
:10072000E2E7032848D801280AD0022814D04B4613
:10073000002239462046009500F0FCFDD8BB27E09A
:100740002A464946204600F074FEA0BB2068006996
:10075000616A08704DE061E04B4600223946204650
:10076000009500F0E7FD30BB2068016841F400719E
:10077000016020680069616A0870606A401C6062FC
:10078000218D491E2185618D491E618521682EE0DC
:100790002068016821F48061016020680069616A55
:1007A0000870606A401C6062208D401E2085608D4C
:1007B000401E6085D0E705E02A464946204600F005
:1007C00038FE10B10120BDE8F88F20680069616A29
:1007D0000870606A401C6062218D491E2185618D10
:1007E000491E618521684A69D24352070AD40969C2
:1007F0000170606A401C6062208D401E2085608D03
:10080000401E6085208D00288BD1202084F83D007B
:1008100084F83E6084F83C600020D4E70220D2E7F0
:10082000020010000000FFFF040001002DE9F84F56
:100830001F4690468A460446DDF82890FFF73CFEA6
:10084000054694F83D0020287FD119230122404914
:100850002046009500F06EFD002876D194F83C000B
:10086000012872D0012084F83C0020680168C90783
:1008700003D1016841F0010101602068016821F4A1
:1008800000610160212084F83D00102084F83E00C2
:1008900000262664C4F824806785608D20852D4855
:1008A000E0622B464A465146204600F0B5FC90B91E
:1008B000206841698069009036E02A464946204612
:1008C00000F0EAFD50B1206C042804D120680168D2
:1008D00041F4007101600120BDE8F88F606A216871
:1008E00000780861606A401C6062618D491E618504
:1008F000218D491E89B2218522685369DB435B073C
:100900000BD451B100781061606A401C6062608D48
:10091000401E6085208D401E20852A46494620467F
:1009200000F0E2FC0028CED1208D0028C5D154F87B
:100930003D0B016841F400710160202004F81E099C
:10094000E67766770020C7E7FFE70220C4E70000EC
:10095000020010000000FFFF10B586B0044614210D
:100960006846FFF777FC13492068884220D1124877
:10097000016841F0020101600068694600F0020070
:100980000590C020009012200190012002900320C9
:100990000390042004900948FFF7ACFC064810308F
:1009A000016841F400110160006800F40010059036
:1009B00006B010BD00540040303802400004024030
:1009C0000248816802781144816070471C00002051
:1009D0000B4810B5016841F400710160016841F4F1
:1009E00080610160016841F480710160032000F0C2
:1009F00061F8002000F006F800F024F8002010BD97
:100A0000003C024070B50D4D04464FF47A712878D1
:100A1000B1FBF0F00A490968B1FBF0F000F0F4FA1C
:100A200048B9102C07D200222146501E00F022F8AF
:100A300000206C6070BD012070BD00001C00002013
:100A4000280000200A4808B5016841F4804101608F
:100A5000006800F4804000900548001F016841F0E4
:100A600080510160006800F08050009008BD0000D7
:100A700044380240F0B40E4B1B680C46C3F302230B
:100A8000C3F10705042D00D90425191D072901D23A
:100A9000002300E0DB1E012606FA05F1491E214075
:100AA00099409E40761E16403143F0BC00F077BF5F
:100AB0000CED00E0064900F0070208684FF6FF035E
:100AC000184040EA0220034A1043086070470000C3
:100AD0000CED00E00000FA052DE9F0470E46050098
:100AE00065D0DFF81481D8F80000F7B200F00F00ED
:100AF000B04207D288F80070D8F8000000F00F006C
:100B0000B04254D128683D4C810712D5400703D527
:100B1000206840F4E05020602878000703D5206862
:100B200040F4604020602068A96820F0F00008438D
:100B300020602878C0072DD030496868083901281E
:100B400012D0022813D0032811D009688907002980
:100B50002DDA216821F0030101432160FFF7ACFC8D
:100B6000814641F2883A0EE009688903EFE7096897
:100B70008901ECE7FFF7A0FCA0EB0901514502D980
:100B80000320BDE8F0872068696800F00C00B0EB36
:100B9000810FEFD1D8F80010404601F00F01B142AB
:100BA00007D90770006800F00F00B04201D00120A3
:100BB000E7E72878400705D52068E96820F4E05089
:100BC000084320602878000706D52068296920F4AA
:100BD000604040EAC100206000F038F82168084A0F
:100BE000C1F30311515CC84006490860064800681B
:100BF000FFF708FF0020C4E7003C0240083802402D
:100C0000781A000828000020200000200448054928
:100C100000680968044AC1F38221515CC8407047EA
:100C20002800002008380240881A000804480549B6
:100C300000680968044AC1F34231515CC8407047FA
:100C40002800002008380240881A0008154810B50E
:100C5000006810F00C02144813D04110042A0FD081
:100C6000082A0ED10F4C241F2268236802F03F028D
:100C70005B0207D52068C0F38810A0FB010106E0E5
:100C8000084610BD2168C1F38811A1FB00010023B3
:100C9000FFF796FA2168C1F30141491C4900B0FBF6
:100CA000F1F010BD083802400024F4002DE9F84F9F
:100CB00004006ED02078DFF83C93C007A9F104054A
:100CC0004AD009F104000168C1F38101012908D06B
:100CD0000068C0F3810002280AD1D9F80000400260
:100CE00006D52868800337D560680028E1D033E056
:100CF0006068B0F5803F10D0B0F5A02F286810D004
:100D000020F480302860286820F480202860606803
:100D1000A8B1FFF7D1FB06460DE0286840F480300B
:100D2000F4E740F480202860F7E700BFFFF7C4FB3A
:100D3000801B642873D828688003F7D50CE0FFF780
:100D4000BBFB064605E000BFFFF7B6FB801B64282F
:100D5000F0D828688003F7D42078DFF89C828007D9
:100D60004FF0000A3ED5A348001D016811F00C0F9A
:100D700008D00068C0F3810002280BD1D9F8000028
:100D8000400207D42868800716D5E068012800D102
:100D900012E02BE1E068B8B10120C8F80000FFF7CD
:100DA0008BFB064605E000BFFFF786FB801B022891
:100DB000C0D828688007F7D52868216920F0F80096
:100DC00040EAC10028600DE0C8F800A0FFF774FBFE
:100DD000064604E0FFF770FB801B02281FD8286836
:100DE0008007F7D42078000722D5824E83486169B6
:100DF000703671B101210160FFF75EFB074604E028
:100E0000FFF75AFBC01B022809D830688007F7D5C6
:100E10000EE0C0F800A0FFF74FFB074605E082E0B8
:100E2000FFF74AFBC01B02287DD830688007F7D443
:100E30002078400768D5DFF8BCB100270BF13C0BE8
:100E4000DBF80000C0000BD4DBF8001041F080514B
:100E5000CBF80010DBF80000012700F08050009074
:100E6000674E3068C00510D4306840F48070306040
:100E7000FFF722FB009005E0FFF71EFB0099401AE8
:100E8000022850D83068C005F6D55A4EA0686C3696
:100E900001280FD00528306810D020F00100306004
:100EA000306820F004003060A068B8B1FFF704FBA0
:100EB00000900FE0306840F00100F4E740F00400DB
:100EC0003060F7E7FFF7F8FA0099411A41F28830ED
:100ED000814266D830688007F4D50EE0FFF7ECFA5F
:100EE000009007E0FFF7E8FA0099411A41F28830D4
:100EF000814256D830688007F4D42FB1DBF8001057
:100F000021F08051CBF80010A069C8B33949091D00
:100F10000968C1F3810102294AD00228504607D04E
:100F2000C8F8600000E03CE0FFF7C6FA04463BE08A
:100F30004746C8F86000FFF7BFFA064605E000BF65
:100F4000FFF7BAFA801B02282BD828688001F7D453
:100F5000D4E907010843A16A2A4A490802EB014182
:100F6000626A41EA8211084394F82C1040EA016158
:100F7000C9F8001001203866FFF79EFA044606E023
:100F800036E000BFFFF798FA001B022809D828684E
:100F90008001F7D52CE000BFFFF78EFA001B022876
:100FA00002D90320BDE8F88F28688001F4D41FE03F
:100FB0000128F7D0D9F80000E26900F480019142DD
:100FC00014D1226A00F03F0191420FD147F6C0715F
:100FD000626A0140914209D1A26A00F44031914213
:100FE00004D1E16A00F07060884201D00120D9E7A5
:100FF0000020D7E70438024000004742800E4742F5
:10100000007000400000FFFF10B5401EB0F1807F6F
:1010100001D3012010BD4FF0E02460610F21601763
:1010200000F0BDFC0020A06107202061002010BD61
:1010300070B5040004D094F83900002510B106E022
:10104000012070BD84F83850204600F023F8242099
:1010500084F839002068C16821F40051C16020463D
:1010600000F008FC2068016921F4904101612068CA
:10107000416921F02A0141612068C16841F40051B1
:10108000C160E563202084F8390084F83A0000202C
:1010900070BD000010B586B0044614216846FFF705
:1010A000D9F813492068884220D1124800210268EB
:1010B00042F400320260006800F4003005900D48F0
:1010C0001038026842F001020260006800F001007E
:1010D00005900C2000900220CDE90101032003902F
:1010E0000720049069460448FFF704F906B010BDD4
:1010F000004400404038024000000240FEE7016822
:101100004A69D24352050FD46FF480624A610021CC
:1011100040F8301F202242738173026942F00402BA
:101120000261017301207047002070472DE9F84FDC
:101130000446C06A1E4693460D4621680A6842F47A
:1011400080620A60082807D0012805D010F5803F8A
:1011500002D0206B112804D12068016841F480710D
:1011600001604FF001195B46002249462046009677
:1011700000F0E0F84FF4007840B120680068C00546
:1011800001D5C4F840800320BDE8F88F2069DFF85E
:1011900084A0B0F5804F0FD00620216800EAD51753
:1011A00047F0F000086133465A460AF1060120462E
:1011B00000F0F4F858BB03E0E8B240F001001CE096
:1011C0002168E8B2086133465A465146204600F08D
:1011D000E5F8E0B92068416981690091016841F44E
:1011E000807101605B46002249462046009600F06F
:1011F000A1F80028C1D147F0F10021680861334609
:101200005A465146204600F0C9F80028BCD00120BB
:10121000BAE7000002000100F8B50446C06A1E46A5
:101220000D461746082807D0012805D010F5803F45
:1012300002D0206B122804D12068016841F480712B
:101240000160134600224FF001112046009600F085
:1012500071F840B120680068C00502D54FF40070F5
:1012600020640320F8BD2069B0F5804F0ED0062021
:10127000216800EAD51040F0F000086133463A4694
:101280000B49204600F08AF878B902E005F0FE002C
:1012900000E0E8B221680861054933463A46891FF3
:1012A000204600F07BF80028DCD00120F8BD0000CB
:1012B000080001007CB515468DF804000A200E4692
:1012C000D0240090012301AA21460648FFF7AEFA78
:1012D000642000902B46324621460248FFF7B6F9BB
:1012E0007CBD0000D800002070B516460D460446AF
:1012F0000DE02046FFF703FF08B1012070BD681C18
:1013000005D0FFF7D9F8801BA84207D835B120686F
:101310004069C0434007ECD4002070BD002044F871
:10132000300F20216173A073216941F020012161F8
:101330002073E2E72DE9F0471E4690460D4604462D
:10134000C1F30747DDF8209008E0701C06D0FFF7D6
:10135000B3F8A0EB0900B0420FD876B12068012F96
:1013600018D0806925EA00000004000C14D0002188
:101370004145EAD00020BDE8F087002044F8300F56
:1013800020216173A073216941F020012161207344
:101390000120F0E74069E5E70121E9E72DE9F047A1
:1013A0009A4691460E46044600254FF02008C1F3A8
:1013B000074725E020684069C043400514D42068F1
:1013C000016841F40071016021686FF48060486138
:1013D000256384F83D8084F83E50206C40F0040082
:1013E000206484F83C501FE0B9F1FF3F08D0FFF7BC
:1013F00063F8A0EB0A0149450CD8B9F1000F09D0F8
:101400002068012F13D0806926EA00000004000C38
:101410000BD0CFE744F8305F84F80D80A5732069C6
:1014200040F02000206125730120BDE8F08740696D
:10143000EAE72DE9F041002590460E4604462027B4
:1014400017E04069C043C0060CD454F8301B6FF05D
:101450001000486144F810596777A577206A206228
:10146000257717E0FFF728F8A0EB0800B04208D86E
:101470003EB120684169C9434906E2D40020BDE875
:10148000F08144F8305F6773A573206940F0200055
:10149000206125730120F2E770B516460D4604461B
:1014A0000DE02046FFF72BFE08B1012070BD681C3F
:1014B00005D0FFF701F8801BA84207D835B1206896
:1014C0004069C0430006ECD4002070BD002044F801
:1014D000300F20216173A073216941F02001216147
:1014E0002073E2E71CB502238DF8040064208DF818
:1014F00005100090D02101AA0148FFF797F91CBD03
:10150000D800002070B5044680216B20FFF7EAFF69
:101510006420FEF7DDFE20782179402200F00700EC
:1015200002EA811101436B20FFF7DCFF6420FEF724
:10153000CFFEE07800F007011A20FFF7D3FF6078B4
:10154000182505EAC0011B20FFF7CCFFA07805EAAB
:10155000C0011C20FFF7C6FF042000F0E9F8A178C5
:101560009FED150A154831B1012907D0022908D08D
:1015700003290AD112E080ED030A06E0DFED100A2C
:1015800001E0DFED100AC0ED030A617849B10129DD
:101590000AD002290BD003290DD10AE0DFED0A0A97
:1015A000F1E79FED0A0A04E09FED090A01E09FEDD3
:1015B000090A80ED040A70BD00007A3D0000002099
:1015C0000000FA3D00007A3E0000FA3E0000FA3BBF
:1015D00000007A3C0000FA3C10B586B004460122B7
:1015E0003A200DF10101FFF765FE9DF8010000288A
:1015F00034D0062201A93B20FFF75CFE9DF80500D0
:101600009DF80410062200EB012020809DF80700C1
:101610009DF8061000EB012060809DF809009DF800
:10162000081000EB0120A08003A94320FFF742FE31
:101630009DF80D009DF80C1000EB01210848018079
:101640009DF80F109DF80E2001EB022141809DF8BE
:1016500011109DF8102001EB0221818006B010BD11
:10166000140000201CB504466846FFF7B5FFBDF91D
:10167000000000EE100A0F48F8EEC00A90ED030AD1
:1016800060EE800AC4ED000ABDF9020000EE900A87
:10169000F8EEE00A60EE800AC4ED010ABDF904002C
:1016A00000EE900AF8EEE00A20EE800A84ED020ACD
:1016B0001CBD00000000002003490A8802804A88FF
:1016C0004280898881807047140000200CB5034651
:1016D0006846FFF7F1FFBDF9000000EE100A0F4861
:1016E000F8EEC00A90ED040A60EE800AC3ED000A2D
:1016F000BDF9020000EE900AF8EEE00A60EE800A02
:10170000C3ED010ABDF9040000EE900AF8EEE00A0C
:1017100020EE800A83ED020A0CBD000000000020CC
:10172000014654220148FEF77CBD0000D80000208D
:1017300001461920FFF7D6BEF0B587B014216846E0
:10174000FEF788FD1D480024016841F0800101601A
:10175000016801F080010591016841F0010101601B
:10176000016801F001010591016841F00801016083
:10177000016801F008010591016841F00201016072
:1017800000680F4F00F002004FF4704605900022F1
:1017900031463846FEF78AFE0125CDE900546946F8
:1017A00008480294FEF7A6FD0096CDE9015469466B
:1017B00038460394FEF79EFD07B0F0BD3038024076
:1017C000000C024000000240FEE77047704770477F
:1017D000FFF7F6B830B593B030216846FEF73AFD12
:1017E00014210CA8FEF736FD19480025016841F0C8
:1017F00080510160006800F0805011901548016828
:1018000041F4804101600068022400F4804011909E
:1018100001200090000401908001CDE9064008AA53
:101820000420A82182E813000B906846FFF73EFAD7
:101830000CA90F2081E831004FF4A0500F90E00276
:10184000109005210CA8FFF747F913B030BD000038
:1018500040380240007000400548016841F47001C2
:10186000016003494FF00060803908607047000054
:1018700088ED00E02DE9F041044600680169E26866
:1018800021F44051114301612169A068E2690843D4
:101890006169114308432168CA6849F20C639A439D
:1018A0000243CA6020684169A26921F44071114372
:1018B0004161E069192764253226B0F5004F354AA9
:1018C000354920684FF0000806D0884201D0904288
:1018D00036D1FFF7ABF935E0884201D0904202D112
:1018E000FFF7A4F901E0FFF791F961684A18A0FB3E
:1018F000070148EB0803FEF763FC0146B0FBF5F077
:101900000201B1FBF5F06FF01803584301EB8000C2
:1019100006EBC000B0FBF5F000F0F80002EB40026F
:10192000B1FBF5F0584301EB800006EBC000B0FBC3
:10193000F5F000F00700216810448860BDE8F081F0
:10194000FFF764F961688B0F8A00A0FB0701FEF7BF
:1019500037FC0146B0FBF5F06FF01802504301EB85
:10196000800006EB0010B0FBF5F000F0F002B1FBD8
:10197000F5F002EB0012B1FBF5F06FF018035843DD
:1019800001EB800006EB0010B0FBF5F000F00F005B
:10199000D1E700000014014000100140FEE70907F4
:1019A000090E002804DB00F1E02080F800147047E5
:1019B00000F00F0000F1E02080F8141D704702E0F5
:1019C00008C8121F08C1002AFAD1704770470020CA
:1019D00001E001C1121F002AFBD170471CB5FEF7C0
:1019E000F7FFFFF7F7FEFFF7A7FE20481E49002488
:1019F00001601F49C0E901144FF48041C0E903416F
:101A000044618461C4610462FEF75CFD17481949B2
:101A1000543001604FF4E131C0E901140C21C4607D
:101A2000C0E904418461C461FFF702FB0F48FFF77E
:101A300077FE01208DF802008DF800408DF803003C
:101A40008DF801008DF804406846FFF75BFD0748FC
:101A50009430FFF707FE0548A030FFF737FE6420FB
:101A6000FEF736FCF3E70000005400402C00002095
:101A7000A0860100004400400000000000000000BB
:101A80000102030406070809000000000102030424
:101A9000B01A0008000000202C000000BE19000849
:101AA000DC1A00082C00002004050000CE190008F4
:101AB0000000000000000000000000000000000026
:101AC0000000000000000000000000000100000015
:0C1AD00010000000000000000024F400E2
:040000050800018965
:00000001FF
