:020000040800F2
:1000000050050020C1010008A71B0008491900087D
:10001000A51B00085D0800080D2300080000000073
:10002000000000000000000000000000AB1B000802
:100030005F08000800000000A91B0008F11B000871
:10004000DB010008DB010008DB010008DB01000820
:10005000DB010008DB01000861080008DB01000883
:10006000DB010008DB010008DB010008DB01000800
:10007000DB010008DB010008DB010008DB010008F0
:10008000DB010008DB010008DB010008DB010008E0
:10009000DB010008DB010008DB010008DB010008D0
:1000A000DB010008DB010008DB010008DB010008C0
:1000B000991C0008DB010008DB010008DB010008D7
:1000C000DB010008DB010008DB010008DB010008A0
:1000D000DB010008DB010008DB010008DB01000890
:1000E000DB010008DB010008DB010008DB01000880
:1000F000DB010008DB010008DB010008DB01000870
:10010000DB010008DB010008DB010008DB0100085F
:10011000DB010008DB010008DB010008DB0100084F
:10012000DB010008DB010008DB010008DB0100083F
:10013000DB010008DB010008DB010008DB0100082F
:10014000DB010008DB010008DB010008DB0100081F
:10015000DB010008DB010008DB010008DB0100080F
:10016000DB010008DB010008DB010008DB010008FF
:10017000DB010008DB010008DB01000800000000D3
:10018000DB010008DB010008DB010008DB010008DF
:10019000DB010008DB010008DB010008DB010008CF
:1001A000DB010008DB010008DB010008DFF80CD0F0
:1001B00000F068F90048004721260008500500209B
:1001C0000648804706480047FEE7FEE7FEE7FEE7F1
:1001D000FEE7FEE7FEE7FEE7FEE7FEE77D1C000820
:1001E000AD0100082DE9F05F0546002092469B46D0
:1001F00088460646814640241BE02846414647463D
:10020000224600F016F953465A46C01A914110D3BF
:1002100011461846224600F0FDF82D1A67EB01083A
:100220004F4622460120002100F0F4F817EB0009A8
:100230004E41201EA4F10104DFDC484631462A4627
:100240004346BDE8F09FD2B201E000F8012B491E01
:10025000FBD270470022F6E710B513460A46044663
:100260001946FFF7F0FF204610BD034611F8012B99
:1002700000F8012B002AF9D1184670470FB400B5D9
:1002800089B00BA800906A4603480A9900F0F0F87C
:1002900009B05DF814FB0000380000202DE9FF5F75
:1002A0001D464FF0FF3BD5E9014691465F464FF0B2
:1002B0000008A9697F1C01988847296A82468847F7
:1002C0000028F6D1BAF1FF3F0CD024F4C064002E10
:1002D00019DD600614D5BAF12B0F09D0BAF12D0F34
:1002E0000ED103E0584604B0BDE8F09F44F48064AA
:1002F000A9697F1C01988847761E8246002E02DD80
:10030000BAF1300F03D0B9F1000F26D032E0A9695D
:10031000761E44F400747F1C019888478246002EA4
:1003200005DDBAF1780F06D0BAF1580F03D0B9F154
:10033000000F10D01EE0B9F1000F02D0B9F1100F7C
:1003400018D1A969761E24F400747F1C019888478F
:100350008246102002E0082000E00A20814609E0E1
:1003600008FB0908A969761E44F400747F1C0198F3
:1003700088478246002E05DD4946504600F069F860
:100380000028EDDAE96901988847A00502D46FF0EA
:100390000100A8E7E00725D1600613D5600502D566
:1003A000C8F1000000E0404629680A1D2A6009687B
:1003B000220501D5087015E0220701D5088011E05B
:1003C00008600FE02868011D29600068210502D53A
:1003D00080F8008006E0210702D5A0F8008001E047
:1003E000C0F8008038467EE730B50B460146002055
:1003F0002022012409E021FA02F59D4205D303FAE7
:1004000002F5491B04FA02F52844151EA2F1010267
:10041000F1DC30BD202A04DB203A00FA02F1002092
:1004200070479140C2F1200320FA03F31943904032
:100430007047202A04DB203A21FA02F0002170479D
:1004400021FA02F3D040C2F120029140084319463C
:1004500070473A2800D2303820F02002412A01D3D8
:10046000A2F13700884201D34FF0FF3070470000FF
:10047000024B9361024BD36100F032B8292500088A
:10048000C5040008064C074D06E0E06840F0010393
:1004900094E8070098471034AC42F6D3FFF78AFE81
:1004A000B4270008D4270008094910B508784C1C67
:1004B00018B1401E0870205C10BD00210720ABBEA3
:1004C000207010BD02490878421C0A707047000075
:1004D00040000020026811441378016018467047FC
:1004E000D160044951610449116200211161114632
:1004F00000F00AB8D5040008FD040008C0B24FF4AB
:10050000F05100F097B900002DE9F34F8BB04FF098
:10051000000801F10C000C464FF0010B46460DF1AE
:10052000080A01906269012101989047051E2DD0AB
:10053000252D2CD0216A8847C0B16269012101981C
:100540009047216A88470028F7D1411E62690198C7
:10055000904700E0761CA1690B988847216A88477C
:100560000028F7D1E1690B988847DBE7A1690B9870
:1005700088470746A84201D1761CD3E7E1690B986A
:1005800088477F1C02D1B8F1000F6FD046E10027E9
:1005900062693D463946019890472A2804D162692C
:1005A0000121019890470125DFF8849262690121B9
:1005B00001989047A0F130010A290AD24F45E5DCA5
:1005C00007EB870100EB4107303FDFD445F0100512
:1005D000ECE7E90601D46FF000476C280AD04C28FC
:1005E00014D0682815D06A280DD074281CD07A2819
:1005F0001AD01DE062690121019890476C2802D051
:1006000045F0040514E045F002050DE045F0200535
:100610000AE06269012101989047682802D045F0FC
:10062000080505E045F400656269012101989047DD
:10063000C4E9015765283DD019DC58287AD00CDC74
:10064000452837D004DC252826D0412831D131E097
:1006500046282FD047282CD12CE05B2877D0612862
:1006600028D063287CD0642823D15AE0D0E06F28BA
:1006700048D008DC66281DD067281BD0692821D007
:100680006E2816D127E0702845D0732868D07528C9
:1006900047D078280DD14DE0A1690B9888470546D1
:1006A00025283FF469AFE1690B9888476D1C3FF43A
:1006B0006AAFB3E023466A466FF001000B99AFF3CF
:1006C00000809EE045F040006060A80723464FF0A0
:1006D000000236D43EE0E8077FF447AF2068011DF2
:1006E00021600068290501D506701BE7290701D59F
:1006F000068017E7A90703D5F117C0E9006111E7E4
:1007000006600FE745F040006060A80723464FF001
:10071000080216D41EE040F60E0125EA01006060D2
:1007200016E045F040006060A80723464FF00A023B
:1007300007D40FE045F040006060A80708D52346C5
:1007400010226FF001000B99AFF3008059E007E031
:10075000234610226FF001000B99FFF79FFD50E038
:100760004FF000094F464B46632802D05B2806D065
:1007700040E0E80601D40120A06001273AE0626968
:100780000121019890475E2805D14FF00109626967
:10079000494601989047216939B900210A465346D4
:1007A00043F82120491C0829FADBB0B3216969B953
:1007B000C11700EBD16253110AEB830122F01F0233
:1007C000821A01200B68904003430B60626901218B
:1007D000019890475D28E8D1B9F1000F09D00020B9
:1007E000514651F82020D24341F82020401C0828CF
:1007F000F7DB02AB224600976FF001000B99AFF3D5
:10080000008000280CDA401C08D1BBF1000F05D095
:100810004FF0FF300DB0BDE8F08FFFE74046F9E73D
:10082000E90701D108F1010806444FF0000B79E611
:10083000CCCCCC0C7F2801D9002208E0064A02EB80
:100840005002C007127800D1120902F00F020120F5
:1008500090400840704700002C270008FEE77047D2
:10086000012000F023B8000070B5044600F026F91E
:100870000546601C02D004480078044400F01EF9CC
:10088000401BA042FAD370BD2800002010B5012102
:10089000044800F001F9002802D003490020086054
:1008A00010BD00000000024034040040044910B5AF
:1008B0000A68024202D00860FFF7E8FF10BD00009E
:1008C000143C01402DE9F84F00224FF001080325A8
:1008D0004FF00F0E0B6808FA02F42340A3426ED1CA
:1008E0004E68012E05D0022E03D0112E01D0122EFB
:1008F00012D186684FEA420C05FA0CF7BE43CF6866
:1009000007FA0CF7374387604668A6430C79C4F3AF
:100910000014944034434460C668570005FA07FC4D
:100920008C6826EA0C06BC403443C4604C68022C38
:1009300001D0122C13D1D40800EB8404A346D4F8C0
:10094000209054074FEAD46A0EFA0AF629EA0609FB
:100950000E6906FA0AF646EA0906CBF82060046832
:100960000E7924EA0C0406F00306BE402643066016
:100970004C68E4006FD53B4C266846F48046266000
:10098000246822F0030604F480440094364C344476
:10099000A446D4F808489607360F0EFA06F7BC436B
:1009A000324FB84201D100272EE0314FB84201D179
:1009B000012729E02F4FB84202D1022724E04AE064
:1009C0002D4FB84201D103271EE02C4FB84201D170
:1009D000042719E02A4FB84201D1052714E0294F16
:1009E000B84201D106270FE0274FB84201D10727AF
:1009F0000AE0264FB84201D1082705E0244FB8424B
:100A000001D1092700E00A27B7402743CCF808782E
:100A1000204E34684F689C43FF0300D51C4334606C
:100A20001C4E361D34684F689C43BF0300D51C43E1
:100A30003460184E083634684F689C43FF0200D576
:100A40001C433460134E0C3634684F689C43BF021D
:100A500000D51C433460521C102AFFF43BAFBDE8A4
:100A6000F88F00004438024000300140000002408E
:100A70000004024000080240000C02400010024046
:100A80000014024000180240001C024000200240F6
:100A900000240240003C01400069084000D00120D1
:100AA0007047426931EA020200D10904816170474E
:100AB0000AB1816170470904FBE7000001488068C2
:100AC0007047000028000020024881680278114425
:100AD00081607047280000200B4810B5016841F480
:100AE00000710160016841F480610160016841F4B6
:100AF00080710160032000F06FF8002000F006F81C
:100B000000F024F8002010BD003C024070B50D4DEF
:100B100004464FF47A712878B1FBF0F00A4909686D
:100B2000B1FBF0F000F002FB48B9102C07D2002214
:100B30002146501E00F030F800206C6070BD01208E
:100B400070BD000028000020340000200A4808B5CD
:100B5000016841F480410160006800F48040009029
:100B60000548001F016841F080510160006800F0F5
:100B70008050009008BD000044380240002809DB86
:100B800000F01F02012191404009800000F1E020A7
:100B9000C0F8001170470000F0B40E4B1B680C4603
:100BA000C3F30223C3F10705042D00D90425191D41
:100BB000072901D2002300E0DB1E012606FA05F119
:100BC000491E214099409E40761E16403143F0BC9C
:100BD00001F0AEBB0CED00E0064900F0070208682A
:100BE0004FF6FF03184040EA0220034A1043086012
:100BF000704700000CED00E00000FA052DE9F04719
:100C00000E46050065D0DFF81481D8F80000F7B271
:100C100000F00F00B04207D288F80070D8F800004A
:100C200000F00F00B04254D128683D4C810712D526
:100C3000400703D5206840F4E05020602878000782
:100C400003D5206840F4604020602068A96820F047
:100C5000F000084320602878C0072DD0304968682C
:100C60000839012812D0022813D0032811D00968AE
:100C7000890700292DDA216821F003010143216051
:100C8000FFF71CFF814641F2883A0EE009688903AC
:100C9000EFE709688901ECE7FFF710FFA0EB090116
:100CA000514502D90320BDE8F0872068696800F04B
:100CB0000C00B0EB810FEFD1D8F80010404601F0E6
:100CC0000F01B14207D90770006800F00F00B04271
:100CD00001D00120E7E72878400705D52068E968BA
:100CE00020F4E050084320602878000706D52068EB
:100CF000296920F4604040EAC100206000F038F823
:100D00002168084AC1F30311515CC84006490860D4
:100D100006480068FFF7FAFE0020C4E7003C0240E6
:100D20000838024014270008340000202C0000205E
:100D30000448054900680968044AC1F38221515CEE
:100D4000C8407047340000200838024024270008BB
:100D50000448054900680968044AC1F34231515CFE
:100D6000C84070473400002008380240242700089B
:100D7000154810B5006810F00C02144813D041104B
:100D8000042A0FD0082A0ED10F4C241F2268236892
:100D900002F03F025B0207D52068C0F38810A0FB79
:100DA000010106E0084610BD2168C1F38811A1FBCE
:100DB00000010023FFF716FA2168C1F30141491C25
:100DC0004900B0FBF1F010BD083802400024F400E7
:100DD0002DE9F84F04006ED02078DFF83C93C0076F
:100DE000A9F104054AD009F104000168C1F38101A9
:100DF000012908D00068C0F3810002280AD1D9F87F
:100E00000000400206D52868800337D560680028B6
:100E1000E1D033E06068B0F5803F10D0B0F5A02F8E
:100E2000286810D020F480302860286820F48020C2
:100E300028606068A8B1FFF741FE06460DE028680B
:100E400040F48030F4E740F480202860F7E700BFEA
:100E5000FFF734FE801B642873D828688003F7D519
:100E60000CE0FFF72BFE064605E000BFFFF726FE6D
:100E7000801B6428F0D828688003F7D42078DFF836
:100E80009C8280074FF0000A3ED5A348001D0168F0
:100E900011F00C0F08D00068C0F3810002280BD1BC
:100EA000D9F80000400207D42868800716D5E0680A
:100EB000012800D112E02BE1E068B8B10120C8F8A8
:100EC0000000FFF7FBFD064605E000BFFFF7F6FD5B
:100ED000801B0228C0D828688007F7D528682169B8
:100EE00020F0F80040EAC10028600DE0C8F800A03A
:100EF000FFF7E4FD064604E0FFF7E0FD801B022853
:100F00001FD828688007F7D42078000722D5824EA2
:100F100083486169703671B101210160FFF7CEFD30
:100F2000074604E0FFF7CAFDC01B022809D8306855
:100F30008007F7D50EE0C0F800A0FFF7BFFD074619
:100F400005E082E0FFF7BAFDC01B02287DD83068BB
:100F50008007F7D42078400768D5DFF8BCB10027B8
:100F60000BF13C0BDBF80000C0000BD4DBF80010E9
:100F700041F08051CBF80010DBF80000012700F0B1
:100F800080500090674E3068C00510D4306840F43F
:100F900080703060FFF792FD009005E0FFF78EFD56
:100FA0000099401A022850D83068C005F6D55A4E2C
:100FB000A0686C3601280FD00528306810D020F0CA
:100FC00001003060306820F004003060A068B8B1E3
:100FD000FFF774FD00900FE0306840F00100F4E787
:100FE00040F004003060F7E7FFF768FD0099411A10
:100FF00041F28830814266D830688007F4D50EE02F
:10100000FFF75CFD009007E0FFF758FD0099411ADB
:1010100041F28830814256D830688007F4D42FB12D
:10102000DBF8001021F08051CBF80010A069C8B3A4
:101030003949091D0968C1F3810102294AD00228F2
:10104000504607D0C8F8600000E03CE0FFF736FDEE
:1010500004463BE04746C8F86000FFF72FFD064610
:1010600005E000BFFFF72AFD801B02282BD8286867
:101070008001F7D4D4E907010843A16A2A4A490844
:1010800002EB0141626A41EA8211084394F82C1094
:1010900040EA0161C9F8001001203866FFF70EFD33
:1010A000044606E036E000BFFFF708FD001B0228FB
:1010B00009D828688001F7D52CE000BFFFF7FEFCB7
:1010C000001B022802D90320BDE8F88F28688001A0
:1010D000F4D41FE00128F7D0D9F80000E26900F449
:1010E0008001914214D1226A00F03F0191420FD158
:1010F00047F6C071626A0140914209D1A26A00F4C8
:101100004031914204D1E16A00F07060884201D020
:101110000120D9E70020D7E7043802400000474209
:10112000800E4742007000400000FFFF10B5401ED7
:10113000B0F1807F01D3012010BD4FF0E024606149
:101140000F21601701F0F4F80020A0610720206152
:10115000002010BD7047704770B590F83C20012A00
:1011600032D0012480F83C40022280F83D20036800
:101170005A689D6822F070060A6832435A60134B21
:1011800002689A4214D0B2F1804F11D0104B9A42AB
:101190000ED0104B9A420BD00F4B9A4208D00F4BF7
:1011A0009A4205D00E4B9A4202D00E4B9A4204D17D
:1011B000496825F080031943916080F83D40002183
:1011C00080F83C10084670BD022070BD0000014050
:1011D0000004004000080040000C004000040140F2
:1011E000004001400018004010B5040003D094F8FE
:1011F0003D0010B107E0012010BD002084F83C0044
:10120000204600F00DF8022084F83D00211D2068E2
:1012100000F048FD012084F83D00002010BD0000D2
:1012200010B586B0044614216846FFF713F822680B
:1012300000212148B2F1804F0CD0204B9A421AD1A4
:10124000016841F002010160006800F002000590B1
:1012500006B010BD016841F0010101600068002284
:1012600000F00100059011461C20FFF795FC1C20A2
:10127000FFF784FCECE7124B9A42E9D1026842F096
:1012800004020260006800F0040005900A4810386B
:10129000026842F010020260006800F01000059041
:1012A000012000900220CDE90101CDE9031069463B
:1012B0000448FFF707FBCBE740380240000400403A
:1012C00000080040001002400168CA6842F00102B4
:1012D000CA600068816801F00701062903D001682F
:1012E00041F0010101600020704770B5044690F89C
:1012F0003C00012817D0012584F83C50022084F8D6
:101300003D002068826822F0770222F47F428260EA
:101310000868502830D00DDC20284DD005DC98B36B
:1013200010283BD148E0022070BD302844D040282E
:1013300034D139E0602828D0702806D0B0F5805F1D
:101340002CD0B0F5005F29D10AE0CB68D1E90121AA
:10135000206800F018FD2068816841F0770109E0FD
:10136000CB68D1E90121206800F00DFD206881687B
:1013700041F48041816011E0CA684968206800F04A
:10138000D7FD5021206807E016E0CA684968206848
:1013900000F0DFFD6021206800F0FFFC84F83D5084
:1013A000002084F83C0070BDCA684968206800F0DD
:1013B000BFFD40212068EFE7226801461046EBE7B9
:1013C000704770B50446006801694FF00005C943D5
:1013D000890715D4C168C943890711D4E91E016181
:1013E00001202077206880698007204602D0FFF71F
:1013F000E7FF04E000F003F9204600F06BF92577E1
:1014000020680169C943490717D4C168C94349071E
:1014100013D46FF0040101610220207720688069F5
:1014200010F4407F204602D0FFF7CAFF04E000F02E
:10143000E6F8204600F04EF9257720680169C94397
:10144000090716D4C168C943090712D46FF008010F
:101450000161042020772068C0698007204602D0FF
:10146000FFF7AEFF04E000F0CAF8204600F032F9C2
:10147000257720680169C943C90617D4C168C943E3
:10148000C90613D46FF0100101610820207720688D
:10149000C06910F4407F204602D0FFF791FF04E0BE
:1014A00000F0ADF8204600F015F9257720680169B5
:1014B000C943C90708D1C168C943C90704D1891EF6
:1014C0000161204600F008F920680169C943090656
:1014D00009D4C168C943090605D46FF080010161D0
:1014E0002046FFF737FE20680169C943490609D441
:1014F000C168C943490605D46FF040010161204627
:1015000000F0FEF820680169C94389060BD4C16860
:10151000C943890607D46FF0200101612046BDE868
:101520007040FFF718BE70BD10B586B00446142198
:101530006846FEF78FFE2368164C002116480222EB
:10154000A34210D1036843F001030360006800F078
:101550000100059040200090CDE90121CDE9031262
:1015600069460E4812E00E4CA34211D1036843F0C5
:1015700008030360006800F008000590A0140090C4
:10158000CDE90121CDE9031269460648FFF79AF932
:1015900006B010BD00040040303802400000024098
:1015A00000080040000C024070B5044690F83C0072
:1015B00001280DD0012584F83C50022084F83D001C
:1015C00042B1042A0AD0082A0CD00C2A11D10DE00D
:1015D000022070BD206800F0E9FB0AE0206800F0FE
:1015E00015FC06E0206800F047FC02E0206800F0EF
:1015F00077FC84F83D50002084F83C0070BD7047B3
:1016000010B5040003D094F83D0010B107E00120AC
:1016100010BD002084F83C00204600F00CF80220A9
:1016200084F83D00211D206800F03CFB012084F877
:101630003D00002010BD704710B50446006801222F
:1016400000F094FB0B492068884202D00A49884286
:1016500003D1416C41F4004141642068816801F08C
:101660000701062903D0016841F001010160002053
:1016700010BD0000000001400004014010B5044608
:101680000068002200F072FB104841F2111221683C
:101690009310814202D00E48814209D1086A10425B
:1016A00006D1086A184203D1486C20F4004048640F
:1016B0002068016A114206D1016A194203D101680A
:1016C00021F001010160002010BD00000000014078
:1016D00000040140704700000068B0F1804F09D15C
:1016E00005484188C288114441804FF400510348A5
:1016F000FFF7D7B970470000000000200018024033
:10170000704770B5040004D094F83900002510B17A
:1017100006E0012070BD84F83850204600F022F821
:10172000242084F839002068C16821F40051C16088
:10173000204600F021FC2068016921F490410161FC
:101740002068416921F02A0141612068C16841F4A3
:101750000051C160E563202084F8390084F83A0024
:10176000002070BD10B586B0044614216846FEF70F
:1017700071FD14492068884221D113480021026874
:1017800042F010020260006800F0100005900E4860
:101790001438026842F001020260006800F00100A3
:1017A00005904FF4C06000900220CDE901010320B4
:1017B00003900720049069460448FFF783F806B0B9
:1017C00010BD0000001001404438024000000240FB
:1017D0002DE9F843044690F83A00994616460D461E
:1017E000202852D1BDB1B6B194F8380001284CD0B0
:1017F000012084F838000027E763222084F83A00AB
:101800002C34FFF75BF924F8026B804624F80A6B4E
:1018100004F8387931E00120BDE8F883E08D401EFE
:10182000E085A0684346B0F5805F4FF000024FF0BE
:1018300020012046CDF8009004D000F031FC98B192
:101840000320E9E700F02CFC0028F9D120690028EA
:101850002068406803D0C1B225F8011B0DE0C0F339
:10186000080125F8021B08E020690028206840686C
:1018700001D000F07F0005F8010BE08D0028CDD1EC
:10188000202084F83A000020C6E70220C4E72DE9B2
:10189000F843044690F839001F4616460D462028A6
:1018A00050D1B5B1AEB194F8380001284AD001202A
:1018B00084F838004FF00008C4F83C80212084F8F8
:1018C0003900FFF7FBF8A6848146E68484F8388067
:1018D00026E00120BDE8F883E08C401EE084A0688B
:1018E0004B46B0F5805F4FF000024FF0800120467C
:1018F000009703D000F0D4FBE8B90DE000F0D0FB76
:10190000C8B928882168C0F308004860206908B178
:101910006D1C05E0AD1C03E0216815F8010B486063
:10192000E08C0028D8D14B46002240212046009769
:1019300000F0B6FB08B10320CCE7202084F8390082
:101940000020C7E70220C5E7FEE700002DE9F047C9
:1019500086B014216846FEF77DFC3C4800240168EF
:1019600041F080010160016801F08001059101688A
:1019700041F001010160016801F001010591016878
:1019800041F002010160016801F002010591016866
:1019900041F008010160016801F00801059101684A
:1019A00041F040010160016801F0400105910168CA
:1019B00041F0100101600068DFF8948000F0100031
:1019C00005900022A0214046FFF772F8DFF88490CE
:1019D0004FF4E046002231464846FFF769F8DFF849
:1019E00078A04FF40057002239465046FFF760F8C0
:1019F00001251A480095CDE9010469464046FEF7E5
:101A000061FFA0200090CDE901546946404603944F
:101A1000FEF758FF0096CDE9015469464846039405
:101A2000FEF750FF0097CDE90154694650460394F4
:101A3000FEF748FF002211460620FFF7ADF806200A
:101A4000FFF79CF806B0BDE8F08700003038024090
:101A50000000024000040240001802400000111083
:101A600010B586B0002411480094019402940394A8
:101A700004944FF0804105940160F921C0E90114FC
:101A800044F61F61C0E903148461FFF7ADFB4FF416
:101A90008050009069460548FFF727FC049404A98C
:101AA00002480594FFF758FB06B010BD4400002023
:101AB00010B58EB000240794089409940A940B94EE
:101AC0001C2168460C94FEF7C5FB17481549C0E970
:101AD00000144FF47A71C0E90241802104618161F0
:101AE000FFF782FB4FF48050079007A90E48FFF7DD
:101AF000FCFB0D48FFF784FD2020CDE90B040BA96A
:101B00000948FFF729FB5020CDE900040294002288
:101B1000694605480494FFF747FD0348FFF704FDB5
:101B20000EB010BD000400408400002010B58EB03F
:101B300000240794089409940A940B941C21684685
:101B40000C94FEF787FB16481449C0E90014846022
:101B5000C46004618461FFF747FB4FF40050CDE996
:101B60000704099407A90E480A94FFF7BEFB0C4826
:101B7000FFF746FD0B940BA909480C94FFF7ECFA0C
:101B80000094019402940022694605480494FFF7EA
:101B90000BFD0348FFF7C8FC0EB010BD0008004065
:101BA000C4000020FEE77047704770474FF6FF7192
:101BB00001EA40000C490A69B2FBF0F0401E80B215
:101BC0000A4A888030211160084A002110321160D1
:101BD000111D086000EB80000A21B0FBF1F0034901
:101BE0001C3108607047000000000020180400400D
:101BF000FEF76ABF10B592B030216846FEF72AFBA7
:101C000014210CA8FEF726FB1A480021026842F0B6
:101C100080520260006800F08050119016480268FF
:101C200022F4404242F4804202600068022400F440
:101C300040401190012003901020049000940694DD
:101C40000820CDE907105020CDE9090404200B90AD
:101C50006846FFF7BDF80F20CDE90C04A0200E90D8
:101C600040010F90109000210CA8FEF7C7FF12B0A2
:101C700010BD000040380240007000400548016877
:101C800041F47001016003494FF000608039086041
:101C90007047000088ED00E00148FFF792BB0000AC
:101CA00044000020F0B50268254C264D264E274FF3
:101CB000274B4FF0804CA04209D0604507D0A84286
:101CC00005D0B04203D0B84201D0984204D122F0EE
:101CD000700E4A6842EA0E02A0421BD0604519D03D
:101CE000A84217D0B04215D0B84213D0984211D0B4
:101CF000184DA8420ED0184DA8420BD0174DA8423F
:101D000008D0174DA84205D0164DA84202D0164D56
:101D1000A84203D122F44075CA682A434D6922F0D3
:101D200080022A4302608A68C2620A688262A04214
:101D300001D0984201D10969016301214161F0BDDF
:101D4000000001400004004000080040000C00407A
:101D500000040140004001400044014000480140AF
:101D600000180040001C00400020004010B501F0A9
:101D70001F030121046A99408C430462016A9A405E
:101D80001143016210BD10B5846842EA032224F4B5
:101D90007F440A432243826010BD826822F07002B1
:101DA0000A4342F00701816070470000F0B5026A03
:101DB00022F001020262036A42688469124E24F032
:101DC00073050C682C4323F002058B682B430D4DE3
:101DD000A84201D0B04205D123F00807CB683B43AD
:101DE00023F00403A84201D0B04205D14D6922F48A
:101DF000407215438A692A4342608461496841639D
:101E00000362F0BD0000014000040140F0B5026A29
:101E100022F010020262026A436884690D6824F4A9
:101E2000E64444EA05248D6822F0200242EA0512C5
:101E30000F4D104EA84201D0B04206D1CF6822F01B
:101E4000800242EA071222F04002A84201D0B042CA
:101E500007D14D6923F4406343EA85038D6943EA62
:101E6000850343608461496881630262F0BD0000BC
:101E70000000014000040140F0B5026A22F48072C3
:101E80000262026A4368C46922F4007224F0730596
:101E90000C68124E2C438D6842EA05220E4DA84272
:101EA00001D0B04206D1CF6822F4006242EA072294
:101EB00022F48062A84201D0B04207D14D6923F4D8
:101EC000405343EA05138D6943EA05134360C46137
:101ED0004968C1630262F0BD000001400004014096
:101EE00030B5026A22F480520262046A4268C36911
:101EF0000D6823F4E64343EA05238D6824F4005477
:101F000044EA0534084DA84202D0084DA84204D145
:101F10004D6922F4804242EA85124260C3614968F9
:101F20000164046230BD0000000001400004014073
:101F300010B5036A046A24F001040462846924F081
:101F4000F00444EA021423F00A020A4384610262A4
:101F500010BD10B5036A23F0100303628369046A9D
:101F600023F4704343EA023224F0A00343EA011150
:101F70008261016210BD00002DE9F0410446006855
:101F80000169E26821F44051114301612169A068AF
:101F9000E26908436169114308432168CA6849F24C
:101FA0000C639A430243CA6020684169A26921F424
:101FB000407111434161E069192764253226B0F56B
:101FC000004F354A354920684FF0000806D0884256
:101FD00001D0904236D1FEF7BBFE35E0884201D0F9
:101FE000904202D1FEF7B4FE01E0FEF7A1FE616867
:101FF0004A18A0FB070148EB0803FEF7F3F8014677
:10200000B0FBF5F00201B1FBF5F06FF01803584397
:1020100001EB800006EBC000B0FBF5F000F0F8002B
:1020200002EB4002B1FBF5F0584301EB800006EBF8
:10203000C000B0FBF5F000F0070021681044886094
:10204000BDE8F081FEF774FE61688B0F8A00A0FB8B
:102050000701FEF7C7F80146B0FBF5F06FF0180274
:10206000504301EB800006EB0010B0FBF5F000F0F0
:10207000F002B1FBF5F002EB0012B1FBF5F06FF0EE
:102080001803584301EB800006EB0010B0FBF5F09D
:1020900000F00F00D1E700000014014000100140E3
:1020A0002DE9F041984617460E460446069D1DE070
:1020B000681C1BD02DB1FEF701FDA0EB0800A84263
:1020C00014D92068C16821F4D071C16020684169C9
:1020D00021F001014161202084F8390084F83A00A0
:1020E000002084F838000320BDE8F08120680068F3
:1020F00036EA000004D00020B842D9D00020F3E72F
:102100000120F9E770B53E4C0025A069012802D0F6
:1021100002286AD071E03B4800F0FAF838494FF6DF
:10212000FF730122491C38486561FFF751FB607855
:1021300030386061012810D134A000F0E9F830494E
:1021400037A02031FEF79AF8208C81B2618135A04A
:1021500000F0DEF86069401C6061022810D136A0F2
:1021600000F0D6F826492EA01C31FEF787F8A08B88
:1021700081B2A18134A000F0CBF86069401C60619D
:10218000032827D135A000F0C3F81D4924A024312D
:10219000FEF774F8A08C81B2218137A000F0B8F866
:1021A0002089012804D1184839A14030FEF75DF894
:1021B0002089022804D1144837A14030FEF755F891
:1021C000114BA2894033618935A000F0A1F8606904
:1021D000401C6061042811D13DA0A56100F098F871
:1021E000BDE8704042A000F093B843A000F090F822
:1021F000054800218038FFF741FAA56170BD000055
:10220000000000206C270008040100200A0D456E24
:1022100074657220566F6C756D653A200000000081
:10222000256400000A566F6C756D65207365742017
:10223000746F3A2025640A000A0D456E7465722099
:1022400054696D653A2000000A54696D6520736514
:102250007420746F3A2025640A0000000A0D456E50
:1022600074657220446972656374696F6E203120F1
:102270006F7220323A2000000A4469726563746903
:102280006F6E2073657420746F3A2025640A000015
:1022900052652D4C6F616400496E6A65637400007D
:1022A0000A0D467573696F6E3A204F4E2C20566F9B
:1022B0006C756D653A2025642C2054696D653A2053
:1022C00025642C204D6F64653A2025730A0D0000AB
:1022D0000A0D457869742053657474696E67732CB0
:1022E00020467573696F6E3A4F4E0A0A0D00000062
:1022F0000D4D656E753A2000456D657267616E63C0
:10230000792053746F703A204F4E0000FEE70000B2
:102310000FB4054B10B503A9044A029800F028F841
:1023200010BC5DF814FB0000552500083C0000209F
:102330000907090E002804DB00F1E02080F80014F2
:10234000704700F00F0000F1E02080F8141D704786
:1023500002E008C8121F08C1002AFAD1704770476E
:10236000002001E001C1121F002AFBD170470000CC
:102370002DE9FF4F8BB09A460F460546002606E032
:1023800025280BD052460D9990476D1C761C287855
:102390000028F5D10FB03046BDE8F08F0024A046EC
:1023A0000122604900E0044315F8013F203B02FA96
:1023B00003F00842F7D128782E2817D115F8010F1D
:1023C00044F004042A280ED06FF02F022878A0F1E0
:1023D000300109290AD808EB880102EB410100EB22
:1023E00001086D1CF2E757F8048B6D1C28786928EA
:1023F0003ED006DC0028CDD063280BD0642804D161
:1024000036E0732810D075284BD052460D9990476E
:10241000761C85E017F8040B8DF8000000208DF87D
:102420000100E946012003E057F8049B4FF0FF301C
:1024300061074FF0000401D40AE0641C44450DDA42
:102440008442FADB19F804100029F6D106E0641C76
:102450008442FCDB19F804100029F8D1264404E07A
:1024600019F8010B52460D999047641EF8D257E0B7
:1024700001CF4FF00A0B002802DA40422D2102E082
:10248000210504D52B218DF82410012103E0E1075B
:1024900005D02021F7E70DF1200908910CE000217B
:1024A000F9E701CF4FF00A0BF9E75946FDF79CFF1A
:1024B00001F1300209F8012D0028F6D1ADEB090039
:1024C00000F1200B600701D44FF00108D84502DD70
:1024D000A8EB0B0000E000208046002406E009A8DD
:1024E0005246005D0D999047641C761C0898844202
:1024F000F5DB04E0302052460D999047761CB8F188
:102500000001A8F10108F5DC05E019F8010B5246BD
:102510000D999047761CBBF10001ABF1010BF4DC87
:102520006D1C34E7092801001CB500208DF800005F
:10253000074800680168406801904FF6FF73012268
:1025400069460348FFF744F99DF800001CBD0000F0
:102550000401002013B54FF6FF73012269460248BB
:10256000FFF795F900981CBD040100202DE9F04704
:10257000234C8246012723480025DFF88C800E4635
:10258000E780012A06D0022A0AD0E580C8F8005068
:1025900065800DE001228021FEF78AFA1BA104E08C
:1025A00000228021FEF784FA1AA11C48FDF75DFE87
:1025B000B9464FF4C8611AFB01F76088B04214D2E3
:1025C00016480021C038FFF737F8B7FBF6F000EEE9
:1025D000100AA4F80690B8EE400ABCEEC00A10EE4D
:1025E000100A80B2FFF7E2FAE7E7E580C8F800508A
:1025F0006580BDE8F04709480021C038FFF73EB8C4
:1026000000000020000002403404004052652D4CC0
:102610006F616400496E6A656374000044010020C4
:1026200070B5FEF759FAFFF7E5FAFFF78FF9FFF7F4
:102630003FFAFFF715FA28482649002501604FF4B4
:10264000E131C0E901150C21C560C0E90451856183
:10265000C561FFF756F8FFF769FA1F48C038FEF763
:1026600033FE1D4800218038FEF7E6FF01224FF4BB
:10267000E0411A48FEF71CFA012280211848FEF7B3
:1026800017FA18A0FFF744FE41F28830FEF7ECF885
:102690001DA0FFF73DFE1E4C4FF6FF763346257515
:1026A00001221B490C48FFF793F820783038A061CD
:1026B000012802D0022800D0FEE7FFF723FDA06921
:1026C00008B1002070BD227A217BA07AFFF74EFF6F
:1026D000E4E7000000100140040100200004024073
:1026E000000002400D496E667573696F6E2070754B
:1026F0006D702069732067657474696E20726561FE
:1027000064792E0A000000000D4D656E753A2000B8
:10271000000000200000000000000000010203048F
:10272000060708090000000001020304DDDDDDDD0D
:10273000DCBBBBDDDDDDDDDDDDDDDDDD9888888852
:1027400088888888777777777788888885555556F9
:102750006666666666666666666888888333333250
:1027600022222222222222222228888D0A0A0D4693
:102770007573696F6E20536574204D656E753A0AE6
:102780000D312E736574566F6C756D650A0D322EA2
:1027900073657454696D650A0D332E7365744469ED
:1027A00072656374696F6E0A0D342E457869740A18
:1027B00009000000D42700080000002044000000A9
:1027C0005023000818280008440000200C050000D1
:1027D000602300080000000000000000000000006E
:1027E00000000000404B4C00000000000000000012
:1027F00000000000000000000000000001000000D8
:1028000010000000000000000024F40000000000A0
:082810000000000000000000C0
:04000005080001AD41
:00000001FF
