:020000040800F2
:10000000300400209D010008BF0F0008C50D000846
:10001000BD0F0008950400086D10000800000000E6
:10002000000000000000000000000000C50F0008F4
:100030009704000800000000C10F0008C70F000867
:10004000B7010008B7010008B7010008B7010008B0
:10005000B7010008C30F000899040008B7010008A1
:10006000B7010008B7010008B7010008B701000890
:10007000B7010008B7010008B7010008B701000880
:10008000B7010008B7010008B7010008B701000870
:10009000B7010008B7010008B7010008B701000860
:1000A000B7010008B7010008B7010008B701000850
:1000B000B7010008B7010008B7010008B701000840
:1000C000B7010008B7010008B7010008B701000830
:1000D000B7010008B7010008B7010008B701000820
:1000E000B7010008B7010008B7010008B701000810
:1000F000B7010008B7010008B7010008B701000800
:10010000B7010008B7010008B7010008B7010008EF
:10011000B7010008B7010008B7010008B7010008DF
:10012000B7010008B7010008B7010008B7010008CF
:10013000B7010008B7010008B7010008B7010008BF
:10014000B7010008B7010008B7010008B7010008AF
:10015000B7010008B7010008B7010008B70100089F
:10016000B7010008B7010008B7010008B70100088F
:10017000B7010008B7010008B7010008000000003F
:10018000B7010008B7010008DFF80CD000F070F9E3
:1001900000480047AD1000083004002006488047A2
:1001A00006480047FEE7FEE7FEE7FEE7FEE7FEE75C
:1001B000FEE7FEE7FEE7FEE75110000889010008B0
:1001C0002DE9F05F0546002092469B46884606468C
:1001D000814640241BE0284641464746224600F01F
:1001E000D9F853465A46C01A914110D311461846C1
:1001F000224600F0C0F82D1A67EB01084F46224650
:100200000120002100F0B7F817EB00094E41201E35
:10021000A4F10104DFDC484631462A464346BDE8E6
:10022000F09FD2B201E000F8012B491EFBD27047CB
:100230000022F6E710B513460A4604461946FFF7B2
:10024000F0FF204610BD2DE9FE4F81EA030404F0C3
:10025000004421F0004100944FF0000B23F00043D4
:1002600050EA01045ED052EA03045BD0C3F30A549F
:10027000C1F30A552C44A4F2F3340194A0FB0254B8
:10028000C1F3130141F48011C3F3130343F480134A
:1002900001FB024400FB034E840A970A44EA81549E
:1002A00047EA8357A4FB076802958D0A05FB07857B
:1002B0004FEA932C04FB0C542705029D4FEA065885
:1002C00047EA1637B5EB08056EEB070C870E920E62
:1002D00047EA811742EA8312A7FB0201B6EB0B0142
:1002E00064EB00042B0D43EA0C335E1844EB1C5006
:1002F000DA465146E7FB0201C5F313044FEA0B331C
:1003000043EA14534FEA0432019C43EA0603A4F182
:100310000C040294009CCDE900B400F05AF803B03C
:10032000BDE8F08F00200146F9E70EB540F23341F9
:1003300002910021CDE900110A460B4600F049F870
:1003400003B000BDC1F30A5210B5C1F3130140F26E
:10035000FF3341F480119A4201DA002010BD40F2CF
:1003600033439A42A2F2334203DC524200F012F8C5
:1003700010BD904010BD202A04DB203A00FA02F1A3
:10038000002070479140C2F1200320FA03F3194383
:1003900090407047202A04DB203A21FA02F0002125
:1003A000704721FA02F3D040C2F120029140084385
:1003B0001946704710B5141E73F1000408DA401C8A
:1003C00041F1000192185B411A4301D120F0010074
:1003D00010BD2DE9F04D92469B4611B1B1FA81F264
:1003E00002E0B0FA80F220329046FFF7C4FF0446E4
:1003F0000F4640EA0A0041EA0B0153465A460843B9
:1004000013D0114653EA010019D0C8F140025046FA
:10041000FFF7C0FF05460E46504659464246FFF7D5
:10042000AAFF084305D0012004E020463946BDE874
:10043000F08D0020054346EAE0762C4337430A98C6
:100440006305E40AA0EB08000022FD0A44EA4754D1
:100450000A3002D500200146E9E70105101969417B
:10046000DDE9084500196941BDE8F04DA2E700004B
:10047000064C074D06E0E06840F0010394E80700F1
:1004800098471034AC42F6D3FFF782FEB41100084F
:10049000D4110008FEE77047012000F03BB80000CF
:1004A00070B5044600F02AF90546601C02D00448E5
:1004B0000078044400F022F9401BA042FAD370BD3A
:1004C000200000202DE9F041104C2068401C2060E5
:1004D000012818D10E4E4FF4A0450122294630467E
:1004E00000F007F900F09EFC4FF4FA773846FFF76A
:1004F000D7FF00222946304600F0FBF83846FFF7C8
:10050000CFFF00202060BDE8F08100001C0000202B
:10051000000C0240044910B50A68024202D008608B
:10052000FFF7D0FF10BD0000143C01402DE9F84F4B
:1005300000224FF0010803254FF00F0E0B6808FA58
:1005400002F42340A3426ED14E68012E05D0022E44
:1005500003D0112E01D0122E12D186684FEA420C20
:1005600005FA0CF7BE43CF6807FA0CF737438760EC
:100570004668A6430C79C4F30014944034434460A5
:10058000C668570005FA07FC8C6826EA0C06BC40D2
:100590003443C4604C68022C01D0122C13D1D4080F
:1005A00000EB8404A346D4F8209054074FEAD46AA1
:1005B0000EFA0AF629EA06090E6906FA0AF646EA6A
:1005C0000906CBF8206006680C7926EA0C0604F0D0
:1005D0000304BC40344304604C68E40065D5364CE9
:1005E000266846F480462660246822F0030604F458
:1005F00080440094314C3444A446D4F8084896070B
:10060000370F0EFA07F6B4432D4EB04201D1002643
:1006100024E02C4EB04201D101261FE02A4EB04208
:1006200002D102261AE040E0284EB04201D1032652
:1006300014E0274EB04201D104260FE0254EB0420F
:1006400001D105260AE0244EB04201D1062605E07C
:10065000224EB04201D1072600E00826BE402643C4
:10066000CCF808681E4E34684F689C43FF0300D5E1
:100670001C4334601A4C241D26684F689E43BF03F8
:1006800000D51E432660164E083634684F689C43DA
:10069000FF0200D51C433460114E0C3634684F689D
:1006A0009C43BF0200D51C433460521C102AFFF447
:1006B00045AFBDE8F88F00004438024000300140EB
:1006C000000002400004024000080240000C02400A
:1006D000001002400014024000180240001C0240BA
:1006E000003C0140426931EA020200D10904816103
:1006F00070470AB1816170470904FBE701488068CF
:1007000070470000200000200248816802781144F0
:1007100081607047200000200B4810B5016841F44B
:1007200000710160016841F480610160016841F479
:1007300080710160032000F077F8002000F006F8D7
:1007400000F024F8002010BD003C024070B50D4DB3
:1007500004464FF47A712878B1FBF0F00A49096831
:10076000B1FBF0F000F01AFB48B9102C07D20022C0
:100770002146501E00F038F800206C6070BD01204A
:1007800070BD0000200000202C0000200E4808B59D
:10079000016841F480410160006800F480400090ED
:1007A0000948001F016841F0805101600068002283
:1007B00000F0805000901146052000F015F8BDE8CB
:1007C0000840052000F002B844380240002809DB48
:1007D00000F01F02012191404009800000F1E0205B
:1007E000C0F8001170470000F0B40E4B1B680C46B7
:1007F000C3F30223C3F10705042D00D90425191DF5
:10080000072901D2002300E0DB1E012606FA05F1CC
:10081000491E214099409E40761E16403143F0BC4F
:1008200000F025BC0CED00E0064900F00702086866
:100830004FF6FF03184040EA0220034A10430860C5
:10084000704700000CED00E00000FA052DE9F047CC
:100850000E46050065D0DFF81481D8F80000F7B225
:1008600000F00F00B04207D288F80070D8F80000FE
:1008700000F00F00B04254D128683D4C810712D5DA
:10088000400703D5206840F4E05020602878000736
:1008900003D5206840F4604020602068A96820F0FB
:1008A000F000084320602878C0072DD030496868E0
:1008B0000839012812D0022813D0032811D0096862
:1008C000890700292DDA216821F003010143216005
:1008D000FFF714FF814641F2883A0EE00968890368
:1008E000EFE709688901ECE7FFF708FFA0EB0901D2
:1008F000514502D90320BDE8F0872068696800F0FF
:100900000C00B0EB810FEFD1D8F80010404601F099
:100910000F01B14207D90770006800F00F00B04224
:1009200001D00120E7E72878400705D52068E9686D
:1009300020F4E050084320602878000706D520689E
:10094000296920F4604040EAC100206000F048F8C6
:100950002168084AC1F30311515CC8400649086088
:1009600006480068FFF7F2FE0020C4E7003C0240A2
:10097000083802409C1100082C00002024000020B0
:100980000F2202600C4A136803F0030343601368EC
:1009900003F0F0038360136803F4E053C36012684C
:1009A0004FF4E05303EAD20202610448006800F009
:1009B0000F0008607047000008380240003C024009
:1009C0000448054900680968044AC1F38221515C62
:1009D000C84070472C00002008380240AC110008C5
:1009E000154810B5006810F00C02144813D04110DF
:1009F000042A0FD0082A0ED10F4C241F2268236826
:100A000002F03F025B0207D52068C0F38810A0FB0C
:100A1000010106E0084610BD2168C1F38811A1FB61
:100A200000010023FFF7CCFB2168C1F30141491C01
:100A30004900B0FBF1F010BD083802400024F4007A
:100A40002DE9F84F04006ED02078DFF83C93C00702
:100A5000A9F104054AD009F104000168C1F381013C
:100A6000012908D00068C0F3810002280AD1D9F812
:100A70000000400206D52868800337D5606800284A
:100A8000E1D033E06068B0F5803F10D0B0F5A02F22
:100A9000286810D020F480302860286820F4802056
:100AA00028606068A8B1FFF729FE06460DE02868B7
:100AB00040F48030F4E740F480202860F7E700BF7E
:100AC000FFF71CFE801B642873D828688003F7D5C5
:100AD0000CE0FFF713FE064605E000BFFFF70EFE31
:100AE000801B6428F0D828688003F7D42078DFF8CA
:100AF0009C8280074FF0000A3ED5A348001D016884
:100B000011F00C0F08D00068C0F3810002280BD14F
:100B1000D9F80000400207D42868800716D5E0689D
:100B2000012800D112E02BE1E068B8B10120C8F83B
:100B30000000FFF7E3FD064605E000BFFFF7DEFD1E
:100B4000801B0228C0D828688007F7D5286821694B
:100B500020F0F80040EAC10028600DE0C8F800A0CD
:100B6000FFF7CCFD064604E0FFF7C8FD801B022816
:100B70001FD828688007F7D42078000722D5824E36
:100B800083486169703671B101210160FFF7B6FDDC
:100B9000074604E0FFF7B2FDC01B022809D8306801
:100BA0008007F7D50EE0C0F800A0FFF7A7FD0746C5
:100BB00005E082E0FFF7A2FDC01B02287DD8306867
:100BC0008007F7D42078400768D5DFF8BCB100274C
:100BD0000BF13C0BDBF80000C0000BD4DBF800107D
:100BE00041F08051CBF80010DBF80000012700F045
:100BF00080500090674E3068C00510D4306840F4D3
:100C000080703060FFF77AFD009005E0FFF776FD19
:100C10000099401A022850D83068C005F6D55A4EBF
:100C2000A0686C3601280FD00528306810D020F05D
:100C300001003060306820F004003060A068B8B176
:100C4000FFF75CFD00900FE0306840F00100F4E732
:100C500040F004003060F7E7FFF750FD0099411ABB
:100C600041F28830814266D830688007F4D50EE0C2
:100C7000FFF744FD009007E0FFF740FD0099411A9F
:100C800041F28830814256D830688007F4D42FB1C1
:100C9000DBF8001021F08051CBF80010A069C8B338
:100CA0003949091D0968C1F3810102294AD0022886
:100CB000504607D0C8F8600000E03CE0FFF71EFD9A
:100CC00004463BE04746C8F86000FFF717FD0646BC
:100CD00005E000BFFFF712FD801B02282BD8286813
:100CE0008001F7D4D4E907010843A16A2A4A4908D8
:100CF00002EB0141626A41EA8211084394F82C1028
:100D000040EA0161C9F8001001203866FFF7F6FCDF
:100D1000044606E036E000BFFFF7F0FC001B0228A7
:100D200009D828688001F7D52CE000BFFFF7E6FC62
:100D3000001B022802D90320BDE8F88F2868800133
:100D4000F4D41FE00128F7D0D9F80000E26900F4DC
:100D50008001914214D1226A00F03F0191420FD1EB
:100D600047F6C071626A0140914209D1A26A00F45B
:100D70004031914204D1E16A00F07060884201D0B4
:100D80000120D9E70020D7E704380240000047429D
:100D9000800E4742007000400000FFFF10B5401E6B
:100DA000B0F1807F01D3012010BD4FF0E0246061DD
:100DB0000F21601700F05BF90020A061072020617F
:100DC000002010BDFEE7000010B5074CA061E181D6
:100DD000228200F031F80120207038206070BDE8D8
:100DE00010401420FFF75CBB0000002070B50646E1
:100DF00000250B4C10E00122E189A069FFF779FC86
:100E00000520FFF74DFB0022E189A069FFF771FC87
:100E10000520FFF745FB6D1CB542ECDB70BD000003
:100E20000000002010B50120FFF7E0FFBDE81040F2
:100E30006420FFF735BB000000B587B005A9684600
:100E4000FFF79EFD0398A8B3FFF7BAFD5FEA4000E5
:100E5000FFF76BFA9FED191B53EC112BFFF7F3F91A
:100E6000FFF770FA17490A6842F002020A60164951
:100E70000A6822F010020A600A6822F001020A6081
:100E80000A6822F004020A600A6842F008020A6056
:100E90000D492831401E08600920091D08600A49D3
:100EA000012014310860081F016821F00101016070
:100EB00007B000BDFFE7FFF783FDC9E78DEDB5A0E3
:100EC000F7C6B03E4038024000040040054810B567
:100ED000018A8069FFF706FCBDE810406420FFF737
:100EE000DFBA0000000000202DE9F04387B0142194
:100EF0006846FFF79DF92C480024016841F0800105
:100F00000160016801F080010591016841F0010173
:100F10000160016801F001010591016841F00201E1
:100F20000160016801F002010591016841F00801CA
:100F300001600068DFF8748000F008004FF4784624
:100F40000590002231464046FFF7D3FBDFF8609062
:100F50004FF47047002239464846FFF7CAFB154850
:100F60000125CDE900500220029069461248FFF7A2
:100F7000DDFA0096CDE90154694640460394FFF737
:100F8000D5FA0097CDE90154694648460394FFF726
:100F9000CDFA002211460620FFF726FC0620FFF7B7
:100FA00015FC07B0BDE8F083303802400004024071
:100FB000000C02400000111000000240FEE77047E4
:100FC000704770477047FFF79FBB000030B593B084
:100FD00030216846FFF72CF914210CA8FFF728F9F7
:100FE00019480025016841F080510160006800F057
:100FF000805011901548016841F4804101600068FB
:10100000022400F4804011900120039010200490ED
:10101000009406940820CDE90750A820CDE90904E2
:1010200004200B906846FFF70BFD0CA90F2081E808
:1010300031004FF4A0500F90E002109005210CA851
:10104000FFF704FC13B030BD403802400070004090
:101050000548016841F47001016003494FF00060E8
:10106000803908607047000088ED00E0FEE709075E
:10107000090E002804DB00F1E02080F8001470471E
:1010800000F00F0000F1E02080F8141D704702E02E
:1010900008C8121F08C1002AFAD170477047002003
:1010A00001E001C1121F002AFBD17047FFF734FB9A
:1010B000FFF78CFFFFF718FF364D4FF400544FF445
:1010C0008058224641462846FFF77EFE4FF40049ED
:1010D000012249462846FFF70CFB002221462846FC
:1010E000FFF707FB4FF4804A012251462846FFF7DD
:1010F00000FB294E4FF6FF75012229463046FFF7C7
:10110000F8FA4FF4FA773846FFF7CAF90022294671
:101110003046FFF7EEFA3846FFF7C2F9A3465446C9
:101120004FF47A7AC820FFF761FE41463046FFF758
:10113000D9FA3846FFF7B4F9FFF7C8FE59463046EA
:10114000FFF7D0FA5046FFF7ABF9C820FFF74EFE85
:1011500021463046FFF7C6FA3846FFF7A1F9FFF7F8
:10116000B5FE49463046FFF7BDFA3846FFF798F915
:10117000012229463046FFF7BCFA6420FFF790F9B8
:10118000002229463046FFF7B4FA6420FFF788F9B9
:10119000C8E7000000040240000C0240000000000C
:1011A0000000000001020304060708090000000017
:1011B00001020304D41100080000002030000000E8
:1011C0008E10000804120008300000200004000007
:1011D0009E10000801380000000000000000000020
:1011E00000000000000000000000000000000000FF
:1011F00000000000010000001000000000000000DE
:041200000024F400D2
:040000050800018965
:00000001FF
