:020000040800F2
:10000000E00400209D010008E31500082514000805
:10001000E1150008DD0300085F190008000000007A
:10002000000000000000000000000000E7150008CC
:10003000DF03000800000000E5150008E9150008CE
:10004000B7010008B7010008B7010008B7010008B0
:10005000B7010008B7010008B7010008B7010008A0
:10006000B7010008B7010008B7010008B701000890
:10007000B7010008B7010008B7010008B701000880
:10008000B7010008B7010008A9020008B70100087D
:10009000B7010008B7010008B7010008B701000860
:1000A000B7010008B7010008B7010008B701000850
:1000B000B7010008B7010008B7010008B701000840
:1000C000B7010008B7010008B7010008B701000830
:1000D000B7010008B7010008B7010008B701000820
:1000E000B7010008B7010008B7010008B701000810
:1000F000B7010008B7010008B7010008B701000800
:10010000B7010008B7010008B7010008B7010008EF
:10011000B7010008B7010008B7010008B7010008DF
:10012000B7010008B7010008B7010008B7010008CF
:10013000B7010008B7010008B7010008B7010008BF
:10014000B7010008B7010008B7010008B7010008AF
:10015000B7010008B7010008B7010008B70100089F
:10016000B7010008B7010008B7010008B70100088F
:10017000B7010008B7010008B7010008000000003F
:10018000B7010008B7010008DFF80CD000F07AF8DA
:1001900000480047A1190008E004002006488047F5
:1001A00006480047FEE7FEE7FEE7FEE7FEE7FEE75C
:1001B000FEE7FEE7FEE7FEE771160008890100088A
:1001C0002DE9F05F0546002092469B46884606468C
:1001D000814640241BE0284641464746224600F01F
:1001E00041F853465A46C01A914110D31146184659
:1001F000224600F028F82D1A67EB01084F462246E8
:100200000120002100F01FF817EB00094E41201ECD
:10021000A4F10104DFDC484631462A464346BDE8E6
:10022000F09FD2B201E000F8012B491EFBD27047CB
:100230000022F6E710B513460A4604461946FFF7B2
:10024000F0FF204610BD202A04DB203A00FA02F11C
:10025000002070479140C2F1200320FA03F31943B4
:1002600090407047202A04DB203A21FA02F0002156
:10027000704721FA02F3D040C2F1200291400843B6
:1002800019467047064C074D06E0E06840F0010350
:1002900094E8070098471034AC42F6D3FFF778FF94
:1002A000E8190008081A0008014800F05DB90000CC
:1002B00014000020464910B54A6822F440324A60D2
:1002C0004A6843681A434A6001684A6822F48072A7
:1002D0004A6001684A68036942EA03224A60016889
:1002E0004A6822F040724A6001684A6883681A438B
:1002F0004A6001688A6822F400628A6001688A683C
:10030000C3681A438A60816A6FF07062D1420168E3
:100310008A6822F070628A6001688A680CD0836AF9
:100320001A438A6001688A6822F040528A60016834
:100330008A68C36A1A4301E022F040528A60016869
:100340008A6822F002028A6001688A68037E42EAB3
:1003500043028A6090F82010002901684A680FD093
:1003600042F400624A6001684A6822F460424A60CE
:1003700001684A68174C436A04EB43331A4301E0AF
:1003800022F400624A600168CA6A22F47002CA62FA
:100390000168CA6A838B104C04EB03531A43CA6288
:1003A00001688A6822F400728A6001688A6890F89D
:1003B000303042EA43228A6001688A6822F480620F
:1003C0008A6001688A68406942EA8020886010BDBE
:1003D0000023014000E0FFFF0000F0FFFEE7704750
:1003E0007047000078B50024009490F83C20012A62
:1003F00019D0012280F83C200A6807230568092AE1
:1004000013D9EE680A3A02EB420293409E43EE6033
:100410000B788A680A3B03EB43039A400368DD6864
:100420002A43DA6010E0022078BD2E6902EB420216
:1004300093409E432E610B788A6803EB43039A40F6
:1004400003681D692A431A614A681F23072A13D2C9
:1004500005686E6B521E02EB820293409E436E63F0
:100460000B790A885B1E92B203EB83039A40036800
:100470005D6B2A435A6327E005680D2A12D22E6B62
:10048000D21F02EB820293409E432E630B790A88AF
:10049000DB1F92B203EB83039A4003681D6B2A4370
:1004A0001A6311E0EE6A0D3A02EB820293409E431A
:1004B000EE620B790A880D3B92B203EB83039A40FC
:1004C0000368DD6A2A43DA62164B0568144A9D42C6
:1004D00006D10D68122D03D1556845F4800555608D
:1004E00005689D4218D10B68102B01D0112B13D138
:1004F000536843F400035360096810290CD10A497A
:100500000A4A0968B1FBF2F101EB8101490000E000
:10051000491E00910029FBD180F83C40002078BDA5
:1005200000230140002001401000002040420F0045
:1005300010B5084800F015F8074C4FF40051208022
:10054000064800F06BFA20884FF0804100014863B4
:1005500010BD00001400002000000020000C02402C
:1005600070470068C06C704770B504460068016849
:100570004268C1F34001C2F3401251B34AB3216C47
:10058000C90603D4216C41F400712164816811F023
:10059000405F17D1217EA9B9C16A11F4700F02D052
:1005A000816849050ED4416821F020014160206C2A
:1005B00020F480702064206CC00403D4206C40F0D0
:1005C000010020642046FFF7B3FF21686FF012009E
:1005D0000860206801684268C1F38001C2F3C0125C
:1005E00089B382B3216CC90603D4216C41F4005154
:1005F0002164816811F4401F1ED1816B11F4401FEA
:1006000002D08168490517D44168490514D481682E
:1006100011F0405F10D1217E71B9416821F0800155
:100620004160206C20F480502064206CC00503D40D
:10063000206C40F0010020642046FFF7D1FE2168C5
:100640006FF00C00086020680168426811F0010F2B
:10065000C2F380120ED06AB10068C0070AD0206CC5
:1006600040F480302064204600F046F821686FF0A6
:1006700001000860206801684268C1F34011C2F3BC
:10068000806200290DD0002A0BD0616C41F002017C
:1006900061646FF0200505602046FFF761FF206868
:1006A000056070BD70B504004FF0000503D0206CEC
:1006B000002610B107E0012070BD204600F01EF8B2
:1006C000666484F83C60206CC00610D4206C20F472
:1006D000885040F0020020642046FFF7EBFD66647E
:1006E000206C20F0020040F00100206400E00125B1
:1006F00084F83C60284670BD7047000010B586B095
:10070000044614216846FFF793FD15492068884286
:1007100024D114480021026842F48072026000680B
:1007200000F4807005900F481438026842F001020E
:100730000260006800F00100059002200090032094
:10074000CDE901016946084800F08CF80022114605
:10075000122000F0DDF9122000F0CCF906B010BD37
:1007600000200140443802400000024018B500213A
:10077000009190F83C20012A07D0012280F83C200B
:1007800002689368DB0702D011E0022018BD93686D
:1007900043F0010393602C4A2C4B1268B2FBF3F236
:1007A00002EB420200E0521E0092002AFBD10268D6
:1007B0009368DB0746D0036C40F20164A34343F423
:1007C0008073036453685B0505D5036C23F4005301
:1007D00043F480530364036CDB0404D5436C23F0BF
:1007E0000603436400E0416480F83C10184B6FF04E
:1007F0002201116001684A68164C22434A60596818
:100800000068CA06144906D088421BD1816811F0DD
:10081000405F13D016E08842F8D0104A904203D1CE
:10082000D1F80423D206F1D00D4A90420AD1D1F872
:10083000041301F01F011029E8D303E0816841F09F
:1008400080418160002018BD1000002040420F0050
:10085000002301402000000400200140002101404D
:10086000002201402DE9F84F00224FF00108032536
:100870004FF00F0E0B6808FA02F42340A3426ED12A
:100880004E68012E05D0022E03D0112E01D0122E5B
:1008900012D186684FEA420C05FA0CF7BE43CF68C6
:1008A00007FA0CF7374387604668A6430C79C4F310
:1008B0000014944034434460C668570005FA07FCAE
:1008C0008C6826EA0C06BC403443C4604C68022C99
:1008D00001D0122C13D1D40800EB8404A346D4F821
:1008E000209054074FEAD46A0EFA0AF629EA06095C
:1008F0000E6906FA0AF646EA0906CBF82060066891
:100900000C7926EA0C0604F00304BC40344304606E
:100910004C68E40065D5364C266846F4804626606F
:10092000246822F0030604F480440094314C3444DB
:10093000A446D4F808489607370F0EFA07F6B443D2
:100940002D4EB04201D1002624E02C4EB04201D100
:1009500001261FE02A4EB04202D102261AE040E0F2
:10096000284EB04201D1032614E0274EB04201D1F7
:1009700004260FE0254EB04201D105260AE0244EA0
:10098000B04201D1062605E0224EB04201D1072631
:1009900000E00826BE402643CCF808681E4E3468A6
:1009A0004F689C43FF0300D51C4334601A4C241D40
:1009B00026684F689E43BF0300D51E432660164E2F
:1009C000083634684F689C43FF0200D51C433460EE
:1009D000114E0C3634684F689C43BF0200D51C434F
:1009E0003460521C102AFFF445AFBDE8F88F0000B8
:1009F0004438024000300140000002400004024040
:100A000000080240000C02400010024000140240A6
:100A100000180240001C0240003C0140426931EADB
:100A2000020200D10904816170470AB181617047F7
:100A30000904FBE7014880687047000004000020BB
:100A400002488168027811448160704704000020E8
:100A50000B4810B5016841F400710160016841F470
:100A600080610160016841F480710160032000F041
:100A70006FF8002000F006F800F024F8002010BD08
:100A8000003C024070B50D4D04464FF47A71287851
:100A9000B1FBF0F00A490968B1FBF0F000F0E2FAAE
:100AA00048B9102C07D200222146501E00F030F821
:100AB00000206C6070BD012070BD000004000020AB
:100AC000100000200A4808B5016841F48041016027
:100AD000006800F4804000900548001F016841F064
:100AE00080510160006800F08050009008BD000057
:100AF00044380240002809DB00F01F020121914028
:100B00004009800000F1E020C0F8001170470000AB
:100B1000F0B40E4B1B680C46C3F30223C3F1070568
:100B2000042D00D90425191D072901D2002300E056
:100B3000DB1E012606FA05F1491E214099409E4020
:100B4000761E16403143F0BC00F00ABF0CED00E009
:100B5000064900F0070208684FF6FF03184040EA14
:100B60000220034A10430860704700000CED00E0CB
:100B70000000FA052DE9F0470E46050065D0DFF8C4
:100B80001481D8F80000F7B200F00F00B04207D28D
:100B900088F80070D8F8000000F00F00B04254D17F
:100BA00028683D4C810712D5400703D5206840F4E2
:100BB000E05020602878000703D5206840F46040AA
:100BC00020602068A96820F0F000084320602878A1
:100BD000C0072DD0304968680839012812D0022892
:100BE00013D0032811D00968890700292DDA21685C
:100BF00021F0030101432160FFF71CFF814641F210
:100C0000883A0EE009688903EFE709688901ECE793
:100C1000FFF710FFA0EB0901514502D90320BDE801
:100C2000F0872068696800F00C00B0EB810FEFD10D
:100C3000D8F80010404601F00F01B14207D9077003
:100C4000006800F00F00B04201D00120E7E72878EB
:100C5000400705D52068E96820F4E050084320608B
:100C60002878000706D52068296920F4604040EA0A
:100C7000C100206000F018F82168084AC1F3031190
:100C8000515CC8400649086006480068FFF7FAFE54
:100C90000020C4E7003C024008380240D819000890
:100CA0001000002008000020154810B5006810F062
:100CB0000C02144813D04110042A0FD0082A0ED178
:100CC0000F4C241F2268236802F03F025B0207D505
:100CD0002068C0F38810A0FB010106E0084610BDA3
:100CE0002168C1F38811A1FB00010023FFF768FA16
:100CF0002168C1F30141491C4900B0FBF1F010BD6E
:100D0000083802400024F4002DE9F84F04006ED0AA
:100D10002078DFF83C93C007A9F104054AD009F117
:100D200004000168C1F38101012908D00068C0F303
:100D3000810002280AD1D9F80000400206D52868AF
:100D4000800337D560680028E1D033E06068B0F5F3
:100D5000803F10D0B0F5A02F286810D020F480304C
:100D60002860286820F4802028606068A8B1FFF718
:100D700061FE06460DE0286840F48030F4E740F458
:100D800080202860F7E700BFFFF754FE801B64282F
:100D900073D828688003F7D50CE0FFF74BFE0646B2
:100DA00005E000BFFFF746FE801B6428F0D82868E6
:100DB0008003F7D42078DFF89C8280074FF0000A88
:100DC0003ED5A348001D016811F00C0F08D0006843
:100DD000C0F3810002280BD1D9F80000400207D4EB
:100DE0002868800716D5E068012800D112E02BE1C1
:100DF000E068B8B10120C8F80000FFF71BFE064606
:100E000005E000BFFFF716FE801B0228C0D8286847
:100E10008007F7D52868216920F0F80040EAC10072
:100E200028600DE0C8F800A0FFF704FE064604E0C5
:100E3000FFF700FE801B02281FD828688007F7D420
:100E40002078000722D5824E83486169703671B1DF
:100E500001210160FFF7EEFD074604E0FFF7EAFD20
:100E6000C01B022809D830688007F7D50EE0C0F80B
:100E700000A0FFF7DFFD074605E082E0FFF7DAFD9F
:100E8000C01B02287DD830688007F7D4207840073F
:100E900068D5DFF8BCB100270BF13C0BDBF8000094
:100EA000C0000BD4DBF8001041F08051CBF80010EB
:100EB000DBF80000012700F080500090674E30689A
:100EC000C00510D4306840F480703060FFF7B2FD88
:100ED000009005E0FFF7AEFD0099401A022850D8B7
:100EE0003068C005F6D55A4EA0686C3601280FD080
:100EF0000528306810D020F001003060306820F004
:100F000004003060A068B8B1FFF794FD00900FE0D6
:100F1000306840F00100F4E740F004003060F7E78B
:100F2000FFF788FD0099411A41F28830814266D866
:100F300030688007F4D50EE0FFF77CFD009007E0F5
:100F4000FFF778FD0099411A41F28830814256D866
:100F500030688007F4D42FB1DBF8001021F0805105
:100F6000CBF80010A069C8B33949091D0968C1F35D
:100F7000810102294AD00228504607D0C8F86000F3
:100F800000E03CE0FFF756FD04463BE04746C8F86A
:100F90006000FFF74FFD064605E000BFFFF74AFD82
:100FA000801B02282BD828688001F7D4D4E90701D8
:100FB0000843A16A2A4A490802EB0141626A41EAF0
:100FC0008211084394F82C1040EA0161C9F800101E
:100FD00001203866FFF72EFD044606E036E000BF2C
:100FE000FFF728FD001B022809D828688001F7D5E3
:100FF0002CE000BFFFF71EFD001B022802D90320D2
:10100000BDE8F88F28688001F4D41FE00128F7D0EC
:10101000D9F80000E26900F48001914214D1226AFB
:1010200000F03F0191420FD147F6C071626A014062
:10103000914209D1A26A00F44031914204D1E16A9F
:1010400000F07060884201D00120D9E70020D7E786
:101050000438024000004742800E474200700040C2
:101060000000FFFF10B5401EB0F1807F01D30120CA
:1010700010BD4FF0E02460610F21601700F070FC9C
:101080000020A06107202061002010BD70B590F8FD
:101090003C20012A32D0012480F83C40022280F812
:1010A0003D2003685A689D6822F070060A68324342
:1010B0005A60134B02689A4214D0B2F1804F11D09B
:1010C000104B9A420ED0104B9A420BD00F4B9A42C3
:1010D00008D00F4B9A4205D00E4B9A4202D00E4BCD
:1010E0009A4204D1496825F080031943916080F841
:1010F0003D40002180F83C10084670BD022070BDC4
:10110000000001400004004000080040000C0040C6
:1011100000040140004001400018004010B50400E8
:1011200003D094F83D0010B107E0012010BD00206D
:1011300084F83C00204600F00DF8022084F83D00C1
:10114000211D206800F0A2FA012084F83D00002053
:1011500010BD000008B501680B48B1F1804F0BD0FD
:101160000A4A914207D1016841F00201016000681A
:1011700000F00200009008BD016841F0010101602B
:10118000006800F00100F5E740380240000400402C
:10119000022180F83D1001688A6802F00702062AE1
:1011A00003D00A6842F001020A60012180F83D1074
:1011B0000020704770B5044690F83C00012817D015
:1011C000012584F83C50022084F83D0020688268A4
:1011D00022F0770222F47F4282600868502830D0E3
:1011E0000DDC20284DD005DC98B310283BD148E019
:1011F000022070BD302844D0402834D139E0602826
:1012000028D0702806D0B0F5805F2CD0B0F5005FF4
:1012100029D10AE0CB68D1E90121206800F0A7FAC2
:101220002068816841F0770109E0CB68D1E90121AC
:10123000206800F09CFA2068816841F48041816058
:1012400011E0CA684968206800F066FB50212068F8
:1012500007E016E0CA684968206800F06EFB60216C
:10126000206800F08EFA84F83D50002084F83C009D
:1012700070BDCA684968206800F04EFB40212068B4
:10128000EFE7226801461046EBE7000010B586B094
:10129000044614216846FEF7CBFF2068B0F1804F6A
:1012A00014D10B480021026842F00102026000687C
:1012B000022200F00100059001200090CDE90121FB
:1012C000CDE9031069460348FFF7CCFA06B010BD1C
:1012D000303802400000024070B5044690F83C00EF
:1012E0000D4601280DD0012684F83C60022084F8C8
:1012F0003D0042B1042A18D0082A2AD00C2A4DD128
:1013000039E0022070BD206800F044FA206881694D
:1013100041F0080181612068816921F00401816147
:10132000206881692A69114311E0206800F062FA9F
:101330002068816941F4006181612068816921F43C
:1013400080618161206881692A6941EA02218161A5
:1013500024E0206800F084FA2068C16941F00801A7
:10136000C1612068C16921F00401C1612068C169BF
:101370002A69114311E0206800F0A6FA2068C169CB
:1013800041F40061C1612068C16921F48061C161DB
:101390002068C1692A6941EA0221C16184F83D607F
:1013A000002084F83C0070BD10B5040003D094F810
:1013B0003D0010B107E0012010BD002084F83C0082
:1013C000204600F00CF8022084F83D00211D206822
:1013D00000F05CF9012084F83D00002010BD70474A
:1013E00010B504460068012200F0B4F90B492068EA
:1013F000884202D00A49884203D1416C41F400413D
:1014000041642068816801F00701062903D0016862
:1014100041F001010160002010BD0000000001400A
:1014200000040140FEE700001FB5002112480091B2
:10143000019102910F4A039102604FF48032C0E99A
:1014400001210161017680F820101203C26201249B
:101450005210C4618262C16080F830104461FFF7AD
:1014600021F902200094CDE9014069460248FEF7C7
:10147000B9FF1FBD002001401400002070B586B0E8
:1014800014216846FEF7D4FE1E480024016841F08E
:1014900080010160016801F080010591016841F05F
:1014A00001010160016801F001010591016841F04D
:1014B00002010160016801F002010591016841F03B
:1014C000080101600068104E00F008004FF47045FC
:1014D0000590002229463046FFF7A7FAB014009085
:1014E0000320CDE9010469460848FFF7BBF9012054
:1014F0000095CDE90104694630460394FFF7B2F93F
:1015000006B070BD30380240000C024000040240BA
:1015100010B58EB000240794089409940A940B9493
:101520001C2168460C94FEF783FE16484FF080415C
:10153000C0E900144FF6FF71C0E902418021046147
:101540008161FFF7EBFD4FF48050079007A90D482C
:10155000FFF730FE0B48FFF727FF0B940BA9094854
:101560000C94FFF793FD6020CDE900040294002263
:10157000694604480494FFF7AFFE0248FFF786FE71
:101580000EB010BD5C00002010B586B000241348DA
:10159000009401940294039404940F49059401600B
:1015A0004FF47A71C0E9011442F2D001C0E903148A
:1015B00080218161FFF7B2FD4FF4805000906946B1
:1015C0000648FFF7F7FD2020CDE9040404A90348ED
:1015D000FFF75CFD06B010BD000400409C00002039
:1015E000FEE7704770477047FFF72ABA30B593B0EF
:1015F00030216846FEF71CFE14210CA8FEF718FEE9
:1016000019480025016841F080510160006800F030
:10161000805011901548016841F4804101600068D4
:10162000022400F4804011900120009000040190F9
:101630008001CDE9064008AA0420A82182E8130011
:101640000B906846FFF760FB0CA90F2081E8310082
:101650004FF4A0500F90E002109005210CA8FFF766
:1016600089FA13B030BD00004038024000700040DD
:101670000548016841F47001016003494FF00060C2
:10168000803908607047000088ED00E0F0B502681E
:10169000254C264D264E274F274B4FF0804CA0421D
:1016A00009D0604507D0A84205D0B04203D0B84267
:1016B00001D0984204D122F0700E4A6842EA0E022C
:1016C000A0421BD0604519D0A84217D0B04215D017
:1016D000B84213D0984211D0184DA8420ED0184DE0
:1016E000A8420BD0174DA84208D0174DA84205D0EC
:1016F000164DA84202D0164DA84203D122F44075DF
:10170000CA682A434D6922F080022A4302608A682F
:10171000C2620A688262A04201D0984201D109697E
:10172000016301214161F0BD00000140000400405F
:1017300000080040000C004000040140004001404F
:10174000004401400048014000180040001C0040D7
:101750000020004010B501F01F030121046A9940E8
:101760008C430462016A9A401143016210BD10B5B6
:10177000846842EA032224F47F440A4322438260BD
:1017800010BD826822F070020A4342F007018160B6
:1017900070470000F0B5026A22F001020262036A9B
:1017A00042688469124E24F073050C682C4323F0C0
:1017B00002058B682B430D4DA84201D0B04205D1E4
:1017C00023F00807CB683B4323F00403A84201D071
:1017D000B04205D14D6922F4407215438A692A430B
:1017E00042608461496841630362F0BD00000140CA
:1017F00000040140F0B5026A22F010020262026A9F
:10180000436884690D6824F4E64444EA05248D683D
:1018100022F0200242EA05120F4D104EA84201D0DC
:10182000B04206D1CF6822F0800242EA071222F0CD
:101830004002A84201D0B04207D14D6923F4406371
:1018400043EA85038D6943EA8503436084614968FF
:1018500081630262F0BD000000000140000401400D
:10186000F0B5026A22F480720262026A4368C469B7
:1018700022F4007224F073050C68124E2C438D681C
:1018800042EA05220E4DA84201D0B04206D1CF68EF
:1018900022F4006242EA072222F48062A84201D0C8
:1018A000B04207D14D6923F4405343EA05138D69D3
:1018B00043EA05134360C4614968C1630262F0BD35
:1018C000000001400004014030B5026A22F4805259
:1018D0000262046A4268C3690D6823F4E64343EA7E
:1018E00005238D6824F4005444EA0534084DA842C9
:1018F00002D0084DA84204D14D6922F4804242EA48
:1019000085124260C36149680164046230BD000011
:10191000000001400004014010B5036A046A24F08D
:1019200001040462846924F0F00444EA021423F000
:101930000A020A438461026210BD10B5036A23F0F3
:10194000100303628369046A23F4704343EA02329A
:1019500024F0A00343EA01118261016210BDFEE799
:101960000907090E002804DB00F1E02080F80014CC
:10197000704700F00F0000F1E02080F8141D704760
:1019800002E008C8121F08C1002AFAD17047704748
:10199000002001E001C1121F002AFBD170470000A6
:1019A000FFF756F8FFF722FEFFF768FDFFF7B0FDDF
:1019B000FFF7EAFDFFF738FD0648FEF7D7FE0548BA
:1019C0008830FFF7E5FB034800214830FFF708FDAA
:1019D000FEE70000140000200000000000000000EE
:1019E0000102030406070809081A00080000002085
:1019F00014000000801900081C1A000814000020C0
:101A0000CC04000090190008000000000100000054
:0C1A100010000000000000000024F400A2
:040000050800018965
:00000001FF
