:020000040800F2
:10000000680600209D010008C3310008052D000886
:10001000C1310008790E00086139000800000000B5
:10002000000000000000000000000000C9310008CE
:100030007D10000800000000C5310008CB31000829
:10004000B7010008B7010008B7010008B7010008B0
:10005000B7010008C73100087F100008B701000889
:10006000B7010008B7010008B7010008B701000890
:10007000B7010008B7010008B7010008B701000880
:10008000FD0E0008B7010008CD0C0008B7010008FC
:10009000B7010008B7010008B7010008B701000860
:1000A000B7010008B7010008B7010008B701000850
:1000B00071320008B70100087D320008B70100085E
:1000C000B7010008B7010008B7010008B701000830
:1000D000B7010008B701000855390008B70100084A
:1000E00085100008B7010008B7010008B701000833
:1000F000B7010008B7010008B7010008B701000800
:10010000B7010008B7010008B7010008B7010008EF
:10011000B7010008B7010008B7010008B7010008DF
:10012000B7010008B7010008B7010008B7010008CF
:10013000B7010008B7010008B7010008B7010008BF
:10014000B7010008B7010008B7010008B7010008AF
:10015000B7010008B7010008B7010008B70100089F
:10016000B7010008B7010008B7010008B70100088F
:10017000B7010008B7010008B7010008000000003F
:10018000B7010008B7010008DFF80CD000F0A0FBB1
:1001900000480047394400086806002006488047A8
:1001A00006480047FEE7FEE7FEE7FEE7FEE7FEE75C
:1001B000FEE7FEE7FEE7FEE755320008890100088A
:1001C0002DE9F05F0546002092469B46884606468C
:1001D000814640241BE0284641464746224600F01F
:1001E000A9F953465A46C01A914110D311461846F0
:1001F000224600F090F92D1A67EB01084F4622467F
:100200000120002100F087F917EB00094E41201E64
:10021000A4F10104DFDC484631462A464346BDE8E6
:10022000F09FD2B201E000F8012B491EFBD27047CB
:100230000022F6E710B513460A4604461946FFF7B2
:10024000F0FF204610BD00000FB400B589B00BA828
:1002500000906A4603480A9900F08AF909B05DF8EF
:1002600014FB00005C0000202DE9FF5F1D464FF0ED
:10027000FF3BD5E9014691465F464FF00008A9696A
:100280007F1C01988847296A824688470028F6D152
:10029000BAF1FF3F0CD024F4C064002E19DD6006D3
:1002A00014D5BAF12B0F09D0BAF12D0F0ED103E0FE
:1002B000584604B0BDE8F09F44F48064A9697F1CEF
:1002C00001988847761E8246002E02DDBAF1300F73
:1002D00003D0B9F1000F26D032E0A969761E44F4AC
:1002E00000747F1C019888478246002E05DDBAF114
:1002F000780F06D0BAF1580F03D0B9F1000F10D023
:100300001EE0B9F1000F02D0B9F1100F18D1A969A0
:10031000761E24F400747F1C0198884782461020C2
:1003200002E0082000E00A20814609E008FB0908F5
:10033000A969761E44F400747F1C019888478246A0
:10034000002E05DD4946504600F004F90028EDDA9C
:10035000E96901988847A00502D46FF00100A8E779
:10036000E00725D1600613D5600502D5C8F100006D
:1003700000E0404629680A1D2A600968220501D567
:10038000087015E0220701D5088011E008600FE031
:100390002868011D29600068210502D580F80080C9
:1003A00006E0210702D5A0F8008001E0C0F8008037
:1003B00038467EE72DE9F04D81EA030404F0004B56
:1003C00021F0004514464FF0000A23F0004150EAA6
:1003D000050220D054EA01021DD0C5F30A57024697
:1003E000C5F31303C1F31300C1F30A5640F480159B
:1003F00043F48013A7EB0608101BD64608F2FD381D
:1004000073EB050002D308F1010801E092185B418B
:10041000B8F1000F03DA00200146BDE8F08D00209E
:100420004FF48011064684460EE0171B73EB050758
:1004300005D3121B63EB050306434CEA010C490884
:100440004FEA300092185B4150EA0107EDD152EAC1
:10045000030012D082EA040083EA0501084305D0B4
:10046000101BAB4106D20122002306E000224FF010
:10047000004302E06FF0010253101AEB06004CEB50
:10048000085110EB0A0041EB0B01BDE8F04D00F004
:1004900079B80EB540F2334102910021CDE9001147
:1004A0000A460B4600F07DF803B000BD70B5C1F3FD
:1004B0000A5201F000450024C1F3130140F2FF335A
:1004C00041F480119A4201DA002070BD40F23343BA
:1004D0009A42A2F2334203DC524200F02BF800E0D1
:1004E00090402C43F1D0404270BD30B50B460146E0
:1004F00000202022012409E021FA02F59D4205D3C3
:1005000003FA02F5491B04FA02F52844151EA2F16C
:100510000102F1DC30BD202A04DB203A00FA02F1AE
:10052000002070479140C2F1200320FA03F31943E1
:1005300090407047202A04DB203A21FA02F0002183
:10054000704721FA02F3D040C2F1200291400843E3
:10055000194670473A2800D2303820F02002412A4C
:1005600001D3A2F13700884201D34FF0FF3070472A
:10057000024B9361024BD36100F0EAB9A942000833
:100580001109000810B5141E73F1000408DA401CAC
:1005900041F1000192185B411A4301D120F00100A2
:1005A00010BD2DE9F04D92469B4611B1B1FA81F292
:1005B00002E0B0FA80F220329046FFF7ACFF04462A
:1005C0000F4640EA0A0041EA0B0153465A460843E7
:1005D00013D0114653EA010019D0C8F14002504629
:1005E000FFF7A8FF05460E46504659464246FFF71C
:1005F00092FF084305D0012004E020463946BDE8BB
:10060000F08D0020054346EAE0762C4337430A98F4
:100610006305E40AA0EB08000022FD0A44EA4754FF
:100620000A3002D500200146E9E7010510196941A9
:10063000DDE9084500196941BDE8F04DA2E72DE963
:10064000FE4F804681EA0300C00F0C46009021F067
:10065000004123F00045B8EB0200A94105D2404615
:10066000214690461C460B46024623F000401043AC
:1006700047D0270DC7F30A00C3F30A510290401A6E
:10068000019040286BDAC3F3130040F4801B0098FC
:10069000924620B10023D2EB030A63EB0B0B0198C7
:1006A0005946C0F140025046FFF735FF06460D4659
:1006B00050465946019A00F033F910EB08006141A9
:1006C000002487EA115284EAE7731A4340D0009A63
:1006D00062B3019A012A4FEA075215DC001B61EB55
:1006E00002014FF0004202EA0752CDE90042001C2D
:1006F00041F5801132462B46FFF753FF03B0BDE8AA
:10070000F08F40462146F9E7001B61EB0201001C17
:1007100041F5801300185B412018A2F5001747EB44
:10072000030140EAD570B6196D4111E06D084FEA3A
:10073000360645EAC0754FEA0752001B61EB02011D
:10074000001C41F5801149084FEA30000019514161
:1007500032462B4603B0BDE8F04FFFF713BF0098B9
:10076000012240000023D0EB020263EBE07300980B
:1007700021464FEAE074B8EB000061EB0401E9E7C1
:1007800083F000435BE781F0004158E72DE9FE4F1D
:1007900081EA030404F0004421F0004100944FF08A
:1007A000000B23F0004350EA01045ED052EA030438
:1007B0005BD0C3F30A54C1F30A552C44A4F2F334BA
:1007C0000194A0FB0254C1F3130141F48011C3F35F
:1007D000130343F4801301FB024400FB034E840A1D
:1007E000970A44EA815447EA8357A4FB07680295B5
:1007F0008D0A05FB07854FEA932C04FB0C54270553
:10080000029D4FEA065847EA1637B5EB08056EEB2E
:10081000070C870E920E47EA811742EA8312A7FB64
:100820000201B6EB0B0164EB00042B0D43EA0C3321
:100830005E1844EB1C50DA465146E7FB0201C5F353
:1008400013044FEA0B3343EA14534FEA0432019C7A
:1008500043EA0603A4F10C040294009CCDE900B421
:10086000FFF79FFE03B0BDE8F08F00200146F9E7D7
:10087000C1F30A52C1F3130140F2FF3341F4801176
:100880009A4202DA00200146704740F233439A420E
:10089000A2F2334202DC5242FFF74CBEFFF73BBEEE
:1008A00030B5041E71F1000404DB4FF000444042F7
:1008B00064EB0101141E73F1000405DB1C464FF0CC
:1008C0000043524263EB0403994208BF904230BD9B
:1008D000064C074D06E0E06840F0010394E807008D
:1008E00098471034AC42F6D3FFF752FC6049000839
:1008F00080490008094910B508784C1C18B1401E01
:100900000870205C10BD00210720ABBE207010BD18
:1009100002490878421C0A707047000064000020F9
:10092000202A06DBCB17203A41FA02F043EAE073B3
:1009300006E041FA02F3D040C2F1200291400843A0
:1009400019467047026811441378016018467047D1
:10095000D1600449516104491162002111611146BD
:1009600000F00AB8450900086D090008C0B24FF44C
:10097000F05100F097B900002DE9F34F8BB04FF024
:10098000000801F10C000C464FF0010B46460DF13A
:10099000080A01906269012101989047051E2DD037
:1009A000252D2CD0216A8847C0B1626901210198A8
:1009B0009047216A88470028F7D1411E6269019853
:1009C000904700E0761CA1690B988847216A884708
:1009D0000028F7D1E1690B988847DBE7A1690B98FC
:1009E00088470746A84201D1761CD3E7E1690B98F6
:1009F00088477F1C02D1B8F1000F6FD046E1002775
:100A000062693D463946019890472A2804D16269B7
:100A10000121019890470125DFF884926269012144
:100A200001989047A0F130010A290AD24F45E5DC30
:100A300007EB870100EB4107303FDFD445F010059D
:100A4000ECE7E90601D46FF000476C280AD04C2887
:100A500014D0682815D06A280DD074281CD07A28A4
:100A60001AD01DE062690121019890476C2802D0DC
:100A700045F0040514E045F002050DE045F02005C1
:100A80000AE06269012101989047682802D045F088
:100A9000080505E045F40065626901210198904769
:100AA000C4E9015765283DD019DC58287AD00CDC00
:100AB000452837D004DC252826D0412831D131E023
:100AC00046282FD047282CD12CE05B2877D06128EE
:100AD00028D063287CD0642823D15AE0D0E06F2846
:100AE00048D008DC66281DD067281BD0692821D093
:100AF0006E2816D127E0702845D0732868D0752855
:100B000047D078280DD14DE0A1690B98884705465C
:100B100025283FF469AFE1690B9888476D1C3FF4C5
:100B20006AAFB3E023466A466FF001000B99AFF35A
:100B300000809EE045F040006060A80723464FF02B
:100B4000000236D43EE0E8077FF447AF2068011D7D
:100B500021600068290501D506701BE7290701D52A
:100B6000068017E7A90703D5F117C0E9006111E76F
:100B700006600FE745F040006060A80723464FF08D
:100B8000080216D41EE040F60E0125EA010060605E
:100B900016E045F040006060A80723464FF00A02C7
:100BA00007D40FE045F040006060A80708D5234651
:100BB00010226FF001000B99AFF3008059E007E0BD
:100BC000234610226FF001000B99FFF74DFB50E018
:100BD0004FF000094F464B46632802D05B2806D0F1
:100BE00040E0E80601D40120A06001273AE06269F4
:100BF0000121019890475E2805D14FF001096269F3
:100C0000494601989047216939B900210A4653465F
:100C100043F82120491C0829FADBB0B3216969B9DE
:100C2000C11700EBD16253110AEB830122F01F02BE
:100C3000821A01200B68904003430B606269012116
:100C4000019890475D28E8D1B9F1000F09D0002044
:100C5000514651F82020D24341F82020401C08285A
:100C6000F7DB02AB224600976FF001000B99AFF360
:100C7000008000280CDA401C08D1BBF1000F05D021
:100C80004FF0FF300DB0BDE8F08FFFE74046F9E7C9
:100C9000E90701D108F1010806444FF0000B79E69D
:100CA000CCCCCC0C7F2801D9002208E0064A02EB0C
:100CB0005002C007127800D1120902F00F02012081
:100CC00090400840704700000C490008014800F0BF
:100CD000E5BA000068000020464910B54A6822F4D1
:100CE00040324A604A6843681A434A6001684A6869
:100CF00022F480724A6001684A68036942EA03226A
:100D00004A6001684A6822F040724A6001684A6895
:100D100083681A434A6001688A6822F400628A6024
:100D200001688A68C3681A438A60816A6FF07062DA
:100D3000D14201688A6822F070628A6001688A681C
:100D40000CD0836A1A438A6001688A6822F0405294
:100D50008A6001688A68C36A1A4301E022F040523F
:100D60008A6001688A6822F002028A6001688A68E3
:100D7000037E42EA43028A6090F82010002901684D
:100D80004A680FD042F400624A6001684A6822F45F
:100D900060424A6001684A68174C436A04EB433377
:100DA0001A4301E022F400624A600168CA6A22F430
:100DB0007002CA620168CA6A838B104C04EB035349
:100DC0001A43CA6201688A6822F400728A60016864
:100DD0008A6890F8303042EA43228A6001688A6863
:100DE00022F480628A6001688A68406942EA802051
:100DF000886010BD0023014000E0FFFF0000F0FF0D
:100E0000124810B5C268C16A91421ED10269016BD5
:100E100091421AD14269416B914216D100218163FE
:100E2000012251030A4800F02DFE0121084603F07B
:100E3000F5FA08A003F0E8FA0BA002F093FDBDE874
:100E400010404FF47A7000F0F3BC10BD0000002099
:100E5000000402402020212120414C41524D2E20EF
:100E60002121202000000000212120414C41524D31
:100E70002E20212120200A00FEE7000070B501226B
:100E8000084D54032146284600F0FCFD4FF47A70CB
:100E900000F0CEFC21462846BDE87040002200F05C
:100EA000F1BD00000004024010B50121022003F052
:100EB000B5FA10A003F0A8FA0921022003F0AEFA57
:100EC000202003F081FA0C21022003F0A7FA202051
:100ED00003F07AFA0F21022003F0A0FA202003F099
:100EE00073FA1021022003F099FABDE81040202087
:100EF00003F06ABA2020202020200000014800F0E2
:100F00005DBB00000402002001681823CAB2103A39
:100F1000B2FBF3F2054B6FF30901032A9B5CC36537
:100F200000D9091D8165084670470000EC4800089B
:100F300010B5014600208B698A6A4FF0C07453B126
:100F4000B3F5005F15D072B1012A0CD0022A0AD085
:100F5000032A09D104E01AB1012A06D0022A03D1DA
:100F6000C96AC90100D5012010BDC96AA142FAD0E1
:100F700010BD002AF7D0012AF2D0022AF3D0032AAA
:100F8000F3D010BD10B5194CA069082809D2DFE8CC
:100F900000F02304061B1D1F212315A000E019A04B
:100FA000E0610121084603F039FAE06903F02CFA08
:100FB000A069072812D014DD4FF0070190FBF1F271
:100FC00001FB1200A06110BD13A0E9E717A0E7E73D
:100FD0001BA0E5E71FA0E3E723A0E1E74FF0000037
:100FE000F0E70028EFD14FF00100EBE70000002010
:100FF00020202020204D6F6E646179202020202049
:101000000000000020202020205475657364617961
:101010002020202000000000202020205765646E42
:1010200065736461792020200000000020202020CA
:1010300054687572736461792020202000000000DC
:101040002020202020467269646179202020202001
:1010500000000000202020205361747572646179C3
:101060002020202000000000202020202053756E2A
:1010700064617920202020200000000070470120BA
:1010800000F00CBC4FF4805000F008BC7047704773
:1010900078B50024009490F83C20012A19D0012250
:1010A00080F83C200A6807230568092A13D9EE68EE
:1010B0000A3A02EB420293409E43EE600B788A6844
:1010C0000A3B03EB43039A400368DD682A43DA6076
:1010D00010E0022078BD2E6902EB420293409E434D
:1010E0002E610B788A6803EB43039A4003681D69FD
:1010F0002A431A614A681F23072A13D205686E6BB8
:10110000521E02EB820293409E436E630B790A8863
:101110005B1E92B203EB83039A4003685D6B2A4324
:101120005A6327E005680D2A12D22E6BD21F02EBFC
:10113000820293409E432E630B790A88DB1F92B292
:1011400003EB83039A4003681D6B2A431A6311E083
:10115000EE6A0D3A02EB820293409E43EE620B79F7
:101160000A880D3B92B203EB83039A400368DD6A61
:101170002A43DA62164B0568144A9D4206D10D686F
:10118000122D03D1556845F48005556005689D42D0
:1011900018D10B68102B01D0112B13D1536843F4D5
:1011A00000035360096810290CD10A490A4A0968EA
:1011B000B1FBF2F101EB8101490000E0491E009111
:1011C0000029FBD180F83C40002078BD002301407D
:1011D000002001405800002040420F0010B5274C6D
:1011E00003202DED028B216C9FED258B91FBF0F2FE
:1011F00000FB1212012A0FD091FBF0F200FB121239
:10120000022A19D091FBF0F200FB121020B300204B
:10121000E080BDEC028B10BD1B4800F03CF880B2B2
:10122000E080401CFFF735F953EC182BFFF7C2F8AC
:10123000FFF73CF92062ECE7134800F02CF880B28D
:10124000E080401CFFF725F953EC182BFFF7B2F8AC
:10125000FFF72CF96062DCE70B4800F01CF880B265
:10126000E080401CFFF715F99FED081B53EC112B94
:10127000FFF7A0F8FFF71AF9A062CAE70000002004
:10128000111111111111514068000020555555558B
:101290005555654070470068C06C704770B504468E
:1012A000006801684268C1F34001C2F3401251B3C3
:1012B0004AB3216CC90603D4216C41F40071216446
:1012C000816811F0405F17D1217EA9B9C16A11F47C
:1012D000700F02D0816849050ED4416821F02001C9
:1012E0004160206C20F480702064206CC00403D422
:1012F000206C40F0010020642046FFF76FFF21685A
:101300006FF012000860206801684268C1F3800134
:10131000C2F3C01289B382B3216CC90603D4216C15
:1013200041F400512164816811F4401F1ED1816B8A
:1013300011F4401F02D08168490517D4416849055E
:1013400014D4816811F0405F10D1217E71B94168D9
:1013500021F080014160206C20F480502064206CDA
:10136000C00503D4206C40F0010020642046FFF744
:101370008EFE21686FF00C000860206801684268EA
:1013800011F0010FC2F380120ED06AB10068C007DD
:101390000AD0206C40F480302064204600F046F8EB
:1013A00021686FF001000860206801684268C1F39D
:1013B0004011C2F3806200290DD0002A0BD0616C6D
:1013C00041F0020161646FF0200505602046FFF7DF
:1013D00061FF2068056070BD70B504004FF0000526
:1013E00003D0206C002610B107E0012070BD20461C
:1013F00000F01EF8666484F83C60206CC00610D4CF
:10140000206C20F4885040F0020020642046FFF752
:1014100063FC6664206C20F0020040F00100206450
:1014200000E0012584F83C60284670BD704700004C
:1014300010B586B0044614216846FEF7F9FE15493A
:101440002068884224D114480021026842F4807246
:101450000260006800F4807005900F48143802683C
:1014600042F001020260006800F0010005900220D5
:1014700000900320CDE901016946084800F01AFAFE
:1014800000221146122000F017FD122000F006FD88
:1014900006B010BD00200140443802400000024068
:1014A00018B50021009190F83C20012A07D00122B4
:1014B00080F83C2002689368DB0702D011E002202C
:1014C00018BD936843F0010393602C4A2C4B1268BB
:1014D000B2FBF3F202EB420200E0521E0092002A3D
:1014E000FBD102689368DB0746D0036C40F20164CD
:1014F000A34343F48073036453685B0505D5036C11
:1015000023F4005343F480530364036CDB0404D5D9
:10151000436C23F00603436400E0416480F83C1010
:10152000184B6FF02201116001684A68164C224383
:101530004A6059680068CA06144906D088421BD11F
:10154000816811F0405F13D016E08842F8D0104A4D
:10155000904203D1D1F80423D206F1D00D4A904233
:101560000AD1D1F8041301F01F011029E8D303E0D8
:10157000816841F080418160002018BD5800002042
:1015800040420F00002301402000000400200140E1
:10159000002101400022014090F83510022903D0BB
:1015A0008021416501207047052180F835100068D1
:1015B000016821F001010160002070472DE9F84326
:1015C00004464FF00009CDF8009063484FF41651DF
:1015D000A56D0068B0FBF1F72E6894F85C10082048
:1015E00000FA01F131420FD021680A6852070BD589
:1015F0000A6822F004020A6094F85C108840A8602F
:10160000606D40F00100606594F85C104FF00108D7
:1016100008FA01F0304208D021684969090604D56A
:10162000A860606D40F00200606594F85C100420D2
:101630008840304208D021680968890704D5A8602D
:10164000606D40F00400606594F85C1010208840E4
:10165000304218D021680968090714D5A8602068AD
:101660000168490304D50068000308D5A16C07E0B0
:101670000168C90503D4016821F008010160216CEB
:1016800009B12046884794F85C10202088403042F9
:1016900031D021680968C9062DD5A86094F83500B5
:1016A00005282068016806D0490347D50068000373
:1016B0001DD4616C1CE021F01601016020684169B5
:1016C00021F080014161206C08B9A06C20B1206834
:1016D000016821F00801016094F85C103F20884007
:1016E000A86084F8349084F83580216D1FE0E16BA8
:1016F00009B120468847606D00282BD0606DC00777
:1017000014D0052084F835002068016821F001011B
:1017100001600098401C0090B84203D8206800681F
:10172000C007F6D184F8349084F83580E16C002944
:1017300010D001B02046BDE8F04308470168C90554
:10174000D5D4016821F01001016084F8349084F848
:101750003580CCE7BDE8F883580000202DE9F04142
:10176000044600F095F906465CB1002584F8345033
:10177000022084F835002068016821F00101016031
:101780000DE00120BDE8F08100F082F9801B052802
:1017900005D920206065032084F83500F2E7206831
:1017A0000068C007F0D12268116820480140D4E9E0
:1017B00001031843D4E903363343184363691843DC
:1017C000A3691843E3691843236A18430843616A0D
:1017D000042903D1D4E90B1319430843106020688E
:1017E0004069666A20F0070130460E43012704284D
:1017F0000CD1A06A0643E06A40B12046FFF798FB8F
:1018000020B14020606584F83570BAE720684661F1
:101810002046FFF779FB94F85C203F2191408160DE
:10182000656584F835700020ACE700003F8010F05B
:1018300070B5044600F02CF90546601C02D004483F
:101840000078044400F024F9401BA042FAD370BD94
:101850004C00002070B50D480025056001210C48A2
:1018600000F004F90B4C20B1E06B401CC4E90E50B1
:1018700070BD4FF48051084800F0F8F80028F7D008
:10188000206CA563401C206470BD0000240800404B
:10189000000002400000002000040240044910B58E
:1018A0000A68024202D00860FFF7D4FF10BD0000B2
:1018B000143C01402DE9F84F00224FF001080325A8
:1018C0004FF00F0E0B6808FA02F42340A3426ED1CA
:1018D0004E68012E05D0022E03D0112E01D0122EFB
:1018E00012D186684FEA420C05FA0CF7BE43CF6866
:1018F00007FA0CF7374387604668A6430C79C4F3B0
:101900000014944034434460C668570005FA07FC4D
:101910008C6826EA0C06BC403443C4604C68022C38
:1019200001D0122C13D1D40800EB8404A346D4F8C0
:10193000209054074FEAD46A0EFA0AF629EA0609FB
:101940000E6906FA0AF646EA0906CBF82060066830
:101950000C7926EA0C0604F00304BC40344304600E
:101960004C68E40065D5364C266846F4804626600F
:10197000246822F0030604F480440094314C34447B
:10198000A446D4F808489607370F0EFA07F6B44372
:101990002D4EB04201D1002624E02C4EB04201D1A0
:1019A00001261FE02A4EB04202D102261AE040E092
:1019B000284EB04201D1032614E0274EB04201D197
:1019C00004260FE0254EB04201D105260AE0244E40
:1019D000B04201D1062605E0224EB04201D10726D1
:1019E00000E00826BE402643CCF808681E4E346846
:1019F0004F689C43FF0300D51C4334601A4C241DE0
:101A000026684F689E43BF0300D51E432660164ECE
:101A1000083634684F689C43FF0200D51C4334608D
:101A2000114E0C3634684F689C43BF0200D51C43EE
:101A30003460521C102AFFF445AFBDE8F88F000057
:101A400044380240003001400000024000040240DF
:101A500000080240000C0240001002400014024046
:101A600000180240001C0240003C01400069084090
:101A700000D001207047426931EA020200D1090416
:101A8000816170470AB1816170470904FBE700007A
:101A900001488068704700004C00002070B50400C9
:101AA00025D094F83D00002520B984F83C5020460C
:101AB00000F04EF9242084F83D002068016821F0F0
:101AC000010101602068016841F400410160206863
:101AD000016821F40041016000F0BAFA4D4A6168E2
:101AE000914201D84C4900E04C49884201D2012082
:101AF00070BD4B492368B0FBF1F15E6826F03F06EC
:101B00000E435E606368934206D94FF4967359435F
:101B10004FF47A73B1FBF3F12368491C1E6A26F077
:101B20003F06314319626168914210D84900401E56
:101B3000B0FBF1F2521CC2F30B02042A01D20420C2
:101B400022E0B0FBF1F0401CC0F30B001CE0A268E7
:101B5000F2B301EBC10303EB0116431EB3FBF6F333
:101B60005B1C43F480431B0549D092B301EBC102D7
:101B700002EB0111401EB0FBF1F0401CC0F30B0062
:101B800040F4804040F400402168CA694CF6FF737D
:101B90009A431043C861D4E90710014320680268E2
:101BA00022F0C00211430160D4E90301014320681F
:101BB000826848F2FF339A4311438160D4E90501FA
:101BC00008432168CA6822F0FF021043C86001E0A0
:101BD0000EE016E02068016841F001010160256413
:101BE000202084F83D00256384F83E50002070BD1D
:101BF00001EB4106431EB3FBF6F35B1CB3E7012088
:101C0000C2E701EB4101401EB0FBF1F0401CC0F304
:101C10000B00B7E7A086010080841E0000093D008C
:101C200040420F002DE9F84F1F4690468A46044671
:101C3000DDF82890FFF72CFF054694F83D0020289A
:101C40007FD11923012240492046009501F0E6F892
:101C5000002876D194F83C00012872D0012084F845
:101C60003C0020680168C90703D1016841F0010107
:101C700001602068016821F400610160212084F87E
:101C80003D00102084F83E0000262664C4F824801D
:101C90006785608D20852D48E0622B464A46514677
:101CA000204601F047F890B92068416980690090AA
:101CB00036E02A464946204601F02FF950B1206C03
:101CC000042804D12068016841F4007101600120FA
:101CD000BDE8F88F606A216800780861606A401C7E
:101CE0006062618D491E6185218D491E89B2218501
:101CF00022685369DB435B070BD451B10078106154
:101D0000606A401C6062608D401E6085208D401EB0
:101D100020852A464946204601F05AF80028CED1AF
:101D2000208D0028C5D154F83D0B016841F40071A5
:101D30000160202004F81E09E67766770020C7E7D7
:101D4000FFE70220C4E70000020010000000FFFFD0
:101D5000F0B587B0044614216846FEF769FA1A49BF
:101D6000206888422DD11948016841F004010160C2
:101D7000016801F004010591016841F00101016071
:101D80000068122400F0010005904FF40070012556
:101D9000032604278DE8F10069460D48FFF78AFD08
:101DA00028028DE8F10069460A48FFF783FD0748DD
:101DB0001030016841F400010160006800F4000087
:101DC000059007B0F0BD0000005C004030380240D4
:101DD0000008024000000240024881680278114475
:101DE000816070474C0000200B4810B5016841F439
:101DF00000710160016841F480610160016841F493
:101E000080710160032000F077F8002000F006F8F0
:101E100000F024F8002010BD003C024070B50D4DCC
:101E200004464FF47A712878B1FBF0F00A4909684A
:101E3000B1FBF0F000F00AFB48B9102C07D20022E9
:101E40002146501E00F038F800206C6070BD012063
:101E500070BD00004C000020580000200E4808B55E
:101E6000016841F480410160006800F48040009006
:101E70000948001F016841F080510160006800229C
:101E800000F0805000901146052000F015F8BDE8E4
:101E90000840052000F002B844380240002809DB61
:101EA00000F01F02012191404009800000F1E02074
:101EB000C0F8001170470000F0B40E4B1B680C46D0
:101EC000C3F30223C3F10705042D00D90425191D0E
:101ED000072901D2002300E0DB1E012606FA05F1E6
:101EE000491E214099409E40761E16403143F0BC69
:101EF00001F05CBD0CED00E0064900F00702086847
:101F00004FF6FF03184040EA0220034A10430860DE
:101F1000704700000CED00E00000FA052DE9F047E5
:101F20000E46050065D0DFF81481D8F80000F7B23E
:101F300000F00F00B04207D288F80070D8F8000017
:101F400000F00F00B04254D128683D4C810712D5F3
:101F5000400703D5206840F4E0502060287800074F
:101F600003D5206840F4604020602068A96820F014
:101F7000F000084320602878C0072DD030496868F9
:101F80000839012812D0022813D0032811D009687B
:101F9000890700292DDA216821F00301014321601E
:101FA000FFF776FD814641F2883A0EE00968890321
:101FB000EFE709688901ECE7FFF76AFDA0EB09018B
:101FC000514502D90320BDE8F0872068696800F018
:101FD0000C00B0EB810FEFD1D8F80010404601F0B3
:101FE0000F01B14207D90770006800F00F00B0423E
:101FF00001D00120E7E72878400705D52068E96887
:1020000020F4E050084320602878000706D52068B7
:10201000296920F4604040EAC100206000F038F8EF
:102020002168084AC1F30311515CC84006490860A1
:1020300006480068FFF7F2FE0020C4E7003C0240BB
:1020400008380240F44800085800002050000020E2
:102050000448054900680968044AC1F38221515CBB
:10206000C840704758000020083802400449000862
:102070000448054900680968044AC1F34231515CCB
:10208000C840704758000020083802400449000842
:10209000154810B5006810F00C02144813D0411018
:1020A000042A0FD0082A0ED10F4C241F226823685F
:1020B00002F03F025B0207D52068C0F38810A0FB46
:1020C000010106E0084610BD2168C1F38811A1FB9B
:1020D00000010023FEF774F82168C1F30141491C97
:1020E0004900B0FBF1F010BD083802400024F400B4
:1020F0002DE9F84F04006ED02078DFF83C93C0073C
:10210000A9F104054AD009F104000168C1F3810175
:10211000012908D00068C0F3810002280AD1D9F84B
:102120000000400206D52868800337D56068002883
:10213000E1D033E06068B0F5803F10D0B0F5A02F5B
:10214000286810D020F480302860286820F480208F
:1021500028606068A8B1FFF79BFC06460DE0286880
:1021600040F48030F4E740F480202860F7E700BFB7
:10217000FFF78EFC801B642873D828688003F7D58E
:102180000CE0FFF785FC064605E000BFFFF780FC8A
:10219000801B6428F0D828688003F7D42078DFF803
:1021A0009C8280074FF0000A3ED5A348001D0168BD
:1021B00011F00C0F08D00068C0F3810002280BD189
:1021C000D9F80000400207D42868800716D5E068D7
:1021D000012800D112E02BE1E068B8B10120C8F875
:1021E0000000FFF755FC064605E000BFFFF750FC76
:1021F000801B0228C0D828688007F7D52868216985
:1022000020F0F80040EAC10028600DE0C8F800A006
:10221000FFF73EFC064604E0FFF73AFC801B02286D
:102220001FD828688007F7D42078000722D5824E6F
:1022300083486169703671B101210160FFF728FCA4
:10224000074604E0FFF724FCC01B022809D83068C9
:102250008007F7D50EE0C0F800A0FFF719FC07468D
:1022600005E082E0FFF714FCC01B02287DD830682F
:102270008007F7D42078400768D5DFF8BCB1002785
:102280000BF13C0BDBF80000C0000BD4DBF80010B6
:1022900041F08051CBF80010DBF80000012700F07E
:1022A00080500090674E3068C00510D4306840F40C
:1022B00080703060FFF7ECFB009005E0FFF7E8FB73
:1022C0000099401A022850D83068C005F6D55A4EF9
:1022D000A0686C3601280FD00528306810D020F097
:1022E00001003060306820F004003060A068B8B1B0
:1022F000FFF7CEFB00900FE0306840F00100F4E7FC
:1023000040F004003060F7E7FFF7C2FB0099411A84
:1023100041F28830814266D830688007F4D50EE0FB
:10232000FFF7B6FB009007E0FFF7B2FB0099411AF8
:1023300041F28830814256D830688007F4D42FB1FA
:10234000DBF8001021F08051CBF80010A069C8B371
:102350003949091D0968C1F3810102294AD00228BF
:10236000504607D0C8F8600000E03CE0FFF790FB63
:1023700004463BE04746C8F86000FFF789FB064685
:1023800005E000BFFFF784FB801B02282BD82868DC
:102390008001F7D4D4E907010843A16A2A4A490811
:1023A00002EB0141626A41EA8211084394F82C1061
:1023B00040EA0161C9F8001001203866FFF768FBA8
:1023C000044606E036E000BFFFF762FB001B022870
:1023D00009D828688001F7D52CE000BFFFF758FB2B
:1023E000001B022802D90320BDE8F88F286880016D
:1023F000F4D41FE00128F7D0D9F80000E26900F416
:102400008001914214D1226A00F03F0191420FD124
:1024100047F6C071626A0140914209D1A26A00F494
:102420004031914204D1E16A00F07060884201D0ED
:102430000120D9E70020D7E70438024000004742D6
:10244000800E4742007000400000FFFF10B5401EA4
:10245000B0F1807F01D3012010BD4FF0E024606116
:102460000F21601701F0A2FA0020A061072020616F
:10247000002010BD7047704770B590F83C20012ACD
:1024800032D0012480F83C40022280F83D200368CD
:102490005A689D6822F070060A6832435A60134BEE
:1024A00002689A4214D0B2F1804F11D0104B9A4278
:1024B0000ED0104B9A420BD00F4B9A4208D00F4BC4
:1024C0009A4205D00E4B9A4202D00E4B9A4204D14A
:1024D000496825F080031943916080F83D40002150
:1024E00080F83C10084670BD022070BD000001401D
:1024F0000004004000080040000C004000040140BF
:10250000004001400018004010B5040003D094F8CA
:102510003D0010B107E0012010BD002084F83C0010
:10252000204600F00DF8022084F83D00211D2068AF
:1025300000F0AAFE012084F83D00002010BD00003C
:1025400008B501681948B1F1804F0BD0184A914283
:1025500017D1016841F002010160006800F002003B
:10256000009008BD016841F001010160006800228F
:1025700000F00100009011461C20FFF79DFC1C207C
:1025800010E00C4A9142ECD1016841F00401016075
:102590000068002200F00400009011461E20FFF7A2
:1025A0008BFC1E20BDE80840FFF778BC4038024095
:1025B0000004004000080040022180F83D1001683E
:1025C0008A6802F00702062A03D00A6842F0010274
:1025D0000A60012180F83D10002070470168CA6838
:1025E00042F00102CA600068816801F00701062913
:1025F00003D0016841F0010101600020704770B50F
:10260000044690F83C00012817D0012584F83C507E
:10261000022084F83D002068826822F0770222F4CC
:102620007F4282600868502830D00DDC20284DD0D1
:1026300005DC98B310283BD148E0022070BD30285B
:1026400044D0402834D139E0602828D0702806D002
:10265000B0F5805F2CD0B0F5005F29D10AE0CB68DF
:10266000D1E90121206800F080FE2068816841F0F6
:10267000770109E0CB68D1E90121206800F075FEFF
:102680002068816841F48041816011E0CA6849682E
:10269000206800F07CFE5021206807E016E0CA6840
:1026A0004968206800F084FE6021206800F067FE21
:1026B00084F83D50002084F83C0070BDCA68496829
:1026C000206800F064FE40212068EFE722680146A0
:1026D0001046EBE7704770B50446006801694FF09B
:1026E0000005C943890715D4C168C943890711D4B6
:1026F000E91E01610120207720688069800720465B
:1027000002D0FFF7E7FF04E000F098F8204600F061
:1027100096F8257720680169C943490717D4C1682D
:10272000C943490713D46FF00401016102202077E7
:102730002068806910F4407F204602D0FFF7CAFF6E
:1027400004E000F07BF8204600F079F82577206857
:102750000169C943090716D4C168C943090712D4DE
:102760006FF008010161042020772068C0698007AC
:10277000204602D0FFF7AEFF04E000F05FF82046ED
:1027800000F05DF8257720680169C943C90617D4B0
:10279000C168C943C90613D46FF010010161082054
:1027A00020772068C06910F4407F204602D0FFF7F0
:1027B00091FF04E000F042F8204600F040F8257751
:1027C00020680169C943C90708D1C168C943C9075D
:1027D00004D1891E0161204600F054F82068016987
:1027E000C943090609D4C168C943090605D46FF075
:1027F000800101612046FFF73DFE20680169C94361
:10280000490609D4C168C943490605D46FF040019F
:102810000161204600F096F820680169C9438906E5
:102820000BD4C168C943890607D46FF02001016148
:102830002046BDE87040FFF71EBE70BD7047704770
:1028400010B504460068012200F082FD0B492068A3
:10285000884202D00A49884203D1416C41F40041C8
:1028600041642068816801F00701062903D00168EE
:1028700041F001010160002010BD00000000014096
:10288000000401402DE9FF41054600681F4CB0F1EE
:10289000804F31D11E4E4FF480513046FFF7EBF898
:1028A000A068401CA0600A2826D14FF40051304691
:1028B000FFF7E1F8E0680021401CC4E90210A16CB8
:1028C000D1B93C2190FBF1F201FB1200226992FB8D
:1028D000F1F301FB13236169182291FBF2F602FB6D
:1028E000161204F12C01C2C9CDE90261CDE900073D
:1028F00008A0E16901F036F811492868884202D140
:10290000A06B401CA063BDE8FF8100000000002018
:10291000000C02400A0D204461793A2025730953C6
:102920006161743A2025643A25643A25642009419E
:102930006C61726D3A2025643A25643A2564090079
:10294000000800407047704770B502680446106880
:10295000D168536910F00F0F52D003F0010501F454
:1029600090762E435FD0C20705D0CA0503D5E26B2F
:1029700042F00102E263420705D5DA0703D0E26BB9
:1029800042F00202E263820705D5DA0703D0E26B68
:1029900042F00402E263020707D501F020022A4355
:1029A00003D0E26B42F00802E263E26B002A33D00C
:1029B000800604D5880602D5204600F021FD206857
:1029C0004069E16BC0F38010090700D428B32046AA
:1029D00000F008FD2068416949061AD5416921F0D7
:1029E00040014161606BA0B11B490165606BFEF75E
:1029F000D3FD002810D0606B016DBDE87040084722
:102A0000830610D58B060ED52046BDE8704000F039
:102A1000F7BC2046FFF797FF70BD2046FFF793FFF6
:102A20000020E06370BD030606D50B0604D52046E2
:102A3000BDE8704000F0C4BD4006F3D54806F1D5AE
:102A4000D168204621F04001D160202184F839105E
:102A500000F04CF970BD0000D533000870B50400DB
:102A600004D094F83900002510B106E0012070BDB3
:102A700084F83850204600F023F8242084F83900E8
:102A80002068C16821F40051C160204600F004FDB7
:102A90002068016921F4904101612068416921F0B9
:102AA0002A0141612068C16841F40051C160E563B9
:102AB000202084F8390084F83A00002070BD00001E
:102AC00070B586B0064614216846FDF7B1FB234970
:102AD000306888423FD122480025016841F4003126
:102AE0000160006800F4003005901D48103801684E
:102AF00041F0010101600068694600F001000590A5
:102B00000C2000900220CDE901050320039007204E
:102B100004901448FEF7CEFE144C134820604FF08A
:102B20000060C4E901054014C4E903506561A56172
:102B3000E561256220466562FEF710FE08B1FEF7EA
:102B4000A5FA7463002211462620A663FFF7B4F9A4
:102B50002620FFF7A3F906B070BD00000044004036
:102B60004038024000000240886002400402002019
:102B70002DE9F843044690F83A00994616460D466A
:102B8000202852D1BDB1B6B194F8380001284CD0FC
:102B9000012084F838000027E763222084F83A00F7
:102BA0002C34FEF775FF24F8026B804624F80A6B7C
:102BB00004F8387931E00120BDE8F883E08D401E4B
:102BC000E085A0684346B0F5805F4FF000024FF00B
:102BD00020012046CDF8009004D000F022FD98B1ED
:102BE0000320E9E700F01DFD0028F9D12069002845
:102BF0002068406803D0C1B225F8011B0DE0C0F386
:102C0000080125F8021B08E02069002820684068B8
:102C100001D000F07F0005F8010BE08D0028CDD138
:102C2000202084F83A000020C6E70220C4E770475D
:102C30002DE9F843044690F839001F4616460D4624
:102C4000202850D1B5B1AEB194F8380001284AD04F
:102C5000012084F838004FF00008C4F83C8021209F
:102C600084F83900FEF714FFA6848146E68484F8D0
:102C7000388026E00120BDE8F883E08C401EE08427
:102C8000A0684B46B0F5805F4FF000024FF0800126
:102C90002046009703D000F0C4FCE8B90DE000F036
:102CA000C0FCC8B928882168C0F3080048602069C2
:102CB00008B16D1C05E0AD1C03E0216815F8010B9F
:102CC0004860E08C0028D8D14B46002240212046A5
:102CD000009700F0A6FC08B10320CCE7202084F880
:102CE00039000020C7E70220C5E70000006803495B
:102CF000884202D102A000F035BE70470044004077
:102D000063756D00FEE701684A69D24352050FD42E
:102D10006FF480624A61002140F8301F2022427324
:102D20008173026942F0040202610173012070475D
:102D300000207047F8B50446C06A1E460D46174687
:102D4000082807D0012805D010F5803F02D0206B5D
:102D5000122804D12068016841F480710160134693
:102D600000224FF001112046009600F057F840B1C4
:102D700020680068C00502D54FF40070206403206D
:102D8000F8BD2069B0F5804F0ED00620216800EA1A
:102D9000D51040F0F000086133463A460B49204612
:102DA00000F070F878B902E005F0FE0000E0E8B24B
:102DB00021680861054933463A46891F204600F0DC
:102DC00061F80028DCD00120F8BD000008000100F7
:102DD00070B516460D4604460DE02046FFF793FFFA
:102DE00008B1012070BD681C05D0FEF751FE801BA4
:102DF000A84207D835B120684069C0434007ECD4E9
:102E0000002070BD002044F8300F20216173A073B2
:102E1000216941F0200121612073E2E72DE9F047AB
:102E20001E4690460D460446C1F30747DDF8209044
:102E300008E0701C06D0FEF72BFEA0EB0900B042A4
:102E40000FD876B12068012F18D0806925EA0000DC
:102E50000004000C14D000214145EAD00020BDE858
:102E6000F087002044F8300F20216173A07321699E
:102E700041F02001216120730120F0E74069E5E77E
:102E80000121E9E72DE9F0479A4691460E460446AE
:102E900000254FF02008C1F3074725E0206840696E
:102EA000C043400514D42068016841F400710160FA
:102EB00021686FF480604861256384F83D8084F860
:102EC0003E50206C40F00400206484F83C501FE029
:102ED000B9F1FF3F08D0FEF7DBFDA0EB0A01494541
:102EE0000CD8B9F1000F09D02068012F13D08069E8
:102EF00026EA00000004000C0BD0CFE744F8305F56
:102F000084F80D80A573206940F0200020612573AE
:102F10000120BDE8F0874069EAE770B516460D4626
:102F200004460DE02046FFF7EEFE08B1012070BD1B
:102F3000681C05D0FEF7ACFD801BA84207D835B150
:102F400020684069C0430006ECD4002070BD00201A
:102F500044F8300F20216173A073216941F02001F2
:102F600021612073E2E700007FB50024124800943D
:102F7000019402940F49039401604FF48031C0E939
:102F800001140461047680F820400903C162012520
:102F9000C5614910C460816280F830404561FEF728
:102FA0001BFA0095CDE9015469460348FEF770F815
:102FB0007FBD000000200140680000202DE9F04F97
:102FC00087B014216846FDF733F9384800240168BA
:102FD00041F080010160016801F080010591016804
:102FE00041F001010160016801F0010105910168F2
:102FF00041F002010160016801F0020105910168E0
:1030000041F008010160016801F0080105910168C3
:1030100041F0040101600068DFF894A000F00400B2
:103020004FF400580590002241465046FEF72AFD15
:10303000DFF880B04FF47049002249465846FEF749
:1030400021FD01251C4E02278DE8E00069461B4842
:10305000FEF730FC28038DE8C10069465046FEF7B4
:1030600029FCCDF80080CDE901546946504603940F
:10307000FEF720FCCDF80090CDE901546946584692
:103080000394FEF717FC002211460620FEF714FFFA
:103090000620FEF703FF002211462820FEF70CFF52
:1030A0002820FEF7FBFE07B0BDE8F08F3038024065
:1030B00000040240000C0240000011100000024019
:1030C00010B586B000241248009401940294039431
:1030D00004944FF08041059401604FF47A71C0E987
:1030E000011442F2D001C0E903148461FFF70CFA25
:1030F0004FF48050009069460548FFF780FA049429
:1031000004A903480594FFF7B7F906B010BD000005
:103110000401002010B586B00024134800940194E7
:103120000294039404940F49059401606421C0E95A
:10313000011442F2D001C0E9031480218161FFF73C
:10314000E3F94FF48050009069460748FFF757FABB
:103150002020CDE9040404A90348FFF78DF906B047
:1031600010BD0000000400404401002010B586B0EE
:1031700000241248009401940294039404940E498C
:103180000594016042F2D001C0E9011442F21071CD
:10319000C0E903148461FFF7B7F94FF48050009041
:1031A00069460648FFF72BFA049404A903480594DE
:1031B000FFF762F906B010BD00080040840100204E
:1031C000FEE77047704770477047FEF705BE000086
:1031D00030B593B030216846FDF72AF814210CA8C9
:1031E000FDF726F819480025016841F0805101607B
:1031F000006800F0805011901548016841F480414A
:1032000001600068022400F48040119001200090C9
:10321000000401908001CDE9064008AA0420A821FD
:1032200082E813000B906846FEF762FF0CA90F209E
:1032300081E831004FF4A0500F90E002109005217A
:103240000CA8FEF76BFE13B030BD00004038024002
:10325000007000400548016841F4700101600349B5
:103260004FF00060803908607047000088ED00E092
:103270000148FFF730BA0000040100200148FFF7C1
:103280002ABA000084010020F0B50268254C264DC2
:10329000264E274F274B4FF0804CA04209D0604567
:1032A00007D0A84205D0B04203D0B84201D098421E
:1032B00004D122F0700E4A6842EA0E02A0421BD0EE
:1032C000604519D0A84217D0B04215D0B84213D0EB
:1032D000984211D0184DA8420ED0184DA8420BD0DC
:1032E000174DA84208D0174DA84205D0164DA84248
:1032F00002D0164DA84203D122F44075CA682A4371
:103300004D6922F080022A4302608A68C2620A681C
:103310008262A04201D0984201D109690163012172
:103320004161F0BD00000140000400400008004081
:10333000000C0040000401400040014000440140F6
:103340000048014000180040001C004000200040E0
:1033500010B501F01F030121046A99408C430462F7
:10336000016A9A401143016210BD10B5846842EAB7
:10337000032224F47F440A432243826010BD826802
:1033800022F070020A4342F007018160704710B5D5
:10339000036A046A24F001040462846924F0F004DE
:1033A00044EA021423F00A020A438461026210BD57
:1033B00010B5036A23F0100303628369046A23F4DF
:1033C000704343EA023224F0A00343EA0111826110
:1033D000016210BD10B5806B0021C185C184FFF76B
:1033E000B2FA10BD0168CA6822F49072CA6001681E
:1033F0004A6922F001024A61202180F83A107047A0
:1034000010B590F83A10222901D0022010BD816831
:10341000B1F5805F11D00169002901681FD04968AA
:1034200001F07F03816A4A1C82620B70C18D491EC4
:103430000904090CC18518D02BE00269816A002AB1
:103440000268526805D0D2B20A80816A491C816242
:10345000ECE7C2F308020A80816A891CF7E74A6830
:10346000816A4B1C83620A70E0E70168CA6822F037
:103470002002CA600168CA6822F48072CA600168CA
:103480004A6922F001024A61202180F83A10FFF7D0
:10349000CEFB002010BD00002DE9F041044600687D
:1034A0000169E26821F44051114301612169A0687A
:1034B000E26908436169114308432168CA6849F217
:1034C0000C639A430243CA6020684169A26921F4EF
:1034D000407111434161E069192764253226B0F536
:1034E000004F354A354920684FF0000806D0884221
:1034F00001D0904236D1FEF7BBFD35E0884201D0C5
:10350000904202D1FEF7B4FD01E0FEF7A1FD616833
:103510004A18A0FB070148EB0803FCF751FE0146DF
:10352000B0FBF5F00201B1FBF5F06FF01803584362
:1035300001EB800006EBC000B0FBF5F000F0F800F6
:1035400002EB4002B1FBF5F0584301EB800006EBC3
:10355000C000B0FBF5F000F007002168104488605F
:10356000BDE8F081FEF774FD61688B0F8A00A0FB57
:103570000701FCF725FE0146B0FBF5F06FF01802DD
:10358000504301EB800006EB0010B0FBF5F000F0BB
:10359000F002B1FBF5F002EB0012B1FBF5F06FF0B9
:1035A0001803584301EB800006EB0010B0FBF5F068
:1035B00000F00F00D1E700000014014000100140AE
:1035C00090F83910212901D0022070478168B1F5A7
:1035D000805F016A0BD04A1C026202680978516060
:1035E000C18C491E0904090CC1840ED017E009885A
:1035F0000268C1F30801516001690029016A02D023
:10360000491C0162ECE7891CFBE70168CA6822F0EB
:103610008002CA600068C16841F04001C1600020BA
:1036200070472DE9F041984617460E460446069D20
:103630001DE0681C1BD02DB1FEF72AFAA0EB080094
:10364000A84214D92068C16821F4D071C1602068F3
:10365000416921F001014161202084F8390084F89A
:103660003A00002084F838000320BDE8F08120688B
:10367000006836EA000004D00020B842D9D000200B
:10368000F3E70120F9E700002DE9F041534C002554
:10369000A06C012802D0A564BDE8F08150A000F024
:1036A00061F94E494FF6FF730122491D5B4865647D
:1036B000FFF75EFA6079182630383C2760640128ED
:1036C0002BD157A000F04EF95AA000F04BF9434916
:1036D0005DA02831A562FCF7B7FD5CA0A16A00F0EF
:1036E00041F93E4958A02431FCF7AEFDD4E9092147
:1036F0005BA000F037F9A06A90FBF6F106FB110120
:103700006161606A90FBF7F207FB120259A0226127
:1037100000F028F9606C401C606402283ED15BA078
:1037200000F020F95EA000F01DF92C4946A03431CC
:103730006563FCF789FD60A0616B00F013F9274910
:1037400041A030312563FCF77FFDD4E90C215FA057
:1037500000F008F921493CA02C31E562FCF774FD2A
:10376000D4E90C215EA0E36A00F0FCF8606B90FBEA
:10377000F6F106FB11016163206B90FBF7F207FB8A
:1037800012022263E06A90FBF7F307FB130359A0D0
:10379000E36200F0E7F8606C401C6064032813D11A
:1037A0005BA000F0DFF80D4927A0FCF74DFD0B48AA
:1037B0000078A061FDF7E6FBD4E9061259A000F0FD
:1037C000D1F8606C401C606404287FF465AFA56488
:1037D000E560BDE8F04158A000F0C4B8000000204A
:1037E0000A0D20536574204D656E753A0A0D312E11
:1037F000736574436C6F636B0A0D322E736574418D
:103800006C61726D0A0D332E7365744461790A0D13
:10381000342E457869740A0900000000C4010020B4
:103820000A0D436C6F636B2053657474696E677324
:103830003A0A0A000D09436C6F636B3A205F5F3AE6
:103840005F5F200A0D090900256400000D09436C23
:103850006F636B3A2025643A5F5F200A0000000026
:103860000D09436C6F636B3A2025643A2564200A86
:103870000000000053657420436C6F636B20746F0D
:103880003A2025643A25643A303000000A0D416C34
:1038900061726D2053657474696E67733A0A0A0029
:1038A0000D09416C61726D3A205F5F3A5F5F3A5F6C
:1038B0005F200A0D090900000D09416C61726D3A23
:1038C0002025643A5F5F3A5F5F200A000D09416C72
:1038D00061726D3A2025643A25643A5F5F200A00E0
:1038E0000D09416C61726D3A2025643A25643A25D0
:1038F00064200A00416C61726D20736574746564A4
:1039000020746F3A2025643A25643A25640000004B
:103910000A0D4461792053657474696E67733A0ABD
:103920000A0000005365742044617920746F3A20C6
:103930002564202D202573000A0D457869742053D5
:10394000657474696E67732C20436C6F636B3A4FB8
:103950004E0A0A000148FEF7F7BF0000C40100202C
:10396000FEE700000FB4054B10B503A9044A029806
:1039700000F0FEF810BC5DF814FB0000E142000806
:10398000600000200FB4084B10B504A902AA0398E8
:1039900000F0EEF8044602A9002000F080FC20466A
:1039A00010BC5DF814FB00009F4200080907090ED7
:1039B000002804DB00F1E02080F80014704700F0DC
:1039C0000F0000F1E02080F8141D704702E008C8E5
:1039D000121F08C1002AFAD170477047002001E089
:1039E00001C1121F002AFBD1704700002DE9FF5FC3
:1039F00082B00021DDE90430020DDDF840B0034360
:103A000018D044F61050A2F2FF3242431514119818
:103A100001281FD0A5EB0B00401C5FEA000A4FF005
:103A200000064E4FDFF83891B046504615D5CAF122
:103A3000000413E0119801244AA3012801D16FEA80
:103A40000B010298119AC0E90031C0E9024206B0A8
:103A5000BDE8F09FCBF10000DFE704460021404ABB
:103A6000491842EB0450CDE9001012E0E00707D0FE
:103A700032463B4640464946FCF788FE804689462A
:103A800032463B4610461946FCF780FE06460F4676
:103A90006410002CEAD1DDE90401DDE90023BAF16C
:103AA000000F06DAFCF772FE42464B46FCF76EFE4C
:103AB00005E0FCF77FFC42464B46FCF77BFC0446E6
:103AC0000E460022284BFCF7EBFE03D84FF0FF30E8
:103AD000014607E00022254B20463146FCF7AFFDAA
:103AE000FCF7C6FE102409E0002C0ADB0A220023A2
:103AF000FCF766FB039B30321A55641E50EA010244
:103B0000F2D1641C039AC4F111031444119A012ADE
:103B100003D0012208430DD10AE0084304D000205D
:103B20004FF0110B119072E7A3EB0B056D1E0DE02A
:103B30005B4504DD4FF0000205F1010504E003DA06
:103B40004FF00002A5F10105002AECD0029811996E
:103B5000C0E90231C0E9004579E7000000001440E7
:103B60000000F03F300000000000F0430000E03FA4
:103B70002DE9FF4F95B09B468946064600250FE28A
:103B8000252877D100242746F84A0121059400E032
:103B9000044316F8013F203B01FA03F01042F7D12D
:103BA00030782A2811D06FF02F033078A0F130023E
:103BB000092A16D8059A44F0020402EB820203EBAC
:103BC00042021044761C0590EFE759F8042B059249
:103BD000002A03DA504244F40054059044F00204F1
:103BE000761C30782E2816D116F8010F44F0040404
:103BF0002A280DD06FF02F023078A0F13003092B66
:103C000009D807EB870302EB4303C718761CF3E7D9
:103C100059F8047B761C30786C280FD006DC4C28D1
:103C200017D068280DD06A2814D104E0742810D069
:103C30007A280FD10DE044F400140AE044F4801413
:103C400001E044F440147278824202D104F58014F9
:103C5000761C761C307866280BD013DC582877D079
:103C600009DC002875D04528F6D04628F4D047282E
:103C70001AD19DE118E0632835D0642879D06528F1
:103C800012D195E1702873D008DC6728F1D069283B
:103C90006FD06E280DD06F2806D1B5E073282CD0D8
:103CA000752875D0782874D05A46179990476D1C9E
:103CB00075E1C4F30250022809D003280DD0D9F8C9
:103CC000001004280DD00D6009F1040967E1D9F84E
:103CD0000010EA17C1E90052F6E7D9F800100D808C
:103CE000F2E70D70F0E719F8041B8DF800100020C2
:103CF0008DF80100EA46012003E059F804AB4FF0CB
:103D0000FF3061074FF0000102D40DE008F101011E
:103D10008846B9420FDA8045F8DB1AF80810002906
:103D2000F4D108E008F1010188468142FADB1AF873
:103D300008100029F6D105985B46A0EB080721463C
:103D40003846179A00F094FA284400EB080507E07B
:103D50004DE029E10DE01AF8010B5A4617999047FA
:103D6000B8F10108F7D25B4621463846179A13E1AD
:103D700042E00A220092C4F302524FF0000A022AE3
:103D800008D059F804CB032A4FEAEC710AD00DE0B1
:103D900029E02AE009F1070121F00702F2E802C157
:103DA000914609E00FFA8CFC4FEAEC71042A03D12A
:103DB0004FFA8CFC4FEAEC71002907DA0A46002121
:103DC000DCF1000C61EB02012D2202E0220504D59A
:103DD0002B228DF80420012203E0E20701D02022EB
:103DE000F7E7904659E00A2102E010220DE0102189
:103DF0004FF0000A00910BE010224FF0000A44F04F
:103E000004040827009203E008224FF0000A009201
:103E1000C4F30252022A05D059F804CB0021032A28
:103E200008D009E009F1070121F00702F2E802C118
:103E3000914605E01FFA8CFC042A01D10CF0FF0C1E
:103E40004FF00008220728D5702806D0009B83F089
:103E5000100353EA0A0305D00EE040228DF8042037
:103E6000012208E05CEA010206D030228DF804202D
:103E70008DF8050002229046009B83F0080353EA68
:103E80000A030AD15CEA010201D1620705D530229A
:103E90008DF804204FF001087F1E582804D034A06C
:103EA00003900EA802900DE036A0F9E75346604655
:103EB000009AFCF785F984460398825C0298401EBC
:103EC000029002705CEA0100F0D1029806A9081A7B
:103ED00000F1200A600702D524F4803400E00127B5
:103EE000574502DDA7EB0A0000E0002000EB0A01C5
:103EF000009005984144401A0590E00306D45B46C3
:103F00002146179A059800F0B3F90544002706E00A
:103F100001A85A46C05D179990476D1C7F1C474504
:103F2000F6DBE0030CD55B462146179A059800F0B6
:103F30009FF9054404E030205A46179990476D1CBC
:103F40000099481E00900029F5DC08E002980299CB
:103F50005A460078491C0291179990476D1CBAF196
:103F60000001AAF1010AF1DC65E100000928010065
:103F700030313233343536373839616263646566DF
:103F800000000000303132333435363738394142A1
:103F9000434445460000000000F058F90544761CF3
:103FA000307800287FF4ECAD19B02846BDE8F08FDA
:103FB000620700D4062709F1070222F0070CFCE88B
:103FC0000223E14603F000485FEA080C02D00FF23A
:103FD000702C0DE05FEA045C02D50FF2682C07E05C
:103FE0005FEAC47C02D00FF2602C01E0AFF2700CEB
:103FF0004FF0FF3823F00043CDF850C065280CD0B7
:1040000006DC452809D046281DD047283DD13DE093
:10401000662818D067287ED138E00021112F01DBF7
:10402000112000E0781CCDE9000106A90EA8FFF7D9
:10403000DDFCDDE90F010E9A03910021009207F1EA
:10404000010A04914DE04FF000400097CDE90110C6
:1040500006A90EA8FFF7CAFCDDE90F0203920E9B2A
:1040600011990022DDF80CA00093049211B9791C7B
:1040700000EB010AB7EB0A0004D4C0F1FF3007F1EE
:10408000010A0490AAEB0700019044E0012F00DA36
:1040900001270021112F01DD112000E03846CDE974
:1040A000000106A90EA8FFF7A1FCDDE90F010E9A99
:1040B0000391002104910092BA4621070CD4039980
:1040C000514500DA8A46BAF1010F05DD009AAAF1DE
:1040D0000101515C302908D0B84202DA10F1040F16
:1040E00006DA0121CDE9011015E0AAF10101E9E7A5
:1040F000002805DC049901440491AAEB000102E0C8
:10410000411C514500DD8A460499401A401C01902B
:104110004FF000400290200704D40198504501DB85
:10412000CDF8048000208DF84F0002980DF14F0764
:10413000B0F1004F25D02B200E9002984FF00208CE
:1041400000280CDA404202902D200E9007E00A2150
:104150000298FCF7CAF93031029007F8011DB8F156
:104160000001A8F10108F2DC02980028EFD1791EC5
:104170000E980870307800F0200040F0450007F8F5
:10418000020D12A8C01B00F107081498007800B1B6
:10419000012000EB0A01019801EBE0710598414410
:1041A000401A401E0590E00306D45B462146179A4C
:1041B000059800F05DF805441498007818B15A4647
:1041C000179990476D1CE00324D55B462146179A4A
:1041D000059800F04DF805441CE00498002807DB22
:1041E000DDE90301884203DD0098405C179901E096
:1041F000179930205A469047049805F10105401C54
:1042000004900198401E019004D12E205A4617991F
:1042100090476D1CBAF10001AAF1010ADDDC05E04E
:1042200017F8010B5A46179990476D1CB8F1000119
:10423000A8F10108F4DC5B462146179A0598ABE625
:104240002D0000002B000000200000002DE9F041AF
:10425000044600251E461746880404D405E0394666
:104260002020B0476D1C641EF9D52846BDE8F081BA
:104270002DE9F041044600251E469046C80301D5AD
:10428000302700E02027880404D505E04146384661
:10429000B0476D1C641EF9D52846BDE8F0810A6858
:1042A000531C0B60107070471CB500208DF8000087
:1042B0000A480068016840684FF6FF740190234681
:1042C000012269460548FEF753FC23460122694650
:1042D0000248FEF7ADFC9DF800001CBDC4010020A3
:1042E00013B54FF6FF73012269460248FEF7A0FCA2
:1042F00000981CBDC40100201FB5024603A16846FA
:10430000FFF740FB684600F07FF81FBD2564000002
:1043100010B53220FDF78CFA302000F035F805207A
:10432000FDF786FA302000F02FF80120FDF780FA23
:10433000302000F029F80A20FDF77AFA202000F05A
:1043400023F80A20FDF774FA282000F01DF8012058
:10435000FDF76EFA082000F017F80120FDF768FA63
:10436000012000F011F80120FDF762FA0120FDF7AD
:104370005FFA062000F008F80120FDF759FABDE8C1
:1043800010400C20AFF300801CB500F0F00141F0AC
:104390000C028DF8042041F0080100018DF8051091
:1043A00040F00C018DF8061040F008008DF8070071
:1043B00064200090042301AA4E210248FDF732FC3C
:1043C0001CBD0000B00000201CB500F0F00141F061
:1043D0000D028DF8042041F0090100018DF805104F
:1043E00040F00D018DF8061040F009008DF807002F
:1043F00064200090042301AA4E210248FDF712FC1C
:104400001CBD0000B000002010B5044602E0641C92
:10441000FFF7DAFF20780028F9D110BD491E01F01E
:104420000F01012804D041F0C00000BFFFF7ACBF6E
:1044300041F08000FAE700002DE9F84FFDF7D4FCC9
:10444000FEF7C6FEFEF7BAFDF9480025016841F403
:104450000011016000682A4600F40010009029460F
:104460001020FDF729FD1020FDF718FDFEF77CFD5B
:10447000FEF726FEFEF74EFEFEF778FEEE48ED490B
:104480004FF4804A0160ED49C0E90115C0E9035AC3
:1044900045618561C5610562FDF700FBE948E849B2
:1044A00001604FF4E131C0E901150C21C560C0E99C
:1044B00004518561C561FEF7D1FADF484838FCF741
:1044C000EFFFDD485430FEF789F8DE488038FEF70C
:1044D00073F8DC484038FEF781F8D74800215430A3
:1044E000FEF7AEF9FFF714FFD74C172060613B20B1
:1044F00020613720E060D5A0FFF734FA3027A564AB
:10450000DFF860B3DFF86093E77003264FF40058DC
:10451000E06B30B1D5490140012974D0C00771D09A
:1045200059E1E0683C2808DB2069514600F10100B0
:10453000C4E903505846FDF79EFA20693C2809DB80
:1045400060694FF4004100F10100C4E9045058468D
:10455000FDF791FA6069182815D101224FF6FF7115
:104560005846FDF78FFA65612561E560A069401C3A
:10457000A061FCF707FDFCF781FC00224FF6FF71FC
:104580005846FDF77FFA01210846FFF747FFB8A01C
:10459000FFF73AFF60694FF007010A2806DA0220A8
:1045A000FFF73CFF0020FFF7A7FE08210220FFF7DE
:1045B00035FF6069FFF7A0FE20694FF00A010A2865
:1045C00006DA0220FFF72AFF0020FFF795FE0B21F5
:1045D0000220FFF723FF2069FFF78EFEE0684FF00F
:1045E0000D010A2806DA0220FFF718FF0020FFF766
:1045F00083FE0E210220FFF711FFE068FFF77CFE2B
:10460000E9E000E068E001210846FFF707FF9CA011
:10461000FFF7FAFE01210220FFF700FF9CA0FFF741
:10462000F3FE206C90FBF6F106FB110101290ED080
:1046300090FBF6F106FB110102290BD090FBF6F17D
:1046400006FB110010B3A06B05283BD03CE0401CDA
:10465000206439E003210220FFF7E0FE8DA0FFF780
:10466000D3FE606A4FF00A010A2806DA0220FFF73B
:10467000D5FE0020FFF740FE0B210220FFF7CEFE03
:10468000606AFFF739FE606A20611DE003210220A5
:10469000FFF7C4FE80A0FFF7B7FEA06A4FF0070146
:1046A0000A2806DA0220FFF7B9FE0020FFF724FEF1
:1046B00008210220FFF7B2FEA06AFFF71DFEA06AE4
:1046C000606101E0E563E5604FF47A70FDF7B0F8F2
:1046D000E068401DE0607EE001210846FFF79EFE95
:1046E0006EA0FFF791FE01210220FFF797FE68A060
:1046F000FFF78AFE206C90FBF6F106FB1101012901
:104700000ED090FBF6F106FB1101022924D090FB9C
:10471000F6F106FB1100D8B3A06B052855D056E082
:1047200003210220FFF77AFE60A0FFF76DFE206AEA
:104730004FF00D010A2806DA0220FFF76FFE002075
:10474000FFF7DAFD0E210220FFF768FE206AFFF76F
:10475000D3FD206AE0623AE003210220FFF75EFE0B
:104760004CA0FFF751FE606A4FF00A010A2806DAF2
:104770000220FFF753FE0020FFF7BEFD0B210220B1
:10478000FFF74CFE606AFFF7B7FD606A20631EE02A
:10479000FFE703210220FFF741FE3FA0FFF734FEB1
:1047A000A06A4FF007010A2806DA0220FFF736FE5A
:1047B0000020FFF7A1FD08210220FFF72FFEA06ACD
:1047C000FFF79AFDA06A606301E0E563E5604FF4DE
:1047D0007A70FDF72DF81C4932230122C91C1948B3
:1047E000FEF7C6F9E0783038A064012868D000BF31
:1047F000FCF706FB41464846FDF738F9012813D17E
:10480000206C90FBF6F106FB1100022802D0A06B91
:10481000052809D1002241464846FDF733F924A076
:10482000FFF7A0F801202064FCF73EFB70E647E0AC
:1048300030380240005C0040B0000020A08601003B
:1048400000440040C4010020000000200D0A4C6517
:10485000747320636F6F6B2074686520636C6F6383
:104860006B2E2E00000C024000040240010000806C
:10487000536161743A20536120446B20536E0000F1
:10488000417961723A20536120446B20536E0000DD
:10489000533A00004D494E0048525300416C726D2E
:1048A0003A20536120446B20536E0000534543006F
:1048B000416C61726D204D757465642E20200A0074
:1048C000FEF7E2FE05A0FFF74DF8606C042802D069
:1048D0000020BDE8F88FE7708AE700002E2E2E51E9
:1048E0007569747465642E2E2E0000000006101683
:1048F0000006101600000000000000000102030482
:10490000060708090000000001020304DDDDDDDD0B
:10491000DCBBBBDDDDDDDDDDDDDDDDDD9888888850
:1049200088888888777777777788888885555556F7
:10493000666666666666666666688888833333324E
:1049400022222222222222222228888D2020202078
:10495000204D6F6E6461792020202020000000002F
:10496000804900080000002068000000CC390008E1
:10497000E84900086800002000060000DC39000853
:1049800000303000000000000000000000000000C7
:104990000000000000000000010000004C49000879
:1049A0000000000000000000000000000500000002
:1049B00000000000000000000000000000000000F7
:1049C00001000000000000000000000001000000E5
:1049D00010000000000000000024F40000000000AF
:0849E0000000000000000000CF
:040000050800018965
:00000001FF
