:020000040800F2
:10000000700400209D010008CB0F0008B70E000807
:10001000C90F0008A9020008B5130008000000007D
:1000200000000000000000000000000011130008A4
:10003000AB02000800000000CD0F000813130008F9
:10004000B7010008B7010008B7010008B7010008B0
:10005000B7010008B7010008AD020008B7010008A9
:10006000B7010008B7010008B7010008B701000890
:10007000B7010008B7010008B7010008B701000880
:10008000B7010008B7010008B7010008B701000870
:10009000B7010008B7010008B7010008B701000860
:1000A000B7010008B7010008B7010008B701000850
:1000B000B7010008B7010008B7010008B701000840
:1000C000B7010008B7010008B7010008D10F000808
:1000D000B7010008B7010008B7010008B701000820
:1000E000B7010008B7010008B7010008B701000810
:1000F000B7010008B7010008B7010008B701000800
:10010000B7010008B7010008B7010008B7010008EF
:10011000B7010008B7010008B7010008B7010008DF
:10012000B7010008B7010008B7010008B7010008CF
:10013000B7010008B7010008B7010008B7010008BF
:10014000B7010008B7010008B7010008B7010008AF
:10015000B7010008B7010008B7010008B70100089F
:10016000B7010008B7010008B7010008B70100088F
:10017000B7010008B7010008B7010008000000003F
:10018000B7010008B7010008DFF80CD000F07AF8DA
:1001900000480047F5130008700400200648804717
:1001A00006480047FEE7FEE7FEE7FEE7FEE7FEE75C
:1001B000FEE7FEE7FEE7FEE7991300088901000865
:1001C0002DE9F05F0546002092469B46884606468C
:1001D000814640241BE0284641464746224600F01F
:1001E00041F853465A46C01A914110D31146184659
:1001F000224600F028F82D1A67EB01084F462246E8
:100200000120002100F01FF817EB00094E41201ECD
:10021000A4F10104DFDC484631462A464346BDE8E6
:10022000F09FD2B201E000F8012B491EFBD27047CB
:100230000022F6E710B513460A4604461946FFF7B2
:10024000F0FF204610BD202A04DB203A00FA02F11C
:10025000002070479140C2F1200320FA03F31943B4
:1002600090407047202A04DB203A21FA02F0002156
:10027000704721FA02F3D040C2F1200291400843B6
:1002800019467047064C074D06E0E06840F0010350
:1002900094E8070098471034AC42F6D3FFF778FF94
:1002A00080140008A0140008FEE77047012000F049
:1002B00027B890F83510022903D08021416501202C
:1002C0007047052180F835100068016821F00101B0
:1002D000016000207047000070B5044600F004F98A
:1002E0000546601C02D004480078044400F0FCF885
:1002F000401BA042FAD370BD0400002070470000EC
:10030000044910B50A68024202D00860FFF7F6FF00
:1003100010BD0000143C01402DE9F84F00224FF0C1
:10032000010803254FF00F0E0B6808FA02F4234072
:10033000A3426ED14E68012E05D0022E03D0112E9D
:1003400001D0122E12D186684FEA420C05FA0CF742
:10035000BE43CF6807FA0CF7374387604668A64369
:100360000C79C4F30014944034434460C6685700C9
:1003700005FA07FC8C6826EA0C06BC403443C460CE
:100380004C68022C01D0122C13D1D40800EB840449
:10039000A346D4F8209054074FEAD46A0EFA0AF61E
:1003A00029EA06090E6906FA0AF646EA0906CBF8B2
:1003B000206006680C7926EA0C0604F00304BC40B1
:1003C000344304604C68E40065D5364C266846F436
:1003D00080462660246822F0030604F480440094DA
:1003E000314C3444A446D4F808489607370F0EFA27
:1003F00007F6B4432D4EB04201D1002624E02C4E26
:10040000B04201D101261FE02A4EB04202D102269D
:100410001AE040E0284EB04201D1032614E0274EF6
:10042000B04201D104260FE0254EB04201D105268D
:100430000AE0244EB04201D1062605E0224EB04229
:1004400001D1072600E00826BE402643CCF8086804
:100450001E4E34684F689C43FF0300D51C43346034
:100460001A4C241D26684F689E43BF0300D51E43C7
:100470002660164E083634684F689C43FF0200D54C
:100480001C433460114E0C3634684F689C43BF02E5
:1004900000D51C433460521C102AFFF445AFBDE860
:1004A000F88F000044380240003001400000024054
:1004B0000004024000080240000C0240001002400C
:1004C0000014024000180240001C0240003C0140A1
:1004D000426931EA020200D10904816170470AB120
:1004E000816170470904FBE701488068704700009C
:1004F000040000200248816802781144816070473E
:10050000040000200B4810B5016841F4007101603F
:10051000016841F480610160016841F4807101600B
:10052000032000F06FF8002000F006F800F024F837
:10053000002010BD003C024070B50D4D04464FF444
:100540007A712878B1FBF0F00A490968B1FBF0F044
:1005500000F09DFC48B9102C07D200222146501E05
:1005600000F030F800206C6070BD012070BD00000C
:1005700004000020100000200A4808B5016841F47A
:1005800080410160006800F4804000900548001F31
:10059000016841F080510160006800F080500090D7
:1005A00008BD000044380240002809DB00F01F02AB
:1005B000012191404009800000F1E020C0F80011C5
:1005C00070470000F0B40E4B1B680C46C3F30223C7
:1005D000C3F10705042D00D90425191D072901D2EF
:1005E000002300E0DB1E012606FA05F1491E21402A
:1005F00099409E40761E16403143F0BC00F0DBBEB1
:100600000CED00E0064900F0070208684FF6FF0312
:10061000184040EA0220034A104308607047000077
:100620000CED00E00000FA052DE9F0470E4605004C
:1006300065D0DFF81481D8F80000F7B200F00F00A1
:10064000B04207D288F80070D8F8000000F00F0020
:10065000B04254D128683D4C810712D5400703D5DC
:10066000206840F4E05020602878000703D5206817
:1006700040F4604020602068A96820F0F000084342
:1006800020602878C0072DD03049686808390128D3
:1006900012D0022813D0032811D009688907002935
:1006A0002DDA216821F0030101432160FFF71CFFCF
:1006B000814641F2883A0EE009688903EFE709684C
:1006C0008901ECE7FFF710FFA0EB0901514502D9C2
:1006D0000320BDE8F0872068696800F00C00B0EBEB
:1006E000810FEFD1D8F80010404601F00F01B14260
:1006F00007D90770006800F00F00B04201D0012058
:10070000E7E72878400705D52068E96820F4E0503D
:10071000084320602878000706D52068296920F45E
:10072000604040EAC100206000F018F82168084AE3
:10073000C1F30311515CC8400649086006480068CF
:10074000FFF7FAFE0020C4E7003C024008380240F0
:10075000701400081000002008000020154810B593
:10076000006810F00C02144813D04110042A0FD076
:10077000082A0ED10F4C241F2268236802F03F0282
:100780005B0207D52068C0F38810A0FB010106E0DA
:10079000084610BD2168C1F38811A1FB00010023A8
:1007A000FFF70EFD2168C1F30141491C4900B0FB70
:1007B000F1F010BD083802400024F4002DE9F84F94
:1007C00004006ED02078DFF83C93C007A9F104053F
:1007D0004AD009F104000168C1F38101012908D060
:1007E0000068C0F3810002280AD1D9F80000400255
:1007F00006D52868800337D560680028E1D033E04B
:100800006068B0F5803F10D0B0F5A02F286810D0F8
:1008100020F480302860286820F4802028606068F8
:10082000A8B1FFF761FE06460DE0286840F480306D
:10083000F4E740F480202860F7E700BFFFF754FE9C
:10084000801B642873D828688003F7D50CE0FFF775
:100850004BFE064605E000BFFFF746FE801B6428FE
:10086000F0D828688003F7D42078DFF89C828007CE
:100870004FF0000A3ED5A348001D016811F00C0F8F
:1008800008D00068C0F3810002280BD1D9F800001D
:10089000400207D42868800716D5E068012800D1F7
:1008A00012E02BE1E068B8B10120C8F80000FFF7C2
:1008B0001BFE064605E000BFFFF716FE801B022860
:1008C000C0D828688007F7D52868216920F0F8008B
:1008D00040EAC10028600DE0C8F800A0FFF704FE60
:1008E000064604E0FFF700FE801B02281FD8286898
:1008F0008007F7D42078000722D5824E83486169AB
:10090000703671B101210160FFF7EEFD074604E08A
:10091000FFF7EAFDC01B022809D830688007F7D529
:100920000EE0C0F800A0FFF7DFFD074605E082E01B
:10093000FFF7DAFDC01B02287DD830688007F7D4A6
:100940002078400768D5DFF8BCB100270BF13C0BDD
:10095000DBF80000C0000BD4DBF8001041F0805140
:10096000CBF80010DBF80000012700F08050009069
:10097000674E3068C00510D4306840F48070306035
:10098000FFF7B2FD009005E0FFF7AEFD0099401AB9
:10099000022850D83068C005F6D55A4EA0686C368B
:1009A00001280FD00528306810D020F001003060F9
:1009B000306820F004003060A068B8B1FFF794FD03
:1009C00000900FE0306840F00100F4E740F00400D0
:1009D0003060F7E7FFF788FD0099411A41F288304F
:1009E000814266D830688007F4D50EE0FFF77CFDC1
:1009F000009007E0FFF778FD0099411A41F2883036
:100A0000814256D830688007F4D42FB1DBF800104B
:100A100021F08051CBF80010A069C8B33949091DF5
:100A20000968C1F3810102294AD00228504607D043
:100A3000C8F8600000E03CE0FFF756FD04463BE0EC
:100A40004746C8F86000FFF74FFD064605E000BFC7
:100A5000FFF74AFD801B02282BD828688001F7D4B5
:100A6000D4E907010843A16A2A4A490802EB014177
:100A7000626A41EA8211084394F82C1040EA01614D
:100A8000C9F8001001203866FFF72EFD044606E085
:100A900036E000BFFFF728FD001B022809D82868B0
:100AA0008001F7D52CE000BFFFF71EFD001B0228D8
:100AB00002D90320BDE8F88F28688001F4D41FE034
:100AC0000128F7D0D9F80000E26900F480019142D2
:100AD00014D1226A00F03F0191420FD147F6C07154
:100AE000626A0140914209D1A26A00F44031914208
:100AF00004D1E16A00F07060884201D00120D9E79A
:100B00000020D7E70438024000004742800E4742E9
:100B1000007000400000FFFF7047000038B501681A
:100B200004464A688868C043430606D5C30704D113
:100B3000D3435B0601D4216C05E0830708D4D3437B
:100B40001B0605D4616C01B02046BDE83040084763
:100B5000830603D5430601D5C30551D4D3439B0671
:100B60004ED443060AD494F85130032B49D0636D18
:100B700043F004036365CB688B680093830609D454
:100B8000636D43F0010363658B6800930B6823F08A
:100B900040030B60C00506D4606D40F0080060653E
:100BA000206880680090606D002829D02068416826
:100BB00021F0E0014160012084F85100900701D448
:100BC000D00722D02068416821F003014160114D17
:100BD000E06C40B10565E06CFFF76BFB18B1606D30
:100BE00040F040006065A06C002809D00565A06C4D
:100BF000FFF75FFB002803D0606D40F040006065A8
:100C000038BDC8688868009038BD2046FFF784FF6B
:100C100038BD00007911000870B5040005D000252A
:100C2000A56294F8510010B106E0012070BD84F86F
:100C30005050204600F030F8022084F8510020681F
:100C4000016821F040010160D4E901010843D4E9C1
:100C500003121143084361690843218B01F40071B9
:100C60000843E1690843216A0843A16A08432168EF
:100C70000860A069042101EA1040616A0843216804
:100C800048602068C16921F40061C1616565012087
:100C900084F85100002070BD10B586B004461421C0
:100CA0006846FFF7C5FA17492068884228D11648D8
:100CB0000021026842F480520260006800F4805013
:100CC000059011481438026842F001020260006881
:100CD00000F001000590E02000900220CDE9010124
:100CE000032003900520049069460848FFF714FB91
:100CF000002211462320FFF765FC2320FFF754FC58
:100D000006B010BD003001404438024000000240EF
:100D1000F0B400248568134604261DB94268B2F574
:100D2000827F0DD090F85020012A0FD0012280F848
:100D3000502090F851700022012F0AD0022431E097
:100D400080F85160F0BC0A4600F04EB80220F0BCBA
:100D5000704771B16BB180F85160426581638387E0
:100D6000C38702638286C2864264C16819B10F4993
:100D700002E0012416E00E490164B5F5004F04D1EC
:100D800001680B6823F480430B6001684B6843F0F3
:100D900060034B6001680B685B0603D40B6843F08B
:100DA00040030B6080F850202046D0E73D12000839
:100DB0005D12000810B509490068096888420BD126
:100DC000012207490548FFF7A3FFBDE810404FF493
:100DD00080510448FFF77CBB10BD000014000020C8
:100DE00002000020000C0240F0B590F850500024A2
:100DF000012D0CD0012580F8505090F8515000265C
:100E00004768012D0BD0B7F5827F06D101E00220A3
:100E1000F0BD87680FB9042D01D0022429E0A9B1E3
:100E2000A2B19BB190F85150042D02D0052580F855
:100E30005150466501638386C38682638387C38777
:100E4000C16829B10D4901640D4904E0012410E095
:100E50000C4901640C49416401684A6842F0E002AF
:100E60004A6001680A68520603D40A6842F04002E8
:100E70000A6080F850602046F0BD0000DD0F0008D9
:100E80003D1000080D1000086D100008704710B5E7
:100E9000401EB0F1807F01D3012010BD4FF0E0244F
:100EA00060610F21601700F086FA0020A061072022
:100EB0002061002010BDFEE72DE9F04186B014212D
:100EC0006846FFF7B5F92F480024016841F080011A
:100ED0000160016801F080010591016841F00101A4
:100EE0000160016801F001010591016841F0020112
:100EF0000160016801F002010591016841F00801FB
:100F00000160016801F008010591016841F01001DC
:100F1000016000681C4F00F010004FF480550590F0
:100F2000002229463846FFF7DAFADFF860804FF4EE
:100F30007046002231464046FFF7D1FA0095012560
:100F4000CDE90154694638460394FFF7E5F9009668
:100F5000CDE90154694640460394FFF7DDF90C489A
:100F60000095CDE9010469460A48FFF7D5F900224A
:100F700011460620FFF726FB0620FFF715FB06B0FB
:100F8000BDE8F0813038024000040240000C02400D
:100F900000001110001002400A4809494FF4007285
:100FA0000160002141608160C1600161C0E90512FA
:100FB0000162416281620A21C162FFF72DBE000019
:100FC0000030014014000020FEE770477047000029
:100FD0000148FFF7A3BD0000140000200168C968A4
:100FE000826B1180816B891C8163C18F491EC1870F
:100FF000C18F002909D101684A6822F040024A6085
:10100000C18E002901D100F049B870470168097B01
:10101000826B1170816B491C8163C18F491EC1872E
:10102000C18F002909D101684A6822F060024A6034
:10103000C18E002901D100F031B87047016B026800
:101040000988D160016B891C0163C18E491EC1866C
:10105000C18E002909D101684A6822F080024A60E5
:10106000C18F002901D100F019B87047016B0268E7
:1010700009781173016B491C0163C18E491EC18639
:10108000C18E002909D101684A6822F080024A60B5
:10109000C18F002901D100F001B8704738B504466E
:1010A000214845F6C0510068B0FBF1F06421484387
:1010B0000090FFF719FA02462068416821F02001EC
:1010C0004160009888B1401E0090206880688007C9
:1010D000F7D56421204600F085F818B1606D40F026
:1010E00020006065A06828B108E0606D40F0200035
:1010F0006065EEE72068C16880680090616D01203E
:1011000029B184F851002046FFF706FD38BD94F858
:10111000511084F851000429204602D0FFF7B6FE92
:1011200038BDFFF747FE38BD1000002038B5044633
:101130000068416821F060014160FFF7D5F902467F
:101140006421204600F020F818B1606D40F02000C6
:101150006065A06818B92068C168806800900120A7
:1011600084F85100606D0028204602D0FFF7D4FCBF
:1011700038BDFFF71FFE38BD10B5806B0021C18759
:10118000C186FFF7C9FC10BDF8B5044640684FF4AE
:101190008273984221D1A0684FF48065B0F5004F6A
:1011A00001D0A8420AD12068066826F040060660F1
:1011B0006068984211D1A068A8420ED000920B46F8
:1011C00000228021204600F059F8002804D0606DEC
:1011D00040F0200060650320F8BD00920B4600221D
:1011E0000121EFE738B504461248134B0068B0FB05
:1011F000F3F04FF47A73584300906068B0F5827F43
:101200000DD10B46009200228021204600F036F8D6
:1012100070B1606D40F020006065032038BD00981B
:1012200030B1401E009020688068C0430006F6D5AB
:10123000002038BD1000002000366E010168C9682A
:10124000826B1180816B891C8163C18F491EC187AC
:10125000C18F002901D1FFF769BF70470168097B81
:10126000826B1170816B491C8163C18F491EC187DC
:10127000C18F002901D1FFF759BF70472DE9F04117
:101280001D4617460E460446DDF8188008E0681C27
:1012900006D0FFF729F9A0EB0800A8420BD255B100
:1012A0002068806836EA000030D00020B842EED1D5
:1012B0000020BDE8F0812068416821F0E001416034
:1012C0006068B0F5827F0BD1A068B0F5004F02D006
:1012D000B0F5806F04D12068016821F04001016001
:1012E000A06AB0F5005F09D12068016821F40051BF
:1012F00001602068016841F400510160012084F818
:101300005100002084F850000320D2E70120CDE7EF
:101310007047FFF7EFB8000010B592B03021684673
:10132000FEF786FF14210CA8FEF782FF184801681B
:1013300041F080510160006800F080501190154824
:10134000016841F4804101600068022400F480409B
:10135000119001200090000401908001CDE9064029
:1013600008AA0420502182E813000B906846FFF77A
:1013700025FA0F20CDE90C0480200E9040010F903B
:10138000109001210CA8FFF74FF912B010BD00001A
:1013900040380240007000400548016841F4700187
:1013A000016003494FF00060803908607047000019
:1013B00088ED00E0FEE70907090E002804DB00F1D4
:1013C000E02080F80014704700F00F0000F1E020EA
:1013D00080F8141D704702E008C8121F08C1002AD7
:1013E000FAD170477047002001E001C1121F002AA6
:1013F000FBD17047FFF786F8FFF78EFFFFF75CFD24
:10140000FFF7CAFD012217491748FFF781FC154E67
:10141000164CB61EB51C6F1E4FF480484FF4005991
:1014200028783178884209D1002241462046FFF7CA
:1014300056F80520FEF750FF49460BE03978884200
:10144000EED1002249462046FFF749F80520FEF775
:1014500043FF41462046FFF73BF86420FEF73CFF80
:10146000DEE700000200002014000020000C024013
:101470000000000000000000010203040607080944
:10148000A01400080000002014000000D61300087B
:10149000B4140008140000205C040000E6130008E7
:1014A000010000000100000010000000000000002A
:0414B0000024F40020
:040000050800018965
:00000001FF
