:020000040800F2
:10000000E80500209D0100088F120008A5110008D6
:100010008D120008190300085D1900080000000097
:10002000000000000000000000000000E5120008D1
:10003000AD0300080000000091120008D51400086C
:10004000B7010008B7010008B7010008B7010008B0
:10005000B7010008B7010008B7010008B7010008A0
:10006000B7010008B7010008B7010008B701000890
:10007000B7010008B7010008B7010008B701000880
:10008000B7010008B7010008B7010008B701000870
:10009000B7010008B7010008B7010008B701000860
:1000A000B7010008B7010008B7010008B701000850
:1000B000B7010008B7010008B7010008B701000840
:1000C000B7010008B7010008B7010008B701000830
:1000D000B7010008C9170008D5170008B7010008C4
:1000E000B7010008B7010008B7010008B701000810
:1000F000B7010008B7010008B7010008B701000800
:10010000B7010008B7010008B7010008B7010008EF
:10011000B7010008B7010008B7010008B7010008DF
:10012000B7010008B7010008B7010008B7010008CF
:10013000B7010008B7010008B7010008B7010008BF
:10014000B7010008B7010008B7010008B7010008AF
:10015000B7010008B7010008B7010008B70100089F
:10016000B7010008B7010008B7010008B70100088F
:10017000B7010008B7010008B7010008000000003F
:10018000B7010008B7010008DFF80CD000F0B2F8A2
:1001900000480047311C0008E80500200648804759
:1001A00006480047FEE7FEE7FEE7FEE7FEE7FEE75C
:1001B000FEE7FEE7FEE7FEE75D150008890100089F
:1001C0002DE9F05F0546002092469B46884606468C
:1001D000814640241BE0284641464746224600F01F
:1001E00078F853465A46C01A914110D31146184622
:1001F000224600F05FF82D1A67EB01084F462246B1
:100200000120002100F056F817EB00094E41201E96
:10021000A4F10104DFDC484631462A464346BDE8E6
:10022000F09FD2B201E000F8012B491EFBD27047CB
:100230000022F6E710B513460A4604461946FFF7B2
:10024000F0FF204610BD421E12F8013F002BFBD1EB
:1002500011F8013B02F8013B002BF9D17047421C19
:1002600010F8011B0029FBD1801A704710B500223D
:1002700000E0521C835C8C5CA34201D1002BF8D1BE
:10028000D8B2E1B2401A10BD30B50B46014600208D
:100290002022012409E021FA02F59D4205D303FA48
:1002A00002F5491B04FA02F52844151EA2F10102C9
:1002B000F1DC30BD202A04DB203A00FA02F10020F4
:1002C00070479140C2F1200320FA03F31943904094
:1002D0007047202A04DB203A21FA02F000217047FF
:1002E00021FA02F3D040C2F120029140084319469E
:1002F00070470000064C074D06E0E06840F001033F
:1003000094E8070098471034AC42F6D3FFF740FF5B
:100310000021000820210008FEE700002DE9F04739
:100320009246884607460024FFF799FF06460025B7
:10033000504600F039FF0028FAD0DFF86C905046A4
:1003400001F098FA395D884221D0D9F800104A6C42
:100350008A5C08F80520D9F80000416C491C01F0BE
:100360003F0141646D1C504600F01EFF0028FAD08A
:10037000E5E75046641C01F099FA08F805006D1C89
:10038000B4420ED0504600F00FFF0028FAD050467D
:1003900001F070FA395D8842EBD0B44201D00024FC
:1003A000C6E70120BDE8F08710000020704700007C
:1003B000F0B595B00E46074600F06CFF4B494CA0D7
:1003C00001F094FA4D494EA001F090FA00244FF448
:1003D0007A754A494DA001F089FA284600F07EF965
:1003E000641C052CF5DB414949A001F07FFA3F4927
:1003F00049A001F0B5FA0028F9D0404949A001F020
:1004000075FA3A494AA001F071FA38494CA001F056
:10041000A7FA0028F9D039494FA001F067FA374907
:1004200051A001F063FA33463A4658A1684601F0FC
:10043000E9FA2E49684601F059FA2C4959A001F011
:100440008FFA0028F9D03A465BA1684601F0DAFA43
:100450002A49684601F04AFA24495CA001F046FAAC
:1004600022495DA001F07CFA0028F9D01F4A5E49BC
:100470005CA0FFF753FF0028F8D01C4934A001F01E
:100480006FFA0028F9D05848FFF7E9FE564A0021D4
:10049000104400F8011C55A1684601F0B3FA174951
:1004A000684601F023FA114954A001F01FFA0F49E0
:1004B00056A001F055FA0028F9D0104959A001F0D2
:1004C00015FA0A495BA001F011FA084920A001F0D1
:1004D00047FA0028F9D009495BA001F007FA07495B
:1004E0005EA001F003FA15B0F0BD00006401002029
:1004F00041542B5253540D0A00000000A401002067
:10050000524553455454494E472E00002E000000DA
:1005100041540D0A0000000041540D0D0A0D0A4F10
:100520004B0D0A0041542D2D2D2D3E4F4B0A0A0034
:1005300041542B43574D4F44453D310D0A000000B7
:1005400041542B43574D4F44453D310D0D0A0D0A83
:100550004F4B0D0A000000004357204D4F44452DDE
:100560002D2D2D3E310A0A00636F6E6E656374692E
:100570006E672E2E2E20746F207468652070726F47
:1005800076696465642041500A00000041542B43A1
:10059000574A41503D222573222C222573220D0AF1
:1005A000000000005749464920474F542049500D4C
:1005B0000A0D0A4F4B0D0A00436F6E6E656374653A
:1005C0006420746F2C222573220A0A0041542B43A5
:1005D000494653520D0A000043494653523A535478
:1005E0004149502C22000000300000204950204199
:1005F0004444523A2025730A0A00000041542B4318
:1006000049504D55583D310D0A00000041542B43CF
:1006100049504D55583D310D0D0A0D0A4F4B0D0AED
:10062000000000004349504D55582D2D2D2D3E4FB3
:100630004B0A0A0041542B434950534552564552E8
:100640003D312C38300D0A00434950534552564530
:10065000522D2D2D2D3E4F4B0A0A00004E6F772054
:10066000436F6E6E65637420746F207468652049F3
:1006700050204144524553530A0A00002DE9F041ED
:100680001F4616460D4604463946204601F068F9D5
:100690000128F9D1002409E0384600F085FD002842
:1006A000FAD0384601F002F93055641CAC42F3DB55
:1006B0000120BDE8F08190F83510022903D0802197
:1006C000416501207047052180F8351000680168F8
:1006D00021F00101016000207047000070B5044660
:1006E00000F0F0F80546601C02D00448007804448D
:1006F00000F0E8F8401BA042FAD370BD20000020B3
:100700002DE9F84F00224FF0010803254FF00F0E9E
:100710000B6808FA02F42340A3426ED14E68012E02
:1007200005D0022E03D0112E01D0122E12D18668D0
:100730004FEA420C05FA0CF7BE43CF6807FA0CF7F4
:10074000374387604668A6430C79C4F3001494408D
:1007500034434460C668570005FA07FC8C6826EAF3
:100760000C06BC403443C4604C68022C01D0122CEF
:1007700013D1D40800EB8404A346D4F82090540786
:100780004FEAD46A0EFA0AF629EA06090E6906FA51
:100790000AF646EA0906CBF8206006680C7926EAD4
:1007A0000C0604F00304BC40344304604C68E400CD
:1007B00065D5364C266846F480462660246822F0CB
:1007C000030604F480440094314C3444A446D4F825
:1007D00008489607370F0EFA07F6B4432D4EB0427D
:1007E00001D1002624E02C4EB04201D101261FE0A9
:1007F0002A4EB04202D102261AE040E0284EB04212
:1008000001D1032614E0274EB04201D104260FE0A7
:10081000254EB04201D105260AE0244EB04201D156
:10082000062605E0224EB04201D1072600E0082648
:10083000BE402643CCF808681E4E34684F689C437F
:10084000FF0300D51C4334601A4C241D26684F68F2
:100850009E43BF0300D51E432660164E08363468FB
:100860004F689C43FF0200D51C433460114E0C3688
:1008700034684F689C43BF0200D51C433460521C4F
:10088000102AFFF445AFBDE8F88F0000443802405D
:100890000030014000000240000402400008024015
:1008A000000C0240001002400014024000180240F8
:1008B000001C0240003C01400AB1816170470904FC
:1008C000FBE700000148806870470000200000201E
:1008D000024881680278114481607047200000203E
:1008E0000B4810B5016841F400710160016841F4E2
:1008F00080610160016841F480710160032000F0B3
:100900006FF8002000F006F800F024F8002010BD79
:10091000003C024070B50D4D04464FF47A712878C2
:10092000B1FBF0F00A490968B1FBF0F000F002FBFE
:1009300048B9102C07D200222146501E00F030F892
:1009400000206C6070BD012070BD00002000002000
:100950002C0000200A4808B5016841F4804101607C
:10096000006800F4804000900548001F016841F0D5
:1009700080510160006800F08050009008BD0000C8
:1009800044380240002809DB00F01F020121914099
:100990004009800000F1E020C0F80011704700001D
:1009A000F0B40E4B1B680C46C3F30223C3F10705DA
:1009B000042D00D90425191D072901D2002300E0C8
:1009C000DB1E012606FA05F1491E214099409E4092
:1009D000761E16403143F0BC01F028B80CED00E063
:1009E000064900F0070208684FF6FF03184040EA86
:1009F0000220034A10430860704700000CED00E03D
:100A00000000FA052DE9F0470E46050065D0DFF835
:100A10001481D8F80000F7B200F00F00B04207D2FE
:100A200088F80070D8F8000000F00F00B04254D1F0
:100A300028683D4C810712D5400703D5206840F453
:100A4000E05020602878000703D5206840F460401B
:100A500020602068A96820F0F00008432060287812
:100A6000C0072DD0304968680839012812D0022803
:100A700013D0032811D00968890700292DDA2168CD
:100A800021F0030101432160FFF71CFF814641F281
:100A9000883A0EE009688903EFE709688901ECE705
:100AA000FFF710FFA0EB0901514502D90320BDE873
:100AB000F0872068696800F00C00B0EB810FEFD17F
:100AC000D8F80010404601F00F01B14207D9077075
:100AD000006800F00F00B04201D00120E7E728785D
:100AE000400705D52068E96820F4E05008432060FD
:100AF0002878000706D52068296920F4604040EA7C
:100B0000C100206000F038F82168084AC1F30311E1
:100B1000515CC8400649086006480068FFF7FAFEC5
:100B20000020C4E7003C024008380240E21C0008F4
:100B30002C000020240000200448054900680968B2
:100B4000044AC1F38221515CC84070472C00002048
:100B500008380240F21C000804480549006809688A
:100B6000044AC1F34231515CC84070472C00002058
:100B700008380240F21C0008154810B5006810F053
:100B80000C02144813D04110042A0FD0082A0ED1A9
:100B90000F4C241F2268236802F03F025B0207D536
:100BA0002068C0F38810A0FB010106E0084610BDD4
:100BB0002168C1F38811A1FB00010023FFF700FBAE
:100BC0002168C1F30141491C4900B0FBF1F010BD9F
:100BD000083802400024F4002DE9F84F04006ED0DC
:100BE0002078DFF83C93C007A9F104054AD009F149
:100BF00004000168C1F38101012908D00068C0F335
:100C0000810002280AD1D9F80000400206D52868E0
:100C1000800337D560680028E1D033E06068B0F524
:100C2000803F10D0B0F5A02F286810D020F480307D
:100C30002860286820F4802028606068A8B1FFF749
:100C400041FE06460DE0286840F48030F4E740F4A9
:100C500080202860F7E700BFFFF734FE801B642880
:100C600073D828688003F7D50CE0FFF72BFE064603
:100C700005E000BFFFF726FE801B6428F0D8286837
:100C80008003F7D42078DFF89C8280074FF0000AB9
:100C90003ED5A348001D016811F00C0F08D0006874
:100CA000C0F3810002280BD1D9F80000400207D41C
:100CB0002868800716D5E068012800D112E02BE1F2
:100CC000E068B8B10120C8F80000FFF7FBFD064658
:100CD00005E000BFFFF7F6FD801B0228C0D828689A
:100CE0008007F7D52868216920F0F80040EAC100A4
:100CF00028600DE0C8F800A0FFF7E4FD064604E018
:100D0000FFF7E0FD801B02281FD828688007F7D472
:100D10002078000722D5824E83486169703671B110
:100D200001210160FFF7CEFD074604E0FFF7CAFD91
:100D3000C01B022809D830688007F7D50EE0C0F83C
:100D400000A0FFF7BFFD074605E082E0FFF7BAFD10
:100D5000C01B02287DD830688007F7D42078400770
:100D600068D5DFF8BCB100270BF13C0BDBF80000C5
:100D7000C0000BD4DBF8001041F08051CBF800101C
:100D8000DBF80000012700F080500090674E3068CB
:100D9000C00510D4306840F480703060FFF792FDD9
:100DA000009005E0FFF78EFD0099401A022850D808
:100DB0003068C005F6D55A4EA0686C3601280FD0B1
:100DC0000528306810D020F001003060306820F035
:100DD00004003060A068B8B1FFF774FD00900FE028
:100DE000306840F00100F4E740F004003060F7E7BD
:100DF000FFF768FD0099411A41F28830814266D8B8
:100E000030688007F4D50EE0FFF75CFD009007E046
:100E1000FFF758FD0099411A41F28830814256D8B7
:100E200030688007F4D42FB1DBF8001021F0805136
:100E3000CBF80010A069C8B33949091D0968C1F38E
:100E4000810102294AD00228504607D0C8F8600024
:100E500000E03CE0FFF736FD04463BE04746C8F8BB
:100E60006000FFF72FFD064605E000BFFFF72AFDF3
:100E7000801B02282BD828688001F7D4D4E9070109
:100E80000843A16A2A4A490802EB0141626A41EA21
:100E90008211084394F82C1040EA0161C9F800104F
:100EA00001203866FFF70EFD044606E036E000BF7D
:100EB000FFF708FD001B022809D828688001F7D534
:100EC0002CE000BFFFF7FEFC001B022802D9032024
:100ED000BDE8F88F28688001F4D41FE00128F7D01E
:100EE000D9F80000E26900F48001914214D1226A2D
:100EF00000F03F0191420FD147F6C071626A014094
:100F0000914209D1A26A00F44031914204D1E16AD0
:100F100000F07060884201D00120D9E70020D7E7B7
:100F20000438024000004742800E474200700040F3
:100F30000000FFFF10B5401EB0F1807F01D30120FB
:100F400010BD4FF0E02460610F21601700F06EFDCE
:100F50000020A06107202061002010BD7047000024
:100F600070B5026804461068D168536910F00F0F1D
:100F700052D003F0010501F490762E435FD0C207F2
:100F800005D0CA0503D5E26B42F00102E2634207D5
:100F900005D5DA0703D0E26B42F00202E263820772
:100FA00005D5DA0703D0E26B42F00402E2630207E0
:100FB00007D501F020022A4303D0E26B42F0080279
:100FC000E263E26B002A33D0800604D5880602D59E
:100FD000204600F0E7FA20684069E16BC0F380101A
:100FE000090700D428B3204600F0CEFA20684169F2
:100FF00049061AD5416921F040014161606BA0B1F9
:101000001B490165606BFFF756FB002810D0606B31
:10101000016DBDE870400847830610D58B060ED5DC
:101020002046BDE8704000F0BDBA2046FFF796FFAD
:1010300070BD2046FFF792FF0020E06370BD0306FD
:1010400006D50B0604D52046BDE8704000F08ABBEB
:101050004006F3D54806F1D5D168204621F040017D
:10106000D160202184F8391000F09BF870BD000099
:101070007915000870B5040004D094F839000025F3
:1010800010B106E0012070BD84F83850204600F011
:1010900023F8242084F839002068C16821F4005125
:1010A000C160204600F0CAFA2068016921F490412D
:1010B00001612068416921F02A0141612068C1680D
:1010C00041F40051C160E563202084F8390084F8C0
:1010D0003A00002070BD0000F0B587B0044614212E
:1010E0006846FFF7A5F82A4F236800222949022401
:1010F000032507262848BB4221D1264B14331F68FD
:1011000047F010071F601B6803F0100305930B687E
:1011100043F001030B60096802AB01F00101059186
:101120006902CDE9001483E864006946FFF7E8FA34
:10113000002211462520FFF733FC252023E0174F1E
:10114000BB4222D1134B10331F6847F400371F6096
:101150001B6803F4003305930B6843F001030B6035
:10116000096802AB01F0010105910C21CDE90014E1
:1011700083E864006946FFF7C3FA0022114626207F
:10118000FFF70EFC2620FFF7FDFB07B0F0BD0000C7
:10119000001001403038024000000240004400408E
:1011A00070477047FEE70000094A0A49904201D1A2
:1011B000086803E0084A904206D18868016C406CD8
:1011C000081A00F03F0070474FF0FF3070470000F2
:1011D0006401002010000020A401002070B50C461E
:1011E0000546FFF73CF806462046FFF738F8002092
:1011F0000246295C00E0521CA35C9942FBD101E04D
:10120000401C521C295CA35C9942F9D0B04201D128
:10121000012070BD4FF0FF3070BD000070B586B08A
:1012200014216846FFF704F816480024016841F0CD
:1012300080010160016801F080010591016841F0C1
:1012400001010160016801F001010591016841F0AF
:101250000801016000680C4E00F008004FF4704572
:101260000590002229463046FFF726FB0120009515
:10127000CDE90104694630460394FFF741FA06B010
:1012800070BD000030380240000C0240FEE770479D
:101290007047000010480F490160483141604831F3
:1012A00081604831C1600D4801684A6942F001021D
:1012B0004A610B490A68536943F0010353610068AE
:1012C000C26842F02002C2600868C16841F0200193
:1012D000C16070474400002010000020640100201D
:1012E000A40100207047000070B5ADF5806D0D467B
:1012F00006464FF480616846FEF79AFF11A130461A
:10130000FEF7B4FF114CB0B111A13046FEF7AEFFAD
:101310006846216800F076FBA1686846FEF793FFF7
:101320006846E168FEF78FFF2946684600F014F82A
:101330000DF5806D70BD6846216800F063FB616843
:10134000EBE700002F6C65646F6E0000000000206A
:101350002F6C65646F66660030B595B00C46054627
:10136000FEF77DFF0346224614A1684600F04AFBC3
:101370001749684600F0BAFA154916A000F0F0FACD
:101380000028F9D01249284600F0B0FA104912A0FE
:1013900000F0E6FA0028F9D011A1684600F032FB0F
:1013A0000B49684600F0A2FA094911A000F0D8FAEA
:1013B0000028F9D015B0012030BD000041542B4366
:1013C000495053454E443D25642C25640D0A0000C8
:1013D000640100203E00000053454E44204F4B0066
:1013E00041542B434950434C4F53453D350D0A0062
:1013F0004F4B0D0A0000000030B591B04021684607
:10140000FEF716FF234B10AA012123A0FFF736F9A0
:101410000028F7D09DF8400030388DF840001D4A74
:1014200069461FA0FEF77AFF0028F8D069461FA082
:10143000FFF7D4FE1F4D4FF47044012815D06946C4
:101440001DA0FFF7CBFE012818D069461CA0FFF7AE
:10145000C5FE01281CD000224FF440412846FFF76A
:101460002BFA9DF840101AA010E0012221462846D0
:10147000FFF722FA9DF840100CA007E00022214659
:101480002846FFF719FA9DF840100BA0FFF72CFF34
:1014900011B030BD640100202B4950442C000000E5
:1014A00020485454502F312E310000002F6C6564B9
:1014B0006F6E0000000C02402F6C65646F66660062
:1014C0002F66617669636F6E2E69636F000000009E
:1014D0002F200000FFF7FCB930B593B030216846EB
:1014E000FEF7A6FE14210CA8FEF7A2FE194800255F
:1014F000016841F080510160006800F08050119057
:101500001548016841F4804101600068022400F43C
:1015100080401190012003901020049000940694C4
:101520000820CDE90750A820CDE9090404200B903C
:101530006846FFF751FB0CA90F2081E831004FF4FA
:10154000A0500F90E002109005210CA8FFF75AFA66
:1015500013B030BD403802400070004005480168BB
:1015600041F47001016003494FF000608039086068
:101570007047000088ED00E010B5806B0021C18548
:10158000C184FFF7EBFC10BD0168CA6822F49072B9
:10159000CA6001684A6922F001024A61202180F88C
:1015A0003A10704710B590F83A10222901D0022065
:1015B00010BD8168B1F5805F11D001690029016813
:1015C0001FD0496801F07F03816A4A1C82620B7058
:1015D000C18D491E0904090CC18518D02BE0026990
:1015E000816A002A0268526805D0D2B20A80816AF4
:1015F000491C8162ECE7C2F308020A80816A891CF7
:10160000F7E74A68816A4B1C83620A70E0E7016869
:10161000CA6822F02002CA600168CA6822F4807297
:10162000CA6001684A6922F001024A61202180F8FB
:101630003A10FFF7B5FD002010BD00002DE9F04184
:10164000044600680169E26821F4405111430161D8
:101650002169A068E2690843616911430843216870
:10166000CA6849F20C639A430243CA602068416920
:10167000A26921F4407111434161E0691927642591
:101680003226B0F5004F354A354920684FF0000842
:1016900006D0884201D0904236D1FFF75DFA35E09E
:1016A000884201D0904202D1FFF756FA01E0FFF7DD
:1016B00043FA61684A18A0FB070148EB0803FEF7EC
:1016C0007FFD0146B0FBF5F00201B1FBF5F06FF0D4
:1016D0001803584301EB800006EBC000B0FBF5F0A7
:1016E00000F0F80002EB4002B1FBF5F0584301EBCB
:1016F000800006EBC000B0FBF5F000F007002168A9
:1017000010448860BDE8F081FFF716FA61688B0F1E
:101710008A00A0FB0701FEF753FD0146B0FBF5F080
:101720006FF01802504301EB800006EB0010B0FB95
:10173000F5F000F0F002B1FBF5F002EB0012B1FBA6
:10174000F5F06FF01803584301EB800006EB001032
:10175000B0FBF5F000F00F00D1E7000000140140ED
:101760000010014090F83910212901D00220704763
:101770008168B1F5805F016A0BD04A1C0262026881
:1017800009785160C18C491E0904090CC1840ED02E
:1017900017E009880268C1F3080151600169002956
:1017A000016A02D0491C0162ECE7891CFBE7016871
:1017B000CA6822F08002CA600068C16841F0400136
:1017C000C1600020704700000148FFF7C9BB00005E
:1017D0006401002010B5044800F008F8BDE810408E
:1017E0000148FFF7BDBB0000A401002070B40168F0
:1017F0000B68CA681B4C1C4D9E0610D596060ED56C
:101800000A684968A042CAB2184901D1096802E0D1
:10181000A84210D1896870BC104600F057BA1B0668
:1018200009D5120607D5A04212D1114A14E0C868A2
:1018300020F08000C86070BC7047516C536C515CE4
:101840005B1C03F03F035364006802684160F2E7E9
:10185000A842F0D1064A9032136C546CA342ECD1EA
:10186000E5E7000064010020A40100201000002032
:101870008C0000200A4B0B494FF0FF32984201D1F7
:10188000086803E0084B984207D18868016C436CF4
:10189000994202D0416C405C70471046704700008E
:1018A0006401002010000020A40100200C4B0D4911
:1018B0004FF0FF32984201D1096803E00A4B984289
:1018C0000CD18968086C4B6C984207D0486C4A6C04
:1018D000085C521C02F03F024A6470471046704791
:1018E0006401002010000020A401002030B50D4646
:1018F000044603E02946641C00F004F82078002820
:10190000F8D130BD10B5002814DB114BC2B211481C
:10191000994210D14068016C491C01F03F01446CB0
:101920008C42FCD0046C025501641868C16841F017
:101930008001C16010BD084B9942FBD1C068016CA9
:10194000491C01F03F01446C8C42FCD0EAE70000E6
:101950006401002010000020A4010020FEE7000028
:101960002DE9F0410F4605460024FEF778FCDFF82C
:10197000888006463846FFF717FC0028FAD01F4833
:10198000874208D00EE000BFD8F80000416C491C27
:1019900001F03F0141643846FFF76CFF295D884242
:1019A000F2D11CE01648874207D018E0D8F80800AA
:1019B000416C491C01F03F0141643846FFF75AFF72
:1019C000295D8842F2D10AE03846641CFFF76EFFB9
:1019D000B4420ED03846FFF7E7FB0028FAD038466D
:1019E000FFF748FF295D8842EED0B44201D00024C1
:1019F000C0E70120BDE8F081100000206401002054
:101A0000A40100200FB4084B10B504A902AA039842
:101A100000F02CF8044602A9002000F003F920464B
:101A200010BC5DF814FB0000251C00080907090E16
:101A3000002804DB00F1E02080F80014704700F07B
:101A40000F0000F1E02080F8141D704702E008C884
:101A5000121F08C1002AFAD170477047002001E028
:101A600001C1121F002AFBD1704700002DE9FF4F72
:101A70008BB09A460F460546002606E025280BD077
:101A800052460D9990476D1C761C28780028F5D198
:101A90000FB03046BDE8F08F0024A0460122604917
:101AA00000E0044315F8013F203B02FA03F008422E
:101AB000F7D128782E2817D115F8010F44F0040427
:101AC0002A280ED06FF02F022878A0F130010929C2
:101AD0000AD808EB880102EB410100EB01086D1CFC
:101AE000F2E757F8048B6D1C287869283ED006DC95
:101AF0000028CDD063280BD0642804D136E07328A9
:101B000010D075284BD052460D999047761C85E031
:101B100017F8040B8DF8000000208DF80100E9464D
:101B2000012003E057F8049B4FF0FF3061074FF0AE
:101B3000000401D40AE0641C44450DDA8442FADB57
:101B400019F804100029F6D106E0641C8442FCDB7D
:101B500019F804100029F8D1264404E019F8010B03
:101B600052460D999047641EF8D257E001CF4FF0CE
:101B70000A0B002802DA40422D2102E0210504D59B
:101B80002B218DF82410012103E0E10705D020214D
:101B9000F7E70DF1200908910CE00021F9E701CFEA
:101BA0004FF00A0BF9E75946FEF76EFB01F13002E0
:101BB00009F8012D0028F6D1ADEB090000F1200B4A
:101BC000600701D44FF00108D84502DDA8EB0B00F7
:101BD00000E000208046002406E009A85246005D8F
:101BE0000D999047641C761C08988442F5DB04E04C
:101BF000302052460D999047761CB8F10001A8F1AB
:101C00000108F5DC05E019F8010B52460D999047E3
:101C1000761CBBF10001ABF1010BF4DC6D1C34E769
:101C2000092801000A68531C0B60107070470000FF
:101C3000FEF756FEFFF750FCFFF7F0FA1B481A4973
:101C40004FF4E13500240160C0E901540C26C46062
:101C5000C0E904468461C461FFF70CFA13481449D3
:101C600040300160C0E90154C460C0E904468461A9
:101C7000C461FFF7FFF90FA111A0FEF799FB124D08
:101C80004FF480544FF4FA76012221462846FEF79D
:101C900013FE3046FEF722FD002221462846FEF7BD
:101CA0000BFEFFF7A9FBEFE70010014064010020E5
:101CB00000440040656C76656461353400000000C6
:101CC00042554C4154000000000C02400A6C4B6C21
:101CD000521C02F03F02934202D00B6CC8540A64BB
:101CE0007047000000000000000001020304060726
:101CF0000809000000000102030400003C21444FD9
:101D000043545950452068746D6C3E203C68746D96
:101D10006C3E0A3C686561643E3C6D657461206E92
:101D2000616D653D2276696577706F72742209096D
:101D3000636F6E74656E743D2277696474683D6488
:101D400065766963652D77696474682C20696E69AE
:101D50007469616C2D7363616C653D312E302C208C
:101D6000757365722D7363616C61626C653D6E6F36
:101D7000223E0A09093C7469746C653E4C45442056
:101D8000434F4E54524F4C3C2F7469746C653E0A5D
:101D90003C7374796C653E68746D6C207B20666F53
:101DA0006E742D66616D696C793A2048656C766554
:101DB000746963613B200909646973706C61793AE5
:101DC00020696E6C696E652D626C6F636B3B206D74
:101DD000617267696E3A20307078206175746F3B6C
:101DE00020746578742D616C69676E3A2063656E46
:101DF0007465723B7D0A0909626F64797B6D61725B
:101E000067696E2D746F703A20353070783B7D2095
:101E10006831207B636F6C6F723A20233434343422
:101E200034343B6D617267696E3A203530707820CA
:101E30006175746F20333070783B7D0909683320F9
:101E40007B636F6C6F723A20233434343434343B08
:101E50006D617267696E2D626F74746F6D3A2035B3
:101E60003070783B7D0A2E627574746F6E207B64CF
:101E70006973706C61793A20626C6F636B3B09091E
:101E800077696474683A20383070783B6261636BBC
:101E900067726F756E642D636F6C6F723A202331B9
:101EA00061626339633B626F726465723A206E6F80
:101EB0006E653B636F6C6F723A2077686974653B3F
:101EC000090970616464696E673A20313370782063
:101ED000333070783B746578742D6465636F72611C
:101EE00074696F6E3A206E6F6E653B666F6E742D0F
:101EF00073697A653A20323570783B09096D6172F1
:101F000067696E3A20307078206175746F203335C0
:101F100070783B637572736F723A20706F696E747C
:101F200065723B626F726465722D7261646975736C
:101F30003A203470783B7D0A09092E627574746FFB
:101F40006E2D6F6E207B6261636B67726F756E645E
:101F50002D636F6C6F723A20233161626339633B8A
:101F60007D0A2E627574746F6E2D6F6E3A616374A4
:101F70006976652009097B6261636B67726F756EB4
:101F8000642D636F6C6F723A2023313661303835BF
:101F90003B7D0A2E627574746F6E2D6F6666207BB2
:101FA0006261636B67726F756E642D636F6C6F72C5
:101FB0003A20233334343935653B7D0A09092E62D2
:101FC0007574746F6E2D6F66663A616374697665B9
:101FD000207B6261636B67726F756E642D636F6CDB
:101FE0006F723A20233263336535303B7D0A7020AF
:101FF0007B666F6E742D73697A653A203134707820
:102000003B636F6C6F723A20233838383B6D6172D6
:1020100067696E2D626F74746F6D3A20313070781D
:102020003B7D0A09093C2F7374796C653E0A3C2F8D
:10203000686561643E0A3C626F64793E0A3C6831BF
:102040003E45535038323636204C454420434F4E9F
:1020500054524F4C3C2F68313E0A00003C703E4CBD
:102060004544205374617475733A204F4E3C2F7071
:102070003E3C6120636C6173733D22627574746FC2
:102080006E20627574746F6E2D6F666622206872A2
:1020900065663D222F6C65646F6666223E4F46463C
:1020A0003C2F613E000000003C703E4C4544312016
:1020B0005374617475733A204F46463C2F703E3C12
:1020C0006120636C6173733D22627574746F6E205E
:1020D000627574746F6E2D6F6E2220687265663D36
:1020E000222F6C65646F6E223E4F4E3C2F613E0086
:1020F0003C2F626F64793E3C2F68746D6C3E00002B
:102100002021000800000020300000004C1A0008C8
:102110005021000830000020B80500005C1A0008BB
:10212000FC1C00085C200008A8200008F020000823
:10213000000000000000000000000000000000009F
:102140000100000010000000000000000024F40066
:040000050800018965
:00000001FF
