:020000040800F2
:10000000D00400209D01000873190008471600085D
:1000100071190008230700085B1B0008000000009E
:100020000000000000000000000000007719000838
:10003000250700080000000075190008791900085C
:10004000B7010008B7010008B7010008B7010008B0
:10005000B7010008B7010008B7010008B7010008A0
:10006000B7010008B7010008B7010008B701000890
:10007000B7010008B7010008B7010008B701000880
:10008000B7010008B7010008B7010008B701000870
:10009000B7010008B7010008B7010008B701000860
:1000A000B7010008B7010008B7010008B701000850
:1000B0001D1A0008B7010008B7010008B7010008C1
:1000C000B7010008B7010008B7010008B701000830
:1000D000B7010008B7010008B7010008B701000820
:1000E000B7010008B7010008B7010008B701000810
:1000F000B7010008B7010008B7010008B701000800
:10010000B7010008B7010008B7010008B7010008EF
:10011000B7010008B7010008B7010008B7010008DF
:10012000B7010008B7010008B7010008B7010008CF
:10013000B7010008B7010008B7010008B7010008BF
:10014000B7010008B7010008B7010008B7010008AF
:10015000B7010008B7010008B7010008B70100089F
:10016000B7010008B7010008B7010008B70100088F
:10017000B7010008B7010008B7010008000000003F
:10018000B7010008B7010008DFF80CD000F048FA0A
:1001900000480047D5250008D004002006488047C5
:1001A00006480047FEE7FEE7FEE7FEE7FEE7FEE75C
:1001B000FEE7FEE7FEE7FEE7011A000889010008F6
:1001C0002DE9F05F0546002092469B46884606468C
:1001D000814640241BE0284641464746224600F01F
:1001E00057F853465A46C01A914110D31146184643
:1001F000224600F03EF82D1A67EB01084F462246D2
:100200000120002100F035F817EB00094E41201EB7
:10021000A4F10104DFDC484631462A464346BDE8E6
:10022000F09FD2B201E000F8012B491EFBD27047CB
:100230000022F6E710B513460A4604461946FFF7B2
:10024000F0FF204610BD30B50B46014600202022AD
:10025000012409E021FA02F59D4205D303FA02F5D3
:10026000491B04FA02F52844151EA2F10102F1DC33
:1002700030BD202A04DB203A00FA02F1002070474A
:100280009140C2F1200320FA03F3194390407047D4
:10029000202A04DB203A21FA02F00021704721FADB
:1002A00002F3D040C2F12002914008431946704742
:1002B0002DE9FE4F804681EA0300C00F0C460090F6
:1002C00021F0004123F00045B8EB0200A94105D21E
:1002D0004046214690461C460B46024623F000400D
:1002E000104347D0270DC7F30A00C3F30A51029009
:1002F000401A019040286BDAC3F3130040F4801BCE
:100300000098924620B10023D2EB030A63EB0B0B5B
:1003100001985946C0F140025046FFF7AAFF064631
:100320000D4650465946019A00F08CF910EB080032
:100330006141002487EA115284EAE7731A4340D0EE
:10034000009A62B3019A012A4FEA075215DC001B9A
:1003500061EB02014FF0004202EA0752CDE9004290
:10036000001C41F5801132462B4600F08CF903B099
:10037000BDE8F08F40462146F9E7001B61EB020122
:10038000001C41F5801300185B412018A2F50017EE
:1003900047EB030140EAD570B6196D4111E06D08D5
:1003A0004FEA360645EAC0754FEA0752001B61EB7B
:1003B0000201001C41F5801149084FEA3000001984
:1003C000514132462B4603B0BDE8F04F00F04CB926
:1003D0000098012240000023D0EB020263EBE0739F
:1003E000009821464FEAE074B8EB000061EB04018D
:1003F000E9E783F000435BE781F0004158E72DE92E
:10040000FE4F81EA030404F0004421F0004100940F
:100410004FF0000B23F0004350EA01045ED052EA93
:1004200003045BD0C3F30A54C1F30A552C44A4F26D
:10043000F3340194A0FB0254C1F3130141F4801181
:10044000C3F3130343F4801301FB024400FB034E88
:10045000840A970A44EA815447EA8357A4FB076851
:1004600002958D0A05FB07854FEA932C04FB0C547B
:100470002705029D4FEA065847EA1637B5EB0805EF
:100480006EEB070C870E920E47EA811742EA831241
:10049000A7FB0201B6EB0B0164EB00042B0D43EA52
:1004A0000C335E1844EB1C50DA465146E7FB020160
:1004B000C5F313044FEA0B3343EA14534FEA0432F3
:1004C000019C43EA0603A4F10C040294009CCDE9CC
:1004D00000B400F0D8F803B0BDE8F08F002001466A
:1004E000F9E72DE9F04D81EA030404F0004B21F017
:1004F000004514464FF0000A23F0004150EA05027F
:1005000020D054EA01021DD0C5F30A570246C5F3B4
:100510001303C1F31300C1F30A5640F4801543F4EA
:100520008013A7EB0608101BD64608F2FD3873EBC4
:10053000050002D308F1010801E092185B41B8F10F
:10054000000F03DA00200146BDE8F08D00204FF4D3
:100550008011064684460EE0171B73EB050705D392
:10056000121B63EB050306434CEA010C49084FEAF2
:10057000300092185B4150EA0107EDD152EA0300C6
:1005800012D082EA040083EA0501084305D0101B5B
:10059000AB4106D20122002306E000224FF00043C7
:1005A00002E06FF0010253101AEB06004CEB085109
:1005B00010EB0A0041EB0B01BDE8F04D00F054B820
:1005C000C1F30A52C1F3130140F2FF3341F4801129
:1005D0009A4202DA00200146704740F233439A42C1
:1005E000A2F2334202DC5242FFF752BEFFF741BE95
:1005F00030B5041E71F1000404DB4FF000444042AA
:1006000064EB0101141E73F1000405DB1C464FF07E
:100610000043524263EB0403994208BF904230BD4D
:10062000064C074D06E0E06840F0010394E807003F
:1006300098471034AC42F6D3FFF7AAFD20270008F4
:1006400040270008202A06DBCB17203A41FA02F0A7
:1006500043EAE07306E041FA02F3D040C2F120021F
:10066000914008431946704710B5141E73F10004F9
:1006700008DA401C41F1000192185B411A4301D194
:1006800020F0010010BD2DE9F04D92469B4611B1BE
:10069000B1FA81F202E0B0FA80F220329046FFF720
:1006A000E8FD04460F4640EA0A0041EA0B015346C2
:1006B0005A46084313D0114653EA010019D0C8F135
:1006C00040025046FFF7E4FD05460E4650465946A7
:1006D0004246FFF7CEFD084305D0012004E0204646
:1006E0003946BDE8F08D0020054346EAE0762C430C
:1006F00037430A986305E40AA0EB08000022FD0ACC
:1007000044EA47540A3002D500200146E9E70105D2
:1007100010196941DDE9084500196941BDE8F04D4E
:10072000A2E7FEE77047000070B5044600F0F6F857
:100730000546601C02D004480078044400F0EEF83E
:10074000401BA042FAD370BD280000202DE9F84FCD
:1007500000224FF0010803254FF00F0E0B6808FA36
:1007600002F42340A3426ED14E68012E05D0022E22
:1007700003D0112E01D0122E12D186684FEA420CFE
:1007800005FA0CF7BE43CF6807FA0CF737438760CA
:100790004668A6430C79C4F3001494403443446083
:1007A000C668570005FA07FC8C6826EA0C06BC40B0
:1007B0003443C4604C68022C01D0122C13D1D408ED
:1007C00000EB8404A346D4F8209054074FEAD46A7F
:1007D0000EFA0AF629EA06090E6906FA0AF646EA48
:1007E0000906CBF8206006680C7926EA0C0604F0AE
:1007F0000304BC40344304604C68E40065D5364CC7
:10080000266846F480462660246822F0030604F435
:1008100080440094314C3444A446D4F808489607E8
:10082000370F0EFA07F6B4432D4EB04201D1002621
:1008300024E02C4EB04201D101261FE02A4EB042E6
:1008400002D102261AE040E0284EB04201D1032630
:1008500014E0274EB04201D104260FE0254EB042ED
:1008600001D105260AE0244EB04201D1062605E05A
:10087000224EB04201D1072600E00826BE402643A2
:10088000CCF808681E4E34684F689C43FF0300D5BF
:100890001C4334601A4C241D26684F689E43BF03D6
:1008A00000D51E432660164E083634684F689C43B8
:1008B000FF0200D51C433460114E0C3634684F687B
:1008C0009C43BF0200D51C433460521C102AFFF425
:1008D00045AFBDE8F88F00004438024000300140C9
:1008E000000002400004024000080240000C0240E8
:1008F000001002400014024000180240001C024098
:10090000003C0140426931EA020200D109048161E0
:1009100070470AB1816170470904FBE701488068AC
:10092000704700002800002070B5040025D094F81E
:100930003D00002520B984F83C50204600F04EF9D7
:10094000242084F83D002068016821F00101016045
:100950002068016841F4004101602068016821F4C9
:100960000041016000F0A2FA4D4A6168914201D84D
:100970004C4900E04C49884201D2012070BD4B49EE
:100980002368B0FBF1F15E6826F03F060E435E601F
:100990006368934206D94FF4967359434FF47A73C0
:1009A000B1FBF3F12368491C1E6A26F03F06314370
:1009B00019626168914210D84900401EB0FBF1F203
:1009C000521CC2F30B02042A01D2042022E0B0FB25
:1009D000F1F0401CC0F30B001CE0A268F2B301EB85
:1009E000C10303EB0116431EB3FBF6F35B1C43F498
:1009F00080431B0549D092B301EBC10202EB011108
:100A0000401EB0FBF1F0401CC0F30B0040F48040EE
:100A100040F400402168CA694CF6FF739A431043C2
:100A2000C861D4E9071001432068026822F0C002BF
:100A300011430160D4E9030101432068826848F250
:100A4000FF339A4311438160D4E9050108432168CB
:100A5000CA6822F0FF021043C86001E00EE016E011
:100A60002068016841F0010101602564202084F8BC
:100A70003D00256384F83E50002070BD01EB410627
:100A8000431EB3FBF6F35B1CB3E70120C2E701EBA7
:100A90004101401EB0FBF1F0401CC0F30B00B7E772
:100AA000A086010080841E0000093D0040420F0026
:100AB0002DE9F84F1F4690468A460446DDF82890F7
:100AC000FFF72CFF054694F83D0020287FD119231D
:100AD000012240492046009500F042FE002876D1D0
:100AE00094F83C00012872D0012084F83C00206872
:100AF0000168C90703D1016841F001010160206864
:100B0000016821F400610160212084F83D0010207B
:100B100084F83E0000262664C4F824806785608D32
:100B200020852D48E0622B464A465146204600F07B
:100B3000A3FD90B9206841698069009036E02A469B
:100B40004946204600F08BFE50B1206C042804D1A9
:100B50002068016841F4007101600120BDE8F88F50
:100B6000606A216800780861606A401C6062618D7B
:100B7000491E6185218D491E89B2218522685369EC
:100B8000DB435B070BD451B100781061606A401CF5
:100B90006062608D401E6085208D401E20852A4643
:100BA0004946204600F0B6FD0028CED1208D002811
:100BB000C5D154F83D0B016841F40071016020205B
:100BC00004F81E09E67766770020C7E7FFE70220F2
:100BD000C4E70000020010000000FFFF10B586B05F
:100BE000044614216846FFF723FB13492068884216
:100BF00020D11248016841F0020101600068694695
:100C000000F002000590C020009012200190012009
:100C1000029003200390042004900948FFF796FDFA
:100C200006481030016841F400110160006800F4CA
:100C30000010059006B010BD00540040303802404E
:100C400000040240024881680278114481607047C4
:100C5000280000200B4810B5016841F400710160C4
:100C6000016841F480610160016841F480710160B4
:100C7000032000F06FF8002000F006F800F024F8E0
:100C8000002010BD003C024070B50D4D04464FF4ED
:100C90007A712878B1FBF0F00A490968B1FBF0F0ED
:100CA00000F0F2FA48B9102C07D200222146501E5B
:100CB00000F030F800206C6070BD012070BD0000B5
:100CC00028000020340000200A4808B5016841F4DB
:100CD00080410160006800F4804000900548001FDA
:100CE000016841F080510160006800F08050009080
:100CF00008BD000044380240002809DB00F01F0254
:100D0000012191404009800000F1E020C0F800116D
:100D100070470000F0B40E4B1B680C46C3F302236F
:100D2000C3F10705042D00D90425191D072901D297
:100D3000002300E0DB1E012606FA05F1491E2140D2
:100D400099409E40761E16403143F0BC00F01ABF19
:100D50000CED00E0064900F0070208684FF6FF03BB
:100D6000184040EA0220034A104308607047000020
:100D70000CED00E00000FA052DE9F0470E460500F5
:100D800065D0DFF81481D8F80000F7B200F00F004A
:100D9000B04207D288F80070D8F8000000F00F00C9
:100DA000B04254D128683D4C810712D5400703D585
:100DB000206840F4E05020602878000703D52068C0
:100DC00040F4604020602068A96820F0F0000843EB
:100DD00020602878C0072DD030496868083901287C
:100DE00012D0022813D0032811D0096889070029DE
:100DF0002DDA216821F0030101432160FFF78EFD08
:100E0000814641F2883A0EE009688903EFE70968F4
:100E10008901ECE7FFF782FDA0EB0901514502D9FA
:100E20000320BDE8F0872068696800F00C00B0EB93
:100E3000810FEFD1D8F80010404601F00F01B14208
:100E400007D90770006800F00F00B04201D0012000
:100E5000E7E72878400705D52068E96820F4E050E6
:100E6000084320602878000706D52068296920F407
:100E7000604040EAC100206000F028F82168084A7C
:100E8000C1F30311515CC840064908600648006878
:100E9000FFF7FAFE0020C4E7003C02400838024099
:100EA00008270008340000202C00002004480549D1
:100EB00000680968044AC1F38221515CC840704748
:100EC000340000200838024018270008154810B5E3
:100ED000006810F00C02144813D04110042A0FD0FF
:100EE000082A0ED10F4C241F2268236802F03F020B
:100EF0005B0207D52068C0F38810A0FB010106E063
:100F0000084610BD2168C1F38811A1FB0001002330
:100F1000FFF756F92168C1F30141491C4900B0FBB4
:100F2000F1F010BD083802400024F4002DE9F84F1C
:100F300004006ED02078DFF83C93C007A9F10405C7
:100F40004AD009F104000168C1F38101012908D0E8
:100F50000068C0F3810002280AD1D9F800004002DD
:100F600006D52868800337D560680028E1D033E0D3
:100F70006068B0F5803F10D0B0F5A02F286810D081
:100F800020F480302860286820F480202860606881
:100F9000A8B1FFF7C3FC06460DE0286840F4803096
:100FA000F4E740F480202860F7E700BFFFF7B6FCC5
:100FB000801B642873D828688003F7D50CE0FFF7FE
:100FC000ADFC064605E000BFFFF7A8FC801B6428C7
:100FD000F0D828688003F7D42078DFF89C82800757
:100FE0004FF0000A3ED5A348001D016811F00C0F18
:100FF00008D00068C0F3810002280BD1D9F80000A6
:10100000400207D42868800716D5E068012800D17F
:1010100012E02BE1E068B8B10120C8F80000FFF74A
:101020007DFC064605E000BFFFF778FC801B022828
:10103000C0D828688007F7D52868216920F0F80013
:1010400040EAC10028600DE0C8F800A0FFF766FC88
:10105000064604E0FFF762FC801B02281FD82868C0
:101060008007F7D42078000722D5824E8348616933
:10107000703671B101210160FFF750FC074604E0B2
:10108000FFF74CFCC01B022809D830688007F7D551
:101090000EE0C0F800A0FFF741FC074605E082E043
:1010A000FFF73CFCC01B02287DD830688007F7D4CE
:1010B0002078400768D5DFF8BCB100270BF13C0B66
:1010C000DBF80000C0000BD4DBF8001041F08051C9
:1010D000CBF80010DBF80000012700F080500090F2
:1010E000674E3068C00510D4306840F480703060BE
:1010F000FFF714FC009005E0FFF710FC0099401A80
:10110000022850D83068C005F6D55A4EA0686C3613
:1011100001280FD00528306810D020F00100306081
:10112000306820F004003060A068B8B1FFF7F6FB2B
:1011300000900FE0306840F00100F4E740F0040058
:101140003060F7E7FFF7EAFB0099411A41F2883077
:10115000814266D830688007F4D50EE0FFF7DEFBE9
:10116000009007E0FFF7DAFB0099411A41F288305E
:10117000814256D830688007F4D42FB1DBF80010D4
:1011800021F08051CBF80010A069C8B33949091D7E
:101190000968C1F3810102294AD00228504607D0CC
:1011A000C8F8600000E03CE0FFF7B8FB04463BE015
:1011B0004746C8F86000FFF7B1FB064605E000BFF0
:1011C000FFF7ACFB801B02282BD828688001F7D4DE
:1011D000D4E907010843A16A2A4A490802EB014100
:1011E000626A41EA8211084394F82C1040EA0161D6
:1011F000C9F8001001203866FFF790FB044606E0AE
:1012000036E000BFFFF78AFB001B022809D82868D8
:101210008001F7D52CE000BFFFF780FB001B022800
:1012200002D90320BDE8F88F28688001F4D41FE0BC
:101230000128F7D0D9F80000E26900F4800191425A
:1012400014D1226A00F03F0191420FD147F6C071DC
:10125000626A0140914209D1A26A00F44031914290
:1012600004D1E16A00F07060884201D00120D9E722
:101270000020D7E70438024000004742800E474272
:10128000007000400000FFFF10B5401EB0F1807FED
:1012900001D3012010BD4FF0E02460610F216017E1
:1012A00000F070FC0020A06107202061002010BD2C
:1012B0007047704770B590F83C20012A32D0012465
:1012C00080F83C40022280F83D2003685A689D68FF
:1012D00022F070060A6832435A60134B02689A4241
:1012E00014D0B2F1804F11D0104B9A420ED0104B57
:1012F0009A420BD00F4B9A4208D00F4B9A4205D01E
:101300000E4B9A4202D00E4B9A4204D1496825F006
:1013100080031943916080F83D40002180F83C1023
:10132000084670BD022070BD00000140000400406E
:1013300000080040000C0040000401400040014053
:101340000018004010B5040003D094F83D0010B11F
:1013500007E0012010BD002084F83C00204600F08A
:101360000DF8022084F83D00211D206800F05CFB90
:10137000012084F83D00002010BD000008B5006881
:10138000B0F1804F12D10A48016841F001010160BB
:101390000068002200F00100009011461C20FFF7B9
:1013A000B9FCBDE808401C20FFF7A6BC08BD000042
:1013B000403802400168CA6842F00102CA60006811
:1013C000816801F00701062903D0016841F001019D
:1013D00001600020704770B5044690F83C00012879
:1013E00017D0012584F83C50022084F83D00206885
:1013F000826822F0770222F47F42826008685028D7
:1014000030D00DDC20284DD005DC98B310283BD11E
:1014100048E0022070BD302844D0402834D139E063
:10142000602828D0702806D0B0F5805F2CD0B0F5A9
:10143000005F29D10AE0CB68D1E90121206800F0E2
:1014400057FB2068816841F0770109E0CB68D1E95A
:101450000121206800F04CFB2068816841F4804144
:10146000816011E0CA684968206800F053FB502190
:10147000206807E016E0CA684968206800F05BFB56
:101480006021206800F03EFB84F83D50002084F885
:101490003C0070BDCA684968206800F03BFB4021F1
:1014A0002068EFE7226801461046EBE7704770B509
:1014B0000446006801694FF00005C943890715D447
:1014C000C168C943890711D4E91E01610120207751
:1014D000206880698007204602D0FFF7E7FF04E01C
:1014E00000F098F8204600F096F82577206801690A
:1014F000C943490717D4C168C943490713D46FF0DA
:1015000004010161022020772068806910F4407F87
:10151000204602D0FFF7CAFF04E000F07BF8204627
:1015200000F079F8257720680169C943090716D4C6
:10153000C168C943090712D46FF008010161042092
:1015400020772068C0698007204602D0FFF7AEFFF1
:1015500004E000F05FF8204600F05DF82577206891
:101560000169C943C90617D4C168C943C90613D460
:101570006FF010010161082020772068C06910F425
:10158000407F204602D0FFF791FF04E000F042F8D0
:10159000204600F040F8257720680169C943C90753
:1015A00008D1C168C943C90704D1891E0161204619
:1015B00000F032F820680169C943090609D4C168FE
:1015C000C943090605D46FF0800101612046FFF789
:1015D0006FFE20680169C943490609D4C168C9433F
:1015E000490605D46FF040010161204600F02AF859
:1015F00020680169C94389060BD4C168C9438906BB
:1016000007D46FF0200101612046BDE87040FFF76C
:1016100050BE70BD7047704710B54FF480510748F9
:10162000FFF770F906480168491C01604168491CD0
:1016300041608168491C816010BD0000000C0240BF
:10164000000000207047FEE701684A69D243520556
:101650000FD46FF480624A61002140F8301F2022CD
:1016600042738173026942F0040202610173012036
:101670007047002070470000F8B50446C06A1E4657
:101680000D461746082807D0012805D010F5803FE1
:1016900002D0206B122804D12068016841F48071C7
:1016A0000160134600224FF001112046009600F021
:1016B00057F840B120680068C00502D54FF40070AB
:1016C00020640320F8BD2069B0F5804F0ED00620BD
:1016D000216800EAD51040F0F000086133463A4630
:1016E0000B49204600F070F878B902E005F0FE00E2
:1016F00000E0E8B221680861054933463A46891F8F
:10170000204600F061F80028DCD00120F8BD000080
:101710000800010070B516460D4604460DE020464F
:10172000FFF792FF08B1012070BD681C05D0FFF7DC
:10173000F5F8801BA84207D835B120684069C0433E
:101740004007ECD4002070BD002044F8300F202169
:101750006173A073216941F0200121612073E2E7E8
:101760002DE9F0471E4690460D460446C1F3074753
:10177000DDF8209008E0701C06D0FFF7CFF8A0EB52
:101780000900B0420FD876B12068012F18D08069C7
:1017900025EA00000004000C14D000214145EAD0E5
:1017A0000020BDE8F087002044F8300F202161734D
:1017B000A073216941F02001216120730120F0E72D
:1017C0004069E5E70121E9E72DE9F0479A469146AE
:1017D0000E46044600254FF02008C1F3074725E0D8
:1017E00020684069C043400514D42068016841F472
:1017F0000071016021686FF480604861256384F89E
:101800003D8084F83E50206C40F00400206484F851
:101810003C501FE0B9F1FF3F08D0FFF77FF8A0EB85
:101820000A0149450CD8B9F1000F09D02068012FF1
:1018300013D0806926EA00000004000C0BD0CFE72B
:1018400044F8305F84F80D80A573206940F02000D3
:10185000206125730120BDE8F0874069EAE770B593
:1018600016460D4604460DE02046FFF7EDFE08B192
:10187000012070BD681C05D0FFF750F8801BA842FE
:1018800007D835B120684069C0430006ECD4002079
:1018900070BD002044F8300F20216173A0732169CE
:1018A00041F0200121612073E2E7000070B586B0AD
:1018B00014216846FEF7BCFC16480025016841F07B
:1018C00080010160016801F080010591016841F02B
:1018D00008010160016801F008010591016841F00B
:1018E0000201016000680C4E00F002004FF47044E9
:1018F0000590002221463046FFF70BF80120CDE984
:1019000000400320CDE9025069463046FEF71EFF35
:1019100006B070BD30380240000C024010B586B0F1
:1019200000241248009401940294039404944FF00C
:101930008041059401604FF47A71C0E9011442F2CC
:10194000D001C0E903148461FFF7FCFC4FF4805020
:10195000009069460548FFF73EFD049404A903483A
:101960000594FFF7A7FC06B010BD00008C00002016
:10197000FEE7704770477047FFF764B930B593B022
:1019800030216846FEF754FC14210CA8FEF750FCE9
:1019900019480025016841F080510160006800F09D
:1019A000805011901548016841F480410160006841
:1019B000022400F480401190012000900004019066
:1019C0008001CDE9064008AA0420A82182E813007E
:1019D0000B906846FFF7AAFA0CA90F2081E83100A6
:1019E0004FF4A0500F90E002109005210CA8FFF7D3
:1019F000C3F913B030BD0000403802400070004011
:101A00000548016841F47001016003494FF000602E
:101A1000803908607047000088ED00E00148FFF75A
:101A200046BD00008C000020F0B50268254C264D14
:101A3000264E274F274B4FF0804CA04209D06045DF
:101A400007D0A84205D0B04203D0B84201D0984296
:101A500004D122F0700E4A6842EA0E02A0421BD066
:101A6000604519D0A84217D0B04215D0B84213D063
:101A7000984211D0184DA8420ED0184DA8420BD054
:101A8000174DA84208D0174DA84205D0164DA842C0
:101A900002D0164DA84203D122F44075CA682A43E9
:101AA0004D6922F080022A4302608A68C2620A6895
:101AB0008262A04201D0984201D1096901630121EB
:101AC0004161F0BD000001400004004000080040FA
:101AD000000C00400004014000400140004401406F
:101AE0000048014000180040001C00400020004059
:101AF00010B5846842EA032224F47F440A43224357
:101B0000826010BD826822F070020A4342F0070131
:101B10008160704710B5036A046A24F0010404620E
:101B2000846924F0F00444EA021423F00A020A4310
:101B30008461026210BD10B5036A23F010030362D2
:101B40008369046A23F4704343EA023224F0A00359
:101B500043EA01118261016210BDFEE70FB4084B38
:101B600010B504A902AA039800F0EEF8044602A9F1
:101B7000002000F080FC204610BC5DF814FB000043
:101B8000772400080907090E002804DB00F1E02093
:101B900080F80014704700F00F0000F1E02080F89A
:101BA000141D704702E008C8121F08C1002AFAD1AC
:101BB00070477047002001E001C1121F002AFBD1CD
:101BC000704700002DE9FF5F82B00021DDE904309D
:101BD000020DDDF840B0034318D044F61050A2F2D5
:101BE000FF3242431514119801281FD0A5EB0B00BA
:101BF000401C5FEA000A4FF000064E4FDFF83891B4
:101C0000B046504615D5CAF1000413E011980124DE
:101C10004AA3012801D16FEA0B010298119AC0E989
:101C20000031C0E9024206B0BDE8F09FCBF10000F0
:101C3000DFE704460021404A491842EB0450CDE951
:101C4000001012E0E00707D032463B4640464946C6
:101C5000FEF7D5FB8046894632463B46104619467C
:101C6000FEF7CDFB06460F466410002CEAD1DDE9F5
:101C70000401DDE90023BAF1000F06DAFEF7BFFB2D
:101C800042464B46FEF7BBFB05E0FEF72AFC424608
:101C90004B46FEF726FC04460E460022284BFEF774
:101CA000A7FC03D84FF0FF30014607E00022254B88
:101CB00020463146FEF7FCFAFEF782FC102409E0CC
:101CC000002C0ADB0A220023FEF77AFA039B30324B
:101CD0001A55641E50EA0102F2D1641C039AC4F141
:101CE00011031444119A012A03D0012208430DD193
:101CF0000AE0084304D000204FF0110B119072E766
:101D0000A3EB0B056D1E0DE05B4504DD4FF00002FB
:101D100005F1010504E003DA4FF00002A5F1010529
:101D2000002AECD002981199C0E90231C0E90045BF
:101D300079E70000000014400000F03F3000000090
:101D40000000F0430000E03F2DE9FF4F95B09B46B7
:101D50008946064600250FE2252877D1002427462C
:101D6000F84A0121059400E0044316F8013F203BA6
:101D700001FA03F01042F7D130782A2811D06FF021
:101D80002F033078A0F13002092A16D8059A44F0C2
:101D9000020402EB820203EB42021044761C05901F
:101DA000EFE759F8042B0592002A03DA504244F475
:101DB0000054059044F00204761C30782E2816D189
:101DC00016F8010F44F004042A280DD06FF02F02FA
:101DD0003078A0F13003092B09D807EB870302EB19
:101DE0004303C718761CF3E759F8047B761C307858
:101DF0006C280FD006DC4C2817D068280DD06A2834
:101E000014D104E0742810D07A280FD10DE044F4E6
:101E100000140AE044F4801401E044F440147278A1
:101E2000824202D104F58014761C761C3078662834
:101E30000BD013DC582877D009DC002875D0452852
:101E4000F6D04628F4D047281AD19DE118E063283F
:101E500035D0642879D0652812D195E1702873D0E7
:101E600008DC6728F1D069286FD06E280DD06F2864
:101E700006D1B5E073282CD0752875D0782874D099
:101E80005A46179990476D1C75E1C4F30250022819
:101E900009D003280DD0D9F8001004280DD00D600A
:101EA00009F1040967E1D9F80010EA17C1E9005205
:101EB000F6E7D9F800100D80F2E70D70F0E719F899
:101EC000041B8DF8001000208DF80100EA46012067
:101ED00003E059F804AB4FF0FF3061074FF0000109
:101EE00002D40DE008F101018846B9420FDA8045BD
:101EF000F8DB1AF808100029F4D108E008F1010114
:101F000088468142FADB1AF808100029F6D10598B4
:101F10005B46A0EB080721463846179A00F094FA72
:101F2000284400EB080507E04DE029E10DE01AF830
:101F3000010B5A4617999047B8F10108F7D25B4652
:101F400021463846179A13E142E00A220092C4F370
:101F500002524FF0000A022A08D059F804CB032A93
:101F60004FEAEC710AD00DE029E02AE009F10701FF
:101F700021F00702F2E802C1914609E00FFA8CFC59
:101F80004FEAEC71042A03D14FFA8CFC4FEAEC7152
:101F9000002907DA0A460021DCF1000C61EB02019E
:101FA0002D2202E0220504D52B228DF804200122E7
:101FB00003E0E20701D02022F7E7904659E00A212A
:101FC00002E010220DE010214FF0000A00910BE01A
:101FD00010224FF0000A44F004040827009203E0A6
:101FE00008224FF0000A0092C4F30252022A05D0E0
:101FF00059F804CB0021032A08D009E009F10701B0
:1020000021F00702F2E802C1914605E01FFA8CFCBC
:10201000042A01D10CF0FF0C4FF00008220728D54C
:10202000702806D0009B83F0100353EA0A0305D002
:102030000EE040228DF80420012208E05CEA010253
:1020400006D030228DF804208DF80500022290463B
:10205000009B83F0080353EA0A030AD15CEA0102F9
:1020600001D1620705D530228DF804204FF0010818
:102070007F1E582804D034A003900EA802900DE0D3
:1020800036A0F9E753466046009AFEF799F8844671
:102090000398825C0298401E029002705CEA010084
:1020A000F0D1029806A9081A00F1200A600702D5AB
:1020B00024F4803400E00127574502DDA7EB0A0035
:1020C00000E0002000EB0A01009005984144401A0E
:1020D0000590E00306D45B462146179A059800F068
:1020E000B3F90544002706E001A85A46C05D1799D8
:1020F00090476D1C7F1C4745F6DBE0030CD55B4623
:102100002146179A059800F09FF9054404E0302015
:102110005A46179990476D1C0099481E0090002957
:10212000F5DC08E0029802995A460078491C0291B1
:10213000179990476D1CBAF10001AAF1010AF1DC70
:1021400065E100000928010030313233343536377B
:1021500038396162636465660000000030313233F3
:102160003435363738394142434445460000000093
:1021700000F058F90544761C307800287FF4ECAD67
:1021800019B02846BDE8F08F620700D4062709F190
:10219000070222F0070CFCE80223E14603F00048A6
:1021A0005FEA080C02D00FF2702C0DE05FEA045CCD
:1021B00002D50FF2682C07E05FEAC47C02D00FF270
:1021C000602C01E0AFF2700C4FF0FF3823F00043B9
:1021D000CDF850C065280CD006DC452809D046282B
:1021E0001DD047283DD13DE0662818D067287ED114
:1021F00038E00021112F01DB112000E0781CCDE92F
:10220000000106A90EA8FFF7DDFCDDE90F010E9A1B
:1022100003910021009207F1010A04914DE04FF073
:1022200000400097CDE9011006A90EA8FFF7CAFCEF
:10223000DDE90F0203920E9B11990022DDF80CA03C
:102240000093049211B9791C00EB010AB7EB0A0064
:1022500004D4C0F1FF3007F1010A0490AAEB070093
:10226000019044E0012F00DA01270021112F01DD48
:10227000112000E03846CDE9000106A90EA8FFF7BD
:10228000A1FCDDE90F010E9A039100210491009257
:10229000BA4621070CD40399514500DA8A46BAF1AF
:1022A000010F05DD009AAAF10101515C302908D027
:1022B000B84202DA10F1040F06DA0121CDE901106B
:1022C00015E0AAF10101E9E7002805DC04990144C1
:1022D0000491AAEB000102E0411C514500DD8A4651
:1022E0000499401A401C01904FF0004002902007D2
:1022F00004D40198504501DBCDF8048000208DF80E
:102300004F0002980DF14F07B0F1004F25D02B2060
:102310000E9002984FF0020800280CDA404202901A
:102320002D200E9007E00A210298FDF78CFF303136
:10233000029007F8011DB8F10001A8F10108F2DCD4
:1023400002980028EFD1791E0E980870307800F0BE
:10235000200040F0450007F8020D12A8C01B00F154
:1023600007081498007800B1012000EB0A010198D9
:1023700001EBE07105984144401A401E0590E003CE
:1023800006D45B462146179A059800F05DF805448F
:102390001498007818B15A46179990476D1CE003BD
:1023A00024D55B462146179A059800F04DF8054460
:1023B0001CE00498002807DBDDE90301884203DD07
:1023C0000098405C179901E0179930205A469047D1
:1023D000049805F10105401C04900198401E0190ED
:1023E00004D12E205A46179990476D1CBAF100016E
:1023F000AAF1010ADDDC05E017F8010B5A4617992E
:1024000090476D1CB8F10001A8F10108F4DC5B46AF
:102410002146179A0598ABE62D0000002B0000001E
:10242000200000002DE9F041044600251E46174615
:10243000880404D405E039462020B0476D1C641E92
:10244000F9D52846BDE8F0812DE9F0410446002584
:102450001E469046C80301D5302700E02027880497
:1024600004D505E041463846B0476D1C641EF9D5D9
:102470002846BDE8F0810A68531C0B601070704755
:102480001FB5024603A16846FFF768FB684600F0E7
:1024900097F81FBD2564000010B5802000F050F8AB
:1024A0000024202000F06CF8641C462CF9DB10BDE1
:1024B00010B53220FEF738F9302000F041F8052041
:1024C000FEF732F9302000F03BF80120FEF72CF93E
:1024D000302000F035F80A20FEF726F9202000F021
:1024E0002FF80A20FEF720F9282000F029F8012013
:1024F000FEF71AF9082000F023F80120FEF714F97E
:10250000012000F01DF80120FEF70EF90120FEF772
:102510000BF9062000F014F80120FEF705F9BDE8DC
:1025200010400C2000F00CB810B1012805D102E0D9
:1025300041F0800101E041F0C001C8B2AFF300807A
:102540001CB500F0F00141F00C028DF8042041F0C0
:10255000080100018DF8051040F00C018DF80610FF
:1025600040F008008DF8070064200090042301AAC1
:102570004E210248FEF79CFA1CBD000038000020E6
:102580001CB500F0F00141F00D028DF8042041F07F
:10259000090100018DF8051040F00D018DF80610BD
:1025A00040F009008DF8070064200090042301AA80
:1025B0004E210248FEF77CFA1CBD000038000020C6
:1025C00010B5044602E0641CFFF7DAFF207800280B
:1025D000F9D110BDFEF73EFBFFF7D0F9FFF766F922
:1025E000FFF79CF940483F49002501603F49C0E999
:1025F00001154FF48046C0E9035645618561C56108
:102600000562FEF791F938485430FEF7D3FEFFF724
:102610004FFFFFF741FF364CDFF8D88004F1200070
:10262000E1690160A1694FF4FA77416020680A28E6
:1026300011D14FF400514046FEF764F92560E0687F
:10264000401CE060A069401CA0610A2803D1E06939
:10265000401CC4E90650E069022809D131464046D1
:10266000FEF750F96560E560E5612069401C206176
:10267000A068B84209D14FF400414046FEF742F944
:10268000A56025616069401C606100210846FFF774
:102690004BFF19A0FFF794FF07210120FFF744FF2C
:1026A0006069FFF7EDFE0A210120FFF73DFF206979
:1026B000FFF7E6FE0C210120FFF736FFE069FFF788
:1026C000DFFE0D210120FFF72FFFA069FFF7D8FEE5
:1026D00002210120FFF728FF05482030FFF770FF97
:1026E000A4E700000054004038000020A08601004C
:1026F00000000020000C0240536161743A205361D5
:1027000020446B20536E0000000000000000000019
:102710000102030406070809000000000102030487
:10272000402700080000002038000000A41B00081B
:10273000782700083800002098040000B41B000827
:102740000000000000000000000000000000000089
:102750000000000000000000000000000000000079
:102760000000000000000000010000001000000058
:08277000000000000024F40049
:040000050800018965
:00000001FF
