:020000040800F2
:10000000100500209D010008DB110008AF1000085A
:10001000D9110008CD020008A71400080000000054
:10002000000000000000000000000000CD120008E9
:10003000CF02000800000000DD110008CF12000808
:10004000B7010008B7010008B7010008B7010008B0
:10005000B7010008B7010008B7010008B7010008A0
:10006000B7010008B7010008B7010008B701000890
:10007000B7010008B7010008B7010008B701000880
:10008000B7010008B7010008B7010008B701000870
:10009000B7010008B7010008B7010008B701000860
:1000A000B7010008B7010008B7010008B701000850
:1000B000B7010008B7010008B7010008B701000840
:1000C000B7010008B7010008B7010008B701000830
:1000D000B7010008B7010008B7010008B701000820
:1000E000B7010008B7010008B7010008B701000810
:1000F000B7010008B7010008B7010008B701000800
:10010000B7010008B7010008B7010008B7010008EF
:10011000B7010008B7010008B7010008B7010008DF
:10012000B7010008B7010008B7010008B7010008CF
:10013000B7010008B7010008B7010008B7010008BF
:10014000B7010008B7010008B7010008B7010008AF
:10015000B7010008B7010008B7010008B70100089F
:10016000B7010008B7010008B7010008B70100088F
:10017000B7010008B7010008B7010008000000003F
:10018000B7010008B7010008DFF80CD000F08CF8C8
:1001900000480047E9140008100500200648804781
:1001A00006480047FEE7FEE7FEE7FEE7FEE7FEE75C
:1001B000FEE7FEE7FEE7FEE75913000889010008A5
:1001C0002DE9F05F0546002092469B46884606468C
:1001D000814640241BE0284641464746224600F01F
:1001E00053F853465A46C01A914110D31146184647
:1001F000224600F03AF82D1A67EB01084F462246D6
:100200000120002100F031F817EB00094E41201EBB
:10021000A4F10104DFDC484631462A464346BDE8E6
:10022000F09F40EA01039B0703D009E008C9121FB1
:1002300008C0042AFAD203E011F8013B00F8013BA0
:10024000521EF9D27047D2B201E000F8012B491ECC
:10025000FBD270470022F6E710B513460A46044663
:100260001946FFF7F0FF204610BD202A04DB203A94
:1002700000FA02F1002070479140C2F1200320FAF9
:1002800003F3194390407047202A04DB203A21FAF7
:1002900002F00021704721FA02F3D040C2F120029F
:1002A0009140084319467047064C074D06E0E06848
:1002B00040F0010394E8070098471034AC42F6D3AD
:1002C000FFF766FFB8150008D8150008FEE770476D
:1002D00070B50D461446014658221848FFF7A1FF95
:1002E000174A2846214655601480012200F0B6F9CD
:1002F000302000F031F86E2000F0C2F8012000F04C
:100300002BF80C2000F0BCF8062000F025F80120A6
:1003100000F0B6F80C2000F01FF8012000F0B0F853
:10032000022000F019F8012000F0AAF8012000F0E6
:100330002FF8BDE87040012000F0A2B8B8000020FE
:100340000800002010B50B46024600F03DF8BDE85D
:100350001040092000F01CB838B50B4C8DF8000097
:1003600001222188606800F079F90523012269469D
:10037000064800F0F7FC642000F082F80022218893
:10038000606800F06BF938BD08000020B80000205C
:1003900038B50B4C8DF8000001222188606800F010
:1003A0005DF9052301226946064800F0DBFC642064
:1003B00000F066F800222188606800F04FF938BD2F
:1003C00008000020B80000202DE9F04107461C4637
:1003D00015460E468020FFF7BFFF380AFFF7D8FF0B
:1003E000F8B2FFF7D5FF280AFFF7D2FFE8B2FFF710
:1003F000CFFF2B20FFF7B0FF300AFFF7C9FFF0B2A5
:10040000FFF7C6FF200AFFF7C3FFE0B2FFF7C0FF08
:10041000BDE8F0412C20FFF79FBF10B50120FFF78A
:100420009BFFBDE81040052000F02AB810B5044637
:10043000C8B2FFF791FF2078BDE81040FFF7A8BFD2
:1004400010B5044641F0800372B1012A04D0022A9B
:1004500005D0032A08D105E041F0900304E041F003
:10046000880301E041F09803D8B2FFF775FF2078C8
:1004700000E0641CFFF78CFF20780028F9D110BD44
:1004800070B5044600F0F0F80546601C02D0044840
:100490000078044400F0E8F8401BA042FAD370BD95
:1004A000100000202DE9F84F00224FF0010803252D
:1004B0004FF00F0E0B6808FA02F42340A3426ED1EE
:1004C0004E68012E05D0022E03D0112E01D0122E1F
:1004D00012D186684FEA420C05FA0CF7BE43CF688A
:1004E00007FA0CF7374387604668A6430C79C4F3D4
:1004F0000014944034434460C668570005FA07FC72
:100500008C6826EA0C06BC403443C4604C68022C5C
:1005100001D0122C13D1D40800EB8404A346D4F8E4
:10052000209054074FEAD46A0EFA0AF629EA06091F
:100530000E6906FA0AF646EA0906CBF82060066854
:100540000C7926EA0C0604F00304BC403443046032
:100550004C68E40065D5364C266846F48046266033
:10056000246822F0030604F480440094314C34449F
:10057000A446D4F808489607370F0EFA07F6B44396
:100580002D4EB04201D1002624E02C4EB04201D1C4
:1005900001261FE02A4EB04202D102261AE040E0B6
:1005A000284EB04201D1032614E0274EB04201D1BB
:1005B00004260FE0254EB04201D105260AE0244E64
:1005C000B04201D1062605E0224EB04201D10726F5
:1005D00000E00826BE402643CCF808681E4E34686A
:1005E0004F689C43FF0300D51C4334601A4C241D04
:1005F00026684F689E43BF0300D51E432660164EF3
:10060000083634684F689C43FF0200D51C433460B1
:10061000114E0C3634684F689C43BF0200D51C4312
:100620003460521C102AFFF445AFBDE8F88F00007B
:100630004438024000300140000002400004024003
:1006400000080240000C024000100240001402406A
:1006500000180240001C0240003C01400AB18161C8
:1006600070470904FBE700000148806870470000FC
:1006700010000020024881680278114481607047B0
:10068000100000200B4810B5016841F400710160B2
:10069000016841F480610160016841F4807101608A
:1006A000032000F061F8002000F006F800F024F8C4
:1006B000002010BD003C024070B50D4D04464FF4C3
:1006C0007A712878B1FBF0F00A490968B1FBF0F0C3
:1006D00000F0F6FB48B9102C07D200222146501E2C
:1006E00000F022F800206C6070BD012070BD000099
:1006F000100000201C0000200A4808B5016841F4E1
:1007000080410160006800F4804000900548001FAF
:10071000016841F080510160006800F08050009055
:1007200008BD000044380240F0B40E4B1B680C4674
:10073000C3F30223C3F10705042D00D90425191DB5
:10074000072901D2002300E0DB1E012606FA05F18D
:10075000491E214099409E40761E16403143F0BC10
:1007600000F0A2BE0CED00E0064900F007020868A8
:100770004FF6FF03184040EA0220034A1043086086
:10078000704700000CED00E00000FA052DE9F0478D
:100790000E46050065D0DFF81481D8F80000F7B2E6
:1007A00000F00F00B04207D288F80070D8F80000BF
:1007B00000F00F00B04254D128683D4C810712D59B
:1007C000400703D5206840F4E050206028780007F7
:1007D00003D5206840F4604020602068A96820F0BC
:1007E000F000084320602878C0072DD030496868A1
:1007F0000839012812D0022813D0032811D0096823
:10080000890700292DDA216821F0030101432160C5
:10081000FFF72AFF814641F2883A0EE00968890312
:10082000EFE709688901ECE7FFF71EFFA0EB09017C
:10083000514502D90320BDE8F0872068696800F0BF
:100840000C00B0EB810FEFD1D8F80010404601F05A
:100850000F01B14207D90770006800F00F00B042E5
:1008600001D00120E7E72878400705D52068E9682E
:1008700020F4E050084320602878000706D520685F
:10088000296920F4604040EAC100206000F018F8B7
:100890002168084AC1F30311515CC8400649086049
:1008A00006480068FFF708FF0020C4E7003C02404C
:1008B00008380240A81500081C0000201400002081
:1008C000154810B5006810F00C02144813D0411000
:1008D000042A0FD0082A0ED10F4C241F2268236847
:1008E00002F03F025B0207D52068C0F38810A0FB2E
:1008F000010106E0084610BD2168C1F38811A1FB83
:1009000000010023FFF75CFC2168C1F30141491C91
:100910004900B0FBF1F010BD083802400024F4009B
:100920002DE9F84F04006ED02078DFF83C93C00723
:10093000A9F104054AD009F104000168C1F381015D
:10094000012908D00068C0F3810002280AD1D9F833
:100950000000400206D52868800337D5606800286B
:10096000E1D033E06068B0F5803F10D0B0F5A02F43
:10097000286810D020F480302860286820F4802077
:1009800028606068A8B1FFF76FFE06460DE0286892
:1009900040F48030F4E740F480202860F7E700BF9F
:1009A000FFF762FE801B642873D828688003F7D5A0
:1009B0000CE0FFF759FE064605E000BFFFF754FEC6
:1009C000801B6428F0D828688003F7D42078DFF8EB
:1009D0009C8280074FF0000A3ED5A348001D0168A5
:1009E00011F00C0F08D00068C0F3810002280BD171
:1009F000D9F80000400207D42868800716D5E068BF
:100A0000012800D112E02BE1E068B8B10120C8F85C
:100A10000000FFF729FE064605E000BFFFF724FEB1
:100A2000801B0228C0D828688007F7D5286821696C
:100A300020F0F80040EAC10028600DE0C8F800A0EE
:100A4000FFF712FE064604E0FFF70EFE801B0228A9
:100A50001FD828688007F7D42078000722D5824E57
:100A600083486169703671B101210160FFF7FCFDB7
:100A7000074604E0FFF7F8FDC01B022809D83068DC
:100A80008007F7D50EE0C0F800A0FFF7EDFD0746A0
:100A900005E082E0FFF7E8FDC01B02287DD8306842
:100AA0008007F7D42078400768D5DFF8BCB100276D
:100AB0000BF13C0BDBF80000C0000BD4DBF800109E
:100AC00041F08051CBF80010DBF80000012700F066
:100AD00080500090674E3068C00510D4306840F4F4
:100AE00080703060FFF7C0FD009005E0FFF7BCFDAF
:100AF0000099401A022850D83068C005F6D55A4EE1
:100B0000A0686C3601280FD00528306810D020F07E
:100B100001003060306820F004003060A068B8B197
:100B2000FFF7A2FD00900FE0306840F00100F4E70D
:100B300040F004003060F7E7FFF796FD0099411A96
:100B400041F28830814266D830688007F4D50EE0E3
:100B5000FFF78AFD009007E0FFF786FD0099411A34
:100B600041F28830814256D830688007F4D42FB1E2
:100B7000DBF8001021F08051CBF80010A069C8B359
:100B80003949091D0968C1F3810102294AD00228A7
:100B9000504607D0C8F8600000E03CE0FFF764FD75
:100BA00004463BE04746C8F86000FFF75DFD064697
:100BB00005E000BFFFF758FD801B02282BD82868EE
:100BC0008001F7D4D4E907010843A16A2A4A4908F9
:100BD00002EB0141626A41EA8211084394F82C1049
:100BE00040EA0161C9F8001001203866FFF73CFDBA
:100BF000044606E036E000BFFFF736FD001B022882
:100C000009D828688001F7D52CE000BFFFF72CFD3C
:100C1000001B022802D90320BDE8F88F2868800154
:100C2000F4D41FE00128F7D0D9F80000E26900F4FD
:100C30008001914214D1226A00F03F0191420FD10C
:100C400047F6C071626A0140914209D1A26A00F47C
:100C50004031914204D1E16A00F07060884201D0D5
:100C60000120D9E70020D7E70438024000004742BE
:100C7000800E4742007000400000FFFF70B5040086
:100C800005D00025A56294F8510010B106E00120BE
:100C900070BD84F85050204600F030F8022084F8EF
:100CA00051002068016821F040010160D4E9010190
:100CB0000843D4E903121143084361690843218BB7
:100CC00001F400710843E1690843216A0843A16AFD
:100CD000084321680860A069042101EA1040616AA4
:100CE0000843216848602068C16921F40061C1613E
:100CF0006565012084F85100002070BD10B586B0F4
:100D0000044614216846FFF7A5FA13492068884273
:100D100020D112480021026842F48052026000682B
:100D200000F4805005900D481438026842F001022A
:100D30000260006800F001000590E02000900220B1
:100D4000CDE9010103200390052004906946044881
:100D5000FFF7A8FB06B010BD003001404438024048
:100D6000000002402DE9F84F044690F8500000279B
:100D70001D461646894601280DD04FF0010B84F818
:100D800050B0FFF771FC804694F85100BA46012834
:100D900004D002278EE00220BDE8F88FB9F1000FE1
:100DA0007DD0002E7BD0032084F85100C4F854A0DD
:100DB000C4F83090A686E686C4F838A0A4F83CA013
:100DC000A4F83EA0C4F844A0C4F840A0A068B0F5C0
:100DD000004F04D12068016841F48041016020681F
:100DE0000168490603D4016841F040010160E068F0
:100DF000B0F5006F606803D030B3012E24D040E01E
:100E000008B1012E1CD1206B21680088C86006E063
:100E100020688168890709D5216B0988C160206B2A
:100E2000801C2063E08E401EE08609E0FFF71CFC7A
:100E3000A0EB0800A84202D3681C01D031E07DB3CA
:100E4000E08E0028E4D11FE0206B21680078087351
:100E500006E020688168890709D5216B097801734C
:100E6000206B401C2063E08E401EE08609E0FFF707
:100E7000FBFBA0EB0800A84202D3681C01D010E0E5
:100E800075B1E08E0028E4D142462946204600F0A4
:100E9000A7F908B120206065A06820B107E008E04C
:100EA000FFE7032706E02068C16880680090606D56
:100EB00000B1012784F851B084F850A038466BE7A0
:100EC00010B5401EB0F1807F01D3012010BD4FF05E
:100ED000E02460610F21601700F0E6FA0020A061B5
:100EE00007202061002010BD70B590F83C20012A39
:100EF00032D0012480F83C40022280F83D20036873
:100F00005A689D6822F070060A6832435A60134B93
:100F100002689A4214D0B2F1804F11D0104B9A421D
:100F20000ED0104B9A420BD00F4B9A4208D00F4B69
:100F30009A4205D00E4B9A4202D00E4B9A4204D1EF
:100F4000496825F080031943916080F83D400021F5
:100F500080F83C10084670BD022070BD00000140C2
:100F60000004004000080040000C00400004014064
:100F7000004001400018004010B5040003D094F870
:100F80003D0010B107E0012010BD002084F83C00B6
:100F9000204600F00DF8022084F83D00211D206855
:100FA00000F0E8F9012084F83D00002010BD0000A9
:100FB00008B500680649884208D10648016841F032
:100FC00001010160006800F00100009008BD000010
:100FD000000001404438024070B5044690F83C00DF
:100FE000012817D0012584F83C50022084F83D00E8
:100FF0002068826822F0770222F47F4282600868CB
:10100000502830D00DDC20284DD005DC98B31028B6
:101010003BD148E0022070BD302844D0402834D174
:1010200039E0602828D0702806D0B0F5805F2CD039
:10103000B0F5005F29D10AE0CB68D1E90121206831
:1010400000F0FCF92068816841F0770109E0CB6885
:10105000D1E90121206800F0F1F92068816841F4AC
:101060008041816011E0CA684968206800F0F8F9A1
:101070005021206807E016E0CA684968206800F03F
:1010800000FA6021206800F0E3F984F83D50002068
:1010900084F83C0070BDCA684968206800F0E0F937
:1010A00040212068EFE7226801461046EBE7FEE7A3
:1010B0002DE9F04186B014216846FFF7CBF82248AD
:1010C0000024016841F080010160016801F08001A5
:1010D0000591016841F001010160016801F0010121
:1010E0000591016841F002010160016801F002010F
:1010F0000591016841F0080101600068134F00F09C
:1011000008004FF470450590002229463846FFF745
:10111000A5FADFF83C80002229464046FFF79EFAF8
:1011200001260095CDE90164694638460394FFF72E
:10113000B9F90095CDE90164694640460394FFF78B
:10114000B1F906B0BDE8F081303802400004024039
:10115000000C02400B480A494FF4007201604FF442
:101160008271416000218160C1600161C0E90512A6
:10117000C1610162416281620A21C162FFF77EBDE5
:10118000003001402000002010B586B00024114836
:10119000009401940294039404940D490594C0E9C9
:1011A00000148460C460046144618461FFF7E4FE5C
:1011B0004FF48050009069460648FFF70DFF0494F5
:1011C00004A904480594FFF78FFE06B010BD000087
:1011D0000000014078000020FEE7704770470000E3
:1011E00038B504461248134B0068B0FBF3F04FF4D7
:1011F0007A73584300906068B0F5827F0DD10B463A
:10120000009200228021204600F016F870B1606D37
:1012100040F020006065032038BD009830B1401ECA
:10122000009020688068C0430006F6D5002038BDD5
:101230001C00002000366E012DE9F0411D461746C6
:101240000E460446DDF8188008E0681C06D0FFF75B
:101250000BFAA0EB0800A8420BD255B120688068B9
:1012600036EA000030D00020B842EED10020BDE8C0
:10127000F0812068416821F0E00141606068B0F5CC
:10128000827F0BD1A068B0F5004F02D0B0F5806F1F
:1012900004D12068016821F040010160A06AB0F526
:1012A000005F09D12068016821F4005101602068C5
:1012B000016841F400510160012084F851000020D0
:1012C00084F850000320D2E70120CDE77047FFF7F4
:1012D000D1B9000030B593B030216846FEF7BAFFAF
:1012E00014210CA8FEF7B6FF19480025016841F04B
:1012F00080510160006800F080501190154801682D
:1013000041F4804101600068022400F480401190A3
:1013100001200090000401908001CDE9064008AA58
:101320000420A82182E813000B906846FFF7F8FA22
:101330000CA90F2081E831004FF4A0500F90E0027B
:10134000109005210CA8FFF721FA13B030BD000062
:1013500040380240007000400548016841F47001C7
:10136000016003494FF00060803908607047000059
:1013700088ED00E0F0B50268254C264D264E274F3B
:10138000274B4FF0804CA04209D0604507D0A842BF
:1013900005D0B04203D0B84201D0984204D122F027
:1013A000700E4A6842EA0E02A0421BD0604519D076
:1013B000A84217D0B04215D0B84213D0984211D0ED
:1013C000184DA8420ED0184DA8420BD0174DA84278
:1013D00008D0174DA84205D0164DA84202D0164D90
:1013E000A84203D122F44075CA682A434D6922F00D
:1013F00080022A4302608A68C2620A688262A0424E
:1014000001D0984201D10969016301214161F0BD18
:10141000000001400004004000080040000C0040B3
:1014200000040140004001400044014000480140E8
:1014300000180040001C00400020004010B58468E7
:1014400042EA032224F47F440A432243826010BD0F
:10145000826822F070020A4342F0070181607047FF
:1014600010B5036A046A24F001040462846924F05C
:10147000F00444EA021423F00A020A43846102627F
:1014800010BD10B5036A23F0100303628369046A78
:1014900023F4704343EA023224F0A00343EA01112B
:1014A0008261016210BDFEE70907090E002804DB16
:1014B00000F1E02080F80014704700F00F0000F108
:1014C000E02080F8141D704702E008C8121F08C110
:1014D000002AFAD170477047002001E001C1121FB5
:1014E000002AFBD170470000FFF7CCF8FFF7F2FEAF
:1014F000FFF7DEFDFFF72EFEFFF746FE4FF4005626
:10150000324623492348FEF7E3FE6420FEF7B8FF86
:10151000214C012231462046FFF7A0F892211FA05E
:10152000FEF784FF4FF47A752846FEF7A9FF0022E4
:1015300031462046FFF792F82846FEF7A1FF7600D5
:10154000012231462046FFF789F8902113A0FEF7CB
:101550006DFF2846FEF794FFFEF75FFF3221084635
:10156000FEF7F0FE2846FEF78BFFFEF756FF00223F
:1015700001210C48FEF764FF2846FEF781FF002298
:1015800031462046FFF76AF82846FEF779FFD7E78D
:101590000004024020000020000C024064656E65DB
:1015A0006D65000000000020000000000000000049
:1015B0000102030406070809D815000800000020EE
:1015C00020000000C8140008F815000820000020C2
:1015D000F0040000D814000861626364653233319E
:1015E00000000000000000000100000010000000EA
:0815F000000000000024F400DB
:040000050800018965
:00000001FF
