:020000040800F2
:10000000680400209D010008FF1000081D0D000875
:10001000FD10000895040008A91100080000000068
:1000200000000000000000000000000003110008B4
:1000300097040008000000000111000805110008E5
:10004000B7010008B7010008B7010008B7010008B0
:10005000B7010008B7010008B7010008B7010008A0
:10006000B7010008B7010008B7010008B701000890
:10007000B7010008B7010008B7010008B701000880
:10008000B7010008B7010008B7010008B701000870
:10009000B7010008B7010008B7010008B701000860
:1000A000B7010008B7010008B7010008B701000850
:1000B000B7010008B7010008B7010008B701000840
:1000C000B7010008B7010008B7010008B701000830
:1000D000B7010008B7010008B7010008B701000820
:1000E000B7010008B7010008B7010008B701000810
:1000F000B7010008B7010008B7010008B701000800
:10010000B7010008B7010008B7010008B7010008EF
:10011000B7010008B7010008B7010008B7010008DF
:10012000B7010008B7010008B7010008B7010008CF
:10013000B7010008B7010008B7010008B7010008BF
:10014000B7010008B7010008B7010008B7010008AF
:10015000B7010008B7010008B7010008B70100089F
:10016000B7010008B7010008B7010008B70100088F
:10017000B7010008B7010008B7010008000000003F
:10018000B7010008B7010008DFF80CD000F070F9E3
:1001900000480047E911000868040020064880472D
:1001A00006480047FEE7FEE7FEE7FEE7FEE7FEE75C
:1001B000FEE7FEE7FEE7FEE78D1100088901000873
:1001C0002DE9F05F0546002092469B46884606468C
:1001D000814640241BE0284641464746224600F01F
:1001E000D9F853465A46C01A914110D311461846C1
:1001F000224600F0C0F82D1A67EB01084F46224650
:100200000120002100F0B7F817EB00094E41201E35
:10021000A4F10104DFDC484631462A464346BDE8E6
:10022000F09FD2B201E000F8012B491EFBD27047CB
:100230000022F6E710B513460A4604461946FFF7B2
:10024000F0FF204610BD2DE9FE4F81EA030404F0C3
:10025000004421F0004100944FF0000B23F00043D4
:1002600050EA01045ED052EA03045BD0C3F30A549F
:10027000C1F30A552C44A4F2F3340194A0FB0254B8
:10028000C1F3130141F48011C3F3130343F480134A
:1002900001FB024400FB034E840A970A44EA81549E
:1002A00047EA8357A4FB076802958D0A05FB07857B
:1002B0004FEA932C04FB0C542705029D4FEA065885
:1002C00047EA1637B5EB08056EEB070C870E920E62
:1002D00047EA811742EA8312A7FB0201B6EB0B0142
:1002E00064EB00042B0D43EA0C335E1844EB1C5006
:1002F000DA465146E7FB0201C5F313044FEA0B331C
:1003000043EA14534FEA0432019C43EA0603A4F182
:100310000C040294009CCDE900B400F05AF803B03C
:10032000BDE8F08F00200146F9E70EB540F23341F9
:1003300002910021CDE900110A460B4600F049F870
:1003400003B000BDC1F30A5210B5C1F3130140F26E
:10035000FF3341F480119A4201DA002010BD40F2CF
:1003600033439A42A2F2334203DC524200F012F8C5
:1003700010BD904010BD202A04DB203A00FA02F1A3
:10038000002070479140C2F1200320FA03F3194383
:1003900090407047202A04DB203A21FA02F0002125
:1003A000704721FA02F3D040C2F120029140084385
:1003B0001946704710B5141E73F1000408DA401C8A
:1003C00041F1000192185B411A4301D120F0010074
:1003D00010BD2DE9F04D92469B4611B1B1FA81F264
:1003E00002E0B0FA80F220329046FFF7C4FF0446E4
:1003F0000F4640EA0A0041EA0B0153465A460843B9
:1004000013D0114653EA010019D0C8F140025046FA
:10041000FFF7C0FF05460E46504659464246FFF7D5
:10042000AAFF084305D0012004E020463946BDE874
:10043000F08D0020054346EAE0762C4337430A98C6
:100440006305E40AA0EB08000022FD0A44EA4754D1
:100450000A3002D500200146E9E70105101969417B
:10046000DDE9084500196941BDE8F04DA2E700004B
:10047000064C074D06E0E06840F0010394E80700F1
:1004800098471034AC42F6D3FFF782FEDC12000826
:10049000FC120008FEE7704770B5044600F0F0F863
:1004A0000546601C02D004480078044400F0E8F8D7
:1004B000401BA042FAD370BD580000202DE9F84F30
:1004C00000224FF0010803254FF00F0E0B6808FAC9
:1004D00002F42340A3426ED14E68012E05D0022EB5
:1004E00003D0112E01D0122E12D186684FEA420C91
:1004F00005FA0CF7BE43CF6807FA0CF7374387605D
:100500004668A6430C79C4F3001494403443446015
:10051000C668570005FA07FC8C6826EA0C06BC4042
:100520003443C4604C68022C01D0122C13D1D4087F
:1005300000EB8404A346D4F8209054074FEAD46A11
:100540000EFA0AF629EA06090E6906FA0AF646EADA
:100550000906CBF8206006680C7926EA0C0604F040
:100560000304BC40344304604C68E40065D5364C59
:10057000266846F480462660246822F0030604F4C8
:1005800080440094314C3444A446D4F8084896077B
:10059000370F0EFA07F6B4432D4EB04201D10026B4
:1005A00024E02C4EB04201D101261FE02A4EB04279
:1005B00002D102261AE040E0284EB04201D10326C3
:1005C00014E0274EB04201D104260FE0254EB04280
:1005D00001D105260AE0244EB04201D1062605E0ED
:1005E000224EB04201D1072600E00826BE40264335
:1005F000CCF808681E4E34684F689C43FF0300D552
:100600001C4334601A4C241D26684F689E43BF0368
:1006100000D51E432660164E083634684F689C434A
:10062000FF0200D51C433460114E0C3634684F680D
:100630009C43BF0200D51C433460521C102AFFF4B7
:1006400045AFBDE8F88F000044380240003001405B
:10065000000002400004024000080240000C02407A
:10066000001002400014024000180240001C02402A
:10067000003C01400AB1816170470904FBE70000BA
:1006800001488068704700005800002002488168D7
:100690000278114481607047580000200B4810B563
:1006A000016841F400710160016841F480610160FA
:1006B000016841F480710160032000F061F80020BE
:1006C00000F006F800F024F8002010BD003C0240C5
:1006D00070B50D4D04464FF47A712878B1FBF0F0F7
:1006E0000A490968B1FBF0F000F004FB48B9102C8E
:1006F00007D200222146501E00F022F800206C6034
:1007000070BD012070BD0000580000206400002072
:100710000A4808B5016841F480410160006800F4AE
:10072000804000900548001F016841F08051016041
:10073000006800F08050009008BD0000443802407E
:10074000F0B40E4B1B680C46C3F30223C3F107053C
:10075000042D00D90425191D072901D2002300E02A
:10076000DB1E012606FA05F1491E214099409E40F4
:10077000761E16403143F0BC00F017BD0CED00E0D2
:10078000064900F0070208684FF6FF03184040EAE8
:100790000220034A10430860704700000CED00E09F
:1007A0000000FA052DE9F0470E46050065D0DFF898
:1007B0001481D8F80000F7B200F00F00B04207D261
:1007C00088F80070D8F8000000F00F00B04254D153
:1007D00028683D4C810712D5400703D5206840F4B6
:1007E000E05020602878000703D5206840F460407E
:1007F00020602068A96820F0F00008432060287875
:10080000C0072DD0304968680839012812D0022865
:1008100013D0032811D00968890700292DDA21682F
:1008200021F0030101432160FFF72AFF814641F2D5
:10083000883A0EE009688903EFE709688901ECE767
:10084000FFF71EFFA0EB0901514502D90320BDE8C7
:10085000F0872068696800F00C00B0EB810FEFD1E1
:10086000D8F80010404601F00F01B14207D90770D7
:10087000006800F00F00B04201D00120E7E72878BF
:10088000400705D52068E96820F4E050084320605F
:100890002878000706D52068296920F4604040EADE
:1008A000C100206000F048F82168084AC1F3031134
:1008B000515CC8400649086006480068FFF708FF19
:1008C0000020C4E7003C02400838024090120008B3
:1008D000640000205C0000200F2202600C4A1368B4
:1008E00003F003034360136803F0F00383601368AD
:1008F00003F4E053C36012684FF4E05303EAD202FA
:1009000002610448006800F00F00086070470000B2
:1009100008380240003C0240044805490068096864
:10092000044AC1F38221515CC84070476400002032
:1009300008380240A0120008154810B5006810F0F1
:100940000C02144813D04110042A0FD0082A0ED1EB
:100950000F4C241F2268236802F03F025B0207D578
:100960002068C0F38810A0FB010106E0084610BD16
:100970002168C1F38811A1FB00010023FFF720FCCF
:100980002168C1F30141491C4900B0FBF1F010BDE1
:10099000083802400024F4002DE9F84F04006ED01E
:1009A0002078DFF83C93C007A9F104054AD009F18B
:1009B00004000168C1F38101012908D00068C0F377
:1009C000810002280AD1D9F80000400206D5286823
:1009D000800337D560680028E1D033E06068B0F567
:1009E000803F10D0B0F5A02F286810D020F48030C0
:1009F0002860286820F4802028606068A8B1FFF78C
:100A00003FFE06460DE0286840F48030F4E740F4ED
:100A100080202860F7E700BFFFF732FE801B6428C4
:100A200073D828688003F7D50CE0FFF729FE064647
:100A300005E000BFFFF724FE801B6428F0D828687B
:100A40008003F7D42078DFF89C8280074FF0000AFB
:100A50003ED5A348001D016811F00C0F08D00068B6
:100A6000C0F3810002280BD1D9F80000400207D45E
:100A70002868800716D5E068012800D112E02BE134
:100A8000E068B8B10120C8F80000FFF7F9FD06469C
:100A900005E000BFFFF7F4FD801B0228C0D82868DE
:100AA0008007F7D52868216920F0F80040EAC100E6
:100AB00028600DE0C8F800A0FFF7E2FD064604E05C
:100AC000FFF7DEFD801B02281FD828688007F7D4B7
:100AD0002078000722D5824E83486169703671B153
:100AE00001210160FFF7CCFD074604E0FFF7C8FDD8
:100AF000C01B022809D830688007F7D50EE0C0F87F
:100B000000A0FFF7BDFD074605E082E0FFF7B8FD56
:100B1000C01B02287DD830688007F7D420784007B2
:100B200068D5DFF8BCB100270BF13C0BDBF8000007
:100B3000C0000BD4DBF8001041F08051CBF800105E
:100B4000DBF80000012700F080500090674E30680D
:100B5000C00510D4306840F480703060FFF790FD1D
:100B6000009005E0FFF78CFD0099401A022850D84C
:100B70003068C005F6D55A4EA0686C3601280FD0F3
:100B80000528306810D020F001003060306820F077
:100B900004003060A068B8B1FFF772FD00900FE06C
:100BA000306840F00100F4E740F004003060F7E7FF
:100BB000FFF766FD0099411A41F28830814266D8FC
:100BC00030688007F4D50EE0FFF75AFD009007E08B
:100BD000FFF756FD0099411A41F28830814256D8FC
:100BE00030688007F4D42FB1DBF8001021F0805179
:100BF000CBF80010A069C8B33949091D0968C1F3D1
:100C0000810102294AD00228504607D0C8F8600066
:100C100000E03CE0FFF734FD04463BE04746C8F8FF
:100C20006000FFF72DFD064605E000BFFFF728FD39
:100C3000801B02282BD828688001F7D4D4E907014B
:100C40000843A16A2A4A490802EB0141626A41EA63
:100C50008211084394F82C1040EA0161C9F8001091
:100C600001203866FFF70CFD044606E036E000BFC1
:100C7000FFF706FD001B022809D828688001F7D578
:100C80002CE000BFFFF7FCFC001B022802D9032068
:100C9000BDE8F88F28688001F4D41FE00128F7D060
:100CA000D9F80000E26900F48001914214D1226A6F
:100CB00000F03F0191420FD147F6C071626A0140D6
:100CC000914209D1A26A00F44031914204D1E16A13
:100CD00000F07060884201D00120D9E70020D7E7FA
:100CE0000438024000004742800E47420070004036
:100CF0000000FFFF10B5401EB0F1807F01D301203E
:100D000010BD4FF0E02460610F21601700F04DFA34
:100D10000020A06107202061002010BDFEE7012116
:100D2000084600F0DBB80121022000F0D7B800002F
:100D30002DE9F05F0AAC94E8E05F1E4CA061A18051
:100D4000E280E36125816681A781A4F80E80C4F862
:100D50002090A4F810A0A4F812B0A4F814C0A4F82D
:100D600016E000F049F8012020703820A07014200F
:100D7000FFF792FB302000F03DF90520FFF78CFBD8
:100D8000302000F037F90120FFF786FB302000F01B
:100D900031F90120FFF780FB382000F02BF90F20FC
:100DA00000F028F9012000F025F9BDE8F05F0220ED
:100DB000FFF772BB0000002010B5094C0122E1884A
:100DC000A069FFF757FC0A2000F060F80022E188D4
:100DD000A069FFF74FFCBDE810403C2000F056B87A
:100DE00000000020020003488188806900D00122B1
:100DF000FFF740BC0000002000B587B005A9684699
:100E0000FFF76AFD0398A8B3FFF786FD5FEA40008D
:100E1000FFF78BFA9FED191B53EC112BFFF713FA19
:100E2000FFF790FA17490A6842F002020A60164971
:100E30000A6822F010020A600A6822F001020A60C1
:100E40000A6822F004020A600A6842F008020A6096
:100E50000D492831401E08600920091D08600A4913
:100E6000012014310860081F016821F001010160B0
:100E700007B000BDFFE7FFF74FFDC9E78DEDB5A057
:100E8000F7C6B03E40380240000400400949401E09
:100E9000086008481C38016821F00101016005491B
:100EA0002C390A6842F001020A600168C907FCD0C7
:100EB000704700002C04004070B50646002409E08D
:100EC0000120FFF78FFF284600F022F8641CE4B2EF
:100ED000102C02D2355D002DF2D170BD491E01F0FB
:100EE0000F01012804D041F0C00000BF00F082B81B
:100EF00041F08000FAE770B50546002404E01820B0
:100F000000F078F8641CE4B2AC42F8D370BD000085
:100F10002DE9F84F0209364C02F0080302F0040BE9
:100F2000217802F0020902F0010700F0080A00F03F
:100F3000040600F0020500F00108009301292FD0FB
:100F4000022952D13A46218A206AFFF793FB4A468A
:100F5000618A206AFFF78EFB5A46A18A206AFFF752
:100F600089FBE18A009A206AFFF784FBFFF724FFE0
:100F70004246218A206AFFF77DFB2A46618A206A61
:100F8000FFF778FB3246A18A206AFFF773FB5246CF
:100F9000E18A206AFFF76EFBBDE8F84FFFF70CBF50
:100FA00042462189E069FFF765FB2A466189E069CD
:100FB000FFF760FB3246A189E069FFF75BFB524611
:100FC000E189E069FFF756FB3A46218A206AFFF77C
:100FD00051FB4A46618A206AFFF74CFB5A46A18AB8
:100FE000206AFFF747FB009AD2E7BDE8F88F0000C0
:100FF0000000002010B504460020FFF7F3FE204655
:10100000BDE81040FFF784BF2DE9F04786B01421FA
:101010006846FFF70DF934480024016841F080016B
:101020000160016801F080010591016841F0010152
:101030000160016801F001010591016841F00201C0
:101040000160016801F002010591016841F00801A9
:101050000160016801F008010591016841F010018B
:1010600001600068DFF8848000F010004FF47046E3
:101070000590002231464046FFF7FCFADFF87090F9
:101080004FF47F47002239464846FFF7F3FADFF86E
:1010900064A0002203215046FFF7ECFA012502204C
:1010A0000095CDE9014069461348FFF707FA00961D
:1010B000CDE90154694640460394FFF7FFF90097D4
:1010C000CDE90154694648460394FFF7F7F9032038
:1010D0000090CDE90154694650460394FFF7EEF9BC
:1010E00006B0BDE8F087000030380240000402403E
:1010F000000C02400010024000000240FEE7704772
:1011000070477047FFF7C2BA30B593B030216846D8
:10111000FFF78EF814210CA8FFF78AF8194800256C
:10112000016841F080510160006800F0805011902A
:101130001548016841F4804101600068022400F410
:101140008040119001200090000401908001CDE9C1
:10115000064008AA0420A82182E813000B906846E4
:10116000FFF71AFC0CA90F2081E831004FF4A050C2
:101170000F90E002109005210CA8FFF713FB13B0AD
:1011800030BD000040380240007000400548016852
:1011900041F47001016003494FF00060803908603C
:1011A0007047000088ED00E0FEE70907090E0028FF
:1011B00004DB00F1E02080F80014704700F00F001D
:1011C00000F1E02080F8141D704702E008C8121FEB
:1011D00008C1002AFAD170477047002001E001C120
:1011E000121F002AFBD170478EB0FFF757FAFFF7A6
:1011F0008BFFFFF709FF4FF400635A1051100DF1F8
:10120000140C48108CE80F00C20181010DF1040C90
:101210001B4B40018CE80F0040100090194B02223C
:1012200001211948FFF784FD0025DFF860802E4674
:1012300009AF0024D8F80000405D385564206D1CCB
:10124000FFF72AF9FFF76BFD09A8FFF735FE641CCD
:10125000102CEFDB761C032EEBDBFFF764FD0B4855
:101260003430FFF729FE4FF47A70FFF715F94FF489
:10127000FA740120FFF73FFE2046FFF70DF9F8E76B
:10128000000C024000040240001002402400002034
:101290000000000000000000010203040607080926
:1012A0000000000001020304204120737472696E83
:1012B0006720746F20736C69646520776161617960
:1012C000206F7574206F6620686572652E2E2E2043
:1012D0004D415445206D382100000000FC120008EB
:1012E0000000002068000000CA1100086413000814
:1012F0006800002000040000DA110008010F380027
:1013000000000000000000000000000000000000DD
:1013100000000000000000000000000000000000CD
:10132000A812000820536F6D65206E756D6265729E
:10133000733A20332E31343536343738392034354A
:101340002039363335342070692E2E2E3132333425
:1013500035363738010000001000000000000000A2
:041360000024F40071
:040000050800018965
:00000001FF
